:1010000000000420F112000019130000B56F000069
:101010001D1300001F13000021130000000000003A
:10102000000000000000000000000000231300008A
:101030002513000000000000271300002913000002
:101040000DD2000089F000001DD200002B1300001B
:101050002B1300002B13000009CA00002B13000003
:101060002B1300002B1300002B1300002B13000088
:101070002B1300002B1300002B1300002B13000078
:101080002B1300007D3200002B1300002B130000F7
:10109000C5F300001D3300002B1300002B130000CC
:1010A0002B1300002B1300002B1300002B13000048
:1010B0002B1300002B1300000000000000000000B4
:1010C0002B1300002B1300002B1300002B13000028
:1010D0002B1300002B1300002B13000085B1000020
:1010E0002B1300002B1300002B1300000000000046
:1010F000000000002B130000000000002B13000074
:1011000000000000000000000000000000000000DF
:1011100000000000000000000000000000000000CF
:1011200000000000000000000000000000000000BF
:1011300000000000000000000000000000000000AF
:10114000000000000000000000000000000000009F
:10115000000000000000000000000000000000008F
:10116000000000000000000000000000000000007F
:10117000000000000000000000000000000000006F
:10118000000000000000000000000000000000005F
:10119000000000000000000000000000000000004F
:1011A000000000000000000000000000000000003F
:1011B000000000000000000000000000000000002F
:1011C000000000000000000000000000000000001F
:1011D000000000000000000000000000000000000F
:1011E00000000000000000000000000000000000FF
:1011F00000000000000000000000000000000000EF
:101200000348044B834202D0034B03B11847704795
:101210003C0200203C020020000000000548064976
:10122000091A891001EBD171491002D0034B03B1A7
:10123000184770473C0200203C02002000000000DC
:1012400010B5064C237843B9FFF7DAFF044B13B10E
:101250000448AFF300800123237010BDD8020020A2
:1012600000000000782A010008B5044B1BB10449B6
:101270000448AFF30080BDE80840CFE7000000005D
:10128000DC020020782A0100134B002B08BF114B11
:101290009D46A3F5803A00218B460F461148124A1D
:1012A000121A0EF067FB0D4B002B00D098470C4B29
:1012B000002B00D098470020002104000D000B48AF
:1012C0000EF0F6F90EF028FA200029000DF038FA99
:1012D0000EF0F4F9000008000000042000000000F7
:1012E00000000000D8020020D4170020E5F600001E
:1012F0000649074A074B9B1A03DD043BC858D050E8
:10130000FBDC0DF00DFCFFF7BFFF0000842B01009C
:1013100008000020D8020020FEE7FEE7FEE7FEE717
:10132000FEE7FEE7FEE7FEE7FEE7FEE7F0B595B075
:10133000002415460F4608461E4607F0FDFD3846B8
:1013400023460895082205A91A9D09960D950A9429
:101350008DF82C400C9407F069FE9DF814308DF840
:101360001140DDE9061003F00302012ACDE9020174
:1013700027D0022A04D0384607F0E2FD15B0F0BDB0
:10138000BDF81650C3F3C2038DF81030AD0908261E
:10139000082D2C4628BF0824334622460EA938467D
:1013A00007F044FE2D1B214608AB02AA0EA82644D6
:1013B00001F0A6FB002DEBD1384607F0C1FD15B0BA
:1013C000F0BDBDF81460059DC6F38316C3F3C204D7
:1013D000B2000EA9384608238DF81040C5F39525B4
:1013E00007F024FE08AB324628460EA9009302AB54
:1013F00001F0E0FA384607F0A3FD15B0F0BD00BFDC
:10140000704700BF00B583B0044B0093044A4023EB
:10141000FFF78CFF03B05DF804FB00BF251400004C
:10142000F802002038B50F480F4D03780F4CEB5CE5
:101430000025D2B2257053B90C300CF02DFA58B9F2
:101440000B4B1B7813B12378002BFCD038BD043034
:101450000CF064FD0028F3D0064A532101F08AFE07
:10146000EEE700BF08000020AC1600203803002083
:10147000F40200204403010070B51448144A0378B4
:10148000D35C88B0EBB90C300CF05EF9114D0FCD88
:101490006C460FC495E80F0008AD062645F8206D90
:1014A00084E80F0029460022084808F06BF918B1BB
:1014B000094A432101F05EFE084B00221A7008B071
:1014C00070BD04300CF080FCE0E700BF0800002095
:1014D000AC1600201803010044030100F4020020B0
:1014E000064B8B6004284FF00003CB604B609CBF21
:1014F000034B53F820300B60704700BFDC05010040
:1015000000060100C368DB6800225A71704700BF03
:10151000C368DB6801225A71704700BF30B40E4BBC
:101520000E4D0F4CED1A00222D09C1E90242C1E90E
:1015300000220BD003EB0515DC682479FF2C02D0C8
:10154000904205D001321033AB42F5D130BC704728
:101550009B680B6030BC7047182B0100282B0100E2
:10156000140601000129034604D08168D1F83C111A
:10157000890704D500221846114606F003BF00B5BE
:10158000D2E90031054A83B0CDE90021044A0221A5
:1015900006F07EFB03B05DF804FB00BF5C040100B5
:1015A000500401008368D3F83C319B0733D42DE904
:1015B000F0471B4C1B4E361B360982B028D007461D
:1015C000DFF868A0DFF86890DFF8688004EB0616A3
:1015D0000CE06D79CDF804C0002D0CBF55464D468A
:1015E0000095103406F054FBA64211D0D4E902E570
:1015F00095F804C0BCF1FF0F734642464FF0080156
:101600003846E6D1084A103406F042FBA642EDD136
:1016100002B0BDE8F0870022114606F0B3BE00BF5D
:10162000182B0100282B0100880401007C04010014
:1016300074040100A80401008368D3F83C319B07BF
:1016400003D4044A022106F023BB0022114606F00F
:1016500099BE00BFCC0401008368D3F83C319B07DE
:1016600003D4044A022106F013BB0022114606F0FF
:1016700089BE00BFCC040100F0B5344C85B004F540
:10168000836005F05BFE04F2144005F057FED4E9D8
:10169000013703EA0702D01C04EB800114F8200094
:1016A00010F0040042D003F1020C0E7806F003069D
:1016B000012E654635D0022E02F1030621D004EB3F
:1016C00086010028F1D104EB82020133D268019235
:1016D0003B4004EB830302F00302012ADE682ED0B4
:1016E000022A25D1BDF806309B090333360C05EBE1
:1016F0009305174805F02EFE00B16560304605B031
:10170000F0BD4B880CEB931307EA0302D11C03F1E5
:10171000020C14F82100654604EB810100F004007E
:10172000CFE70B88C3F383136344EDE79D1CCAE73F
:1017300008494FF4BF7005F019FD0026D9E7BDF840
:101740000430C3F38313360C1D44D2E70C0400208D
:1017500020080020E00401002DE9F0410F4C104D5D
:1017600052F8046C2D1B2D0907460FD004EB05150C
:1017700002E01034AC4209D0A16830460EF054F9B2
:101780000028F6D1E3685871BDE8F0813346384649
:10179000044A0221BDE8F04106F07ABA182B010094
:1017A000282B0100380401002DE9F041104C114DA7
:1017B00052F8046C2D1B2D09074610D004EB0515BB
:1017C00002E01034AC420AD0A16830460EF02CF989
:1017D0000028F6D1E36801225A71BDE8F081334652
:1017E0003846054A0221BDE8F04106F051BA00BF73
:1017F000182B0100282B01003804010070B4104A96
:10180000104E114C921B0023D208C1E902434B60D9
:101810000CD00E4D2C88A04204D10CE035F82340AA
:10182000A04206D001339A42F8D100220A6070BC6F
:10183000704706EBC30632680A6070BC704700BF91
:10184000182B0100982A0100DC0501003C02002051
:101850002DE9F04FCB683E4EDFF820915B79A6EB87
:10186000090685B08B46F6088046002B6BD0394AB6
:10187000394B0821404606F00BFA384A0821404609
:1018800006F006FA76B3364DDFF8F4A0B700002470
:101890000023EA5AA2423AD004339F42F9D151467A
:1018A000002335F82320A24241D001339E42F8D1D3
:1018B00000208446D646002335F82320A24223D0B8
:1018C00001339E42F8D1002384450ED8254A029266
:1018D000CDE9001E0134244A0821404606F0D8F91B
:1018E000A642D5D105B0BDE8F08F204A0292CDE9DD
:1018F000001E01341C4A0821404606F0C9F9B442D2
:10190000C6D105B0BDE8F08F59F83330DCE7DBF81D
:101910000C2017491279595802EB420207239340D1
:101920000B40D340DBB2134A52F82310B8E709EB5F
:10193000C30393F806C00F4B6046032828BF03205B
:1019400053F820E0B7E70C4A022106F0A1F98EE730
:10195000182B01004C050100400501006C05010039
:101960003C020020C8040100AC050100C4050100D0
:101970007C020020EC0501002C050100982A0100E2
:101980002405010013460A46C168FFF761BF00BF86
:101990002DE9F047124C134D52F8046C2D1B2D0904
:1019A000804615D01746894604EB051502E0103431
:1019B000A5420DD0A16830460EF036F80028F6D1C9
:1019C0003B464A4621464046BDE8F047FFF740BF48
:1019D00033464046044A0221BDE8F04706F058B9B4
:1019E000182B0100282B0100380401002DE9F04FCD
:1019F0008E4B8F4C52F8049CA3EB04085FEA181836
:101A000085B0064611D017460D4604EB081802E0D3
:101A10001034A04509D0A16848460EF005F800280A
:101A2000F6D15DB905B0BDE8F08F824A4B4630462D
:101A3000022105B0BDE8F04F06F02AB9E3687E49FF
:101A4000386893F8049007220EF0C8F9002866D190
:101A5000012D00F0DE80DFF80C8204460A2258F8DF
:101A6000041B78680EF0BAF958B10134052CF5D191
:101A70007B68724A3046022105B0BDE8F04F06F09F
:101A800007B9E3B2022D019340F0BF806C4C6D4B5F
:101A9000A3EB04085FEAD8082746C3D009EB490343
:101AA00007229A400292019ADFF8A4A10194DFF87C
:101AB000A4914FEA880802FA03FB0025144609E0C6
:101AC000019B53F8153006F0E3F80435A84507F1FB
:101AD0000807A7D0BB79A3424A464FF0020130461F
:101AE000EED355F80A20029982EA0B030B405340CB
:101AF000C3F3C202C3F382118A4238BF0A4603F01D
:101B000007018A4238BF0A464F4945F80A30C3F3F5
:101B100042206918824238BF02464A80D5E708222F
:101B20004A4938680EF05AF900287AD1012D0190FF
:101B3000ACD0012303F18043013B09EB4909A7F134
:101B4000040A07EB830707233D4C3E4A03FA09F3D7
:101B50000293019BA2EB04084FEAD80803FA09F3A9
:101B6000B3460AEB850A46460393A04657F8044F4E
:101B7000002E43D0C146002504E00135AE4209F1F4
:101B800008093AD02022214658F835000EF026F9EF
:101B90000028F2D1AE4230D099F80620019B9A423B
:101BA00023D32B4C039B54F82520029826495340FD
:101BB00003405340C3F3C202C3F38210824238BFD2
:101BC000024603F00700824238BF0246C3F34220B8
:101BD00001EB8501824238BF024644F825304A8035
:101BE000BA45C3D105B0BDE8F08FD9F80030194A25
:101BF0000221584606F04CF8F2E73C68164A2346A4
:101C00000221584606F044F8EAE77FF60BAF0223BC
:101C100090E7124A3046022105B0BDE8F04F06F0C9
:101C200037B83B680E4A304625E700BF282B010035
:101C3000182B010038040100A00301001804010062
:101C4000982A0100182B01003C020020C00301006B
:101C50007C020020E003010004040100A80301004D
:101C6000C8030100EC05010001B970472DE9F04FF0
:101C7000C368DB6885B08946174683467A49106891
:101C80001D7907220EF0AAF800286ED1B9F1010FD4
:101C900000F0DE80754E04460A2256F8041B786870
:101CA0000EF09CF858B10134052CF5D17B68704AD0
:101CB0005846022105B0BDE8F04F05F0E9BFE3B298
:101CC000B9F1020F019340F0C0806A4C6A4F3F1B8C
:101CD000FF08264646D0019B029405EB45051A46AF
:101CE000AA404FF0070A0AFA05FADFF89891DFF8E0
:101CF00098810192BF0000251C4609E0029B53F821
:101D00001530043505F0C4FFAF4206F1080629D0AE
:101D1000B379A34242464FF002015846EED355F83C
:101D20000920019B534003EA0A035340C3F3C20254
:101D3000C3F382118A4238BF0A4603F007018A4280
:101D400038BF0A464D4945F80930C3F342206918A7
:101D5000824205F1040538BF0246AF424A8006F1CF
:101D60000806D5D105B0BDE8F08F0822444938688F
:101D70000EF034F8002873D1B9F1010F0190A4D00E
:101D8000012303F18043013B05EB45053A1F07EBB7
:101D900083070723AB40374C374E0293019B361B1A
:101DA000AB4002EB8909F6080393A04657F8044FAD
:101DB000002E43D0C246002504E00135AE420AF1B0
:101DC000080A3AD02022214658F835000EF006F8CD
:101DD0000028F2D1AE4230D09AF80620019B9A42F8
:101DE00023D3284C039B54F82520029823495340C1
:101DF00003405340C3F3C202C3F38210824238BF90
:101E0000024603F00700824238BF0246C3F3422075
:101E100001EB8501824238BF024644F825304A80F2
:101E2000B945C3D105B0BDE8F08FDAF80030164AE5
:101E30000221584605F02CFFF2E73C68134A23467E
:101E40000221584605F024FFEAE78BD9022398E7E0
:101E50000F4A5846022105B0BDE8F04F05F018BF03
:101E60003B680C4A24E700BFA0030100EC05010019
:101E700018040100982A0100182B01003C020020E0
:101E8000C00301007C020020E00301000404010003
:101E9000A8030100C80301002DE9F84F234B244893
:101EA0000022FF21C3F818249960C3E90022C3F877
:101EB000142483F8202406F0FBFF814610B1484625
:101EC000BDE8F88FDFF87C801A4F1B48A7EB0807A6
:101ED00007F0C4FAFF08F2D0DFF860B04D460026E4
:101EE000344608EBC50AA5424FF0140208D058F852
:101EF0003410DAF800000DF071FF0028C8BF013679
:101F00000134A742EFD12BF825600135BD42E6D15F
:101F10000A4B0B490BEB850500225A8004339D4286
:101F200041F8042BF9D14846BDE8F88F0C04002095
:101F3000602B0100182B0100D00501003C0200209D
:101F40007C020020982A010021B9124B03EBC0004B
:101F500000687047104A0F49521AD20815D030B4A1
:101F60000E4D2B88834212D0002303E035F8234026
:101F7000844205D001339A42F8D1002030BC70472A
:101F800001EBC300006830BC70471046704708463C
:101F9000F8E700BF982A0100182B01003C0200203E
:101FA000094B013903EBC00003290BD8DFE801F02E
:101FB0000208060402207047407970470079704794
:101FC0000420704700207047982A01002DE9F0474F
:101FD000DFF8FC90074600208846D9F8084004F056
:101FE00097FFD9E90132D9F80060134401339B1BF4
:101FF000012B62D809F21C450121284605F078F929
:10200000FFF73AFB0146284605F072F9D9E901329B
:10201000D9F80010134401335B1A012BECD90A40A4
:10202000033205230231002049F82230C9F800109C
:1020300004F088FF0021224805F038F980F3100AE7
:10204000204B214A3D0C9B1AB5EBD30F2FD2731CAA
:10205000234009EB83033440033445EA0A45DD603D
:1020600019F8243067F3C50309F8243039F824300F
:102070006FF3891329F8243059F8242068F39F223C
:102080001346012161F301036FF3820349F8242011
:1020900009F8243099F820341BB906E000F01AF84A
:1020A00018B1D9E900329A42F8D1BDE8F087074962
:1020B00040F2A31005F05AF8C9E73146AFE700BF78
:1020C00028080020182B0100982A0100E0040100D4
:1020D0000C0400202DE9F04F9E4C002385B0C4F87D
:1020E0001834BFF34F8FD4E9015605EA0602D31C1A
:1020F00004EB830114F82330580719D527680B78AF
:1021000003F00303012B3DD0022B03D14B88023592
:1021100005EB931506EA0502D4F81804D31C04EB6A
:10212000830128B9AF423ED914F823305B07E6D4C7
:1021300004EB82026B1CD2680192334004EB8303F0
:1021400002F00302DB680293022A05F1020800F0A4
:10215000A380012A2BD0D4F810543DB12B68284617
:102160009B689847EB681D68002DF7D17A4B5B8818
:10217000012B0DD8D4E90030C01A18BF012005B0DA
:10218000BDE8F08F0B880235C3F383131D44C1E70C
:10219000724B73487349C01AC008000440F0020033
:1021A000FFF714FFE6E7676005B0BDE8F08FBDF804
:1021B00004706D48C7F38313062B28BF0623991CB0
:1021C00063F389178900ADF8047006F073FEC7F356
:1021D000C20781460028BED006F0AEFE00230822CA
:1021E00001A9484606F0CEFEBDF8043013F4707F16
:1021F00000F0AE806FF0010BABEB050B082506EA93
:10220000080103312B46042204EB8101484606F005
:10221000B9FEBDF8043008F1010A0BEB0A02C3F362
:1022200083139342D04605F10405E8D8D4F8183456
:10223000002B77D1D4F81054FDB1DFF83481072694
:10224000EB685A79B2B11A79BDF8080002EB420185
:1022500058F8200006FA01F2052F02EA000208BF32
:102260000327CA40BA4205D32B6849461B68284653
:102270009847EB681D68002DE2D1484606F060FEE5
:10228000002004F045FED4F818340BB9C4F804A0BB
:10229000002004F057FE6DE7BDF8063032489DF887
:1022A00004704FEA931A5546502D28BF502565F308
:1022B0008F1305F10801ADF8063006F0FBFDC7F3FA
:1022C000C207814600283FF446AF26EA080B0BF10F
:1022D000010B06F031FE4FEA8B0B0023082201A907
:1022E000484606F04FFE5D4527D9EBB2BBF1000F23
:1022F0001CD006EA0801A3EB0B03033104EB8101B8
:10230000DDB25A460823484606F03CFE2A460BF149
:1023100008031649484606F035FE0AF1030A08EBA1
:102320009A0A83E7484606F00BFE23E72A4608236D
:102330000E49484606F026FEEFE706EA080103319B
:1023400004EB81012A460823484606F01BFEE4E719
:10235000C2466BE70C04002054020020982A0100BA
:10236000C82A01005C070100602B0100180400204E
:102370007C0200202DE9F047DFF808A10746002085
:1023800091468846DAF8084004F0C2FDDAE90132E5
:10239000DAF80060134401339B1B022B68D80AF261
:1023A0001C450121284604F0A3FFFFF765F901460B
:1023B000284604F09DFFDAE90132DAF800101344F0
:1023C00001335B1A022BECD90A4003320331452357
:1023D00000204AF82230CAF8001004F0B3FDB31C04
:1023E00023400AEB830300212248C3F80C9004F039
:1023F0005DFF80F31009204B204A3D0C9B1AB5EB82
:10240000D30F2FD2731C23400AEB830334400334D1
:1024100045EA0945DD601AF8243067F3C5030AF878
:1024200024303AF82430012161F389132AF824304A
:102430005AF8242068F39F22134661F301036FF3D7
:1024400082034AF824200AF824309AF820341BB971
:1024500006E0FFF73FFE18B1DAE900329A42F8D100
:10246000BDE8F087064940F2A31004F07FFEC9E7FB
:102470003146A9E728080020182B0100982A0100FE
:10248000E00401000C0400202DE9F84F404C804688
:10249000002093469A468946A56804F039FDD4E9A0
:1024A0000132276813440133DB1B032B6ED804F27F
:1024B0001C460121304604F01BFFFFF7DDF8014602
:1024C000304604F015FFD4E901322168134401338A
:1024D0005B1A032BEDD90A40033204318523002017
:1024E00044F82230216004F02DFDBA1CFB1C2A4068
:1024F0002B4004EB820204EB830300212548C2F841
:102500000CB0C3F80CA004F0D1FE80F3100A224BEB
:10251000224A4FEA18469B1AB6EBD30F30D27B1CE7
:102520002B4004EB83033D40033546EA0A46DE6058
:1025300014F8253068F3C50304F8253034F8253045
:10254000022262F3891324F8253054F8252069F318
:102550009F221346012161F301036FF3820344F8C4
:10256000252004F8253094F820341BB906E0FFF745
:10257000B1FD18B1D4E900329A42F8D1BDE8F88F24
:10258000074940F2A31004F0F1FDC8E73946A2E77D
:102590000C04002028080020182B0100982A0100B4
:1025A000E00401002DE9F84F434C8046002093469B
:1025B0009A46A568894604F0ABFCD4E90132276845
:1025C00013440133DB1B042B74D804F21C46012195
:1025D000304604F08DFEFFF74FF80146304604F018
:1025E00087FED4E901322168134401335B1A042BBE
:1025F000EDD90A4003320531C523002044F82230CA
:10260000216004F09FFCB91CFA1C29403B1D2A40A4
:1026100004EB810004EB82022B4004EB8303C0F83F
:102620000CB00021C2F80CA024480A9ADA6004F029
:102630003DFE80F3100A224B224A4FEA18469B1AAD
:10264000B6EBD30F30D27B1C2B4004EB83033D4011
:10265000033546EA0A46DE6014F8253068F3C50300
:1026600004F8253034F82530032262F3891324F866
:10267000253054F8252069F39F221346012161F388
:1026800001036FF3820344F8252004F8253094F801
:1026900020341BB906E0FFF71DFD18B1D4E9003264
:1026A0009A42F8D1BDE8F88F074940F2A31004F030
:1026B0005DFDC8E739469CE70C040020280800208F
:1026C000182B0100982A0100E00401002DE9F04FC9
:1026D00085B04B4C0E9EA5680296CDE9002380463E
:1026E000994600200F9B039392468B4604F010FC02
:1026F000D4E90132276813440133DB1B052B7CD856
:1027000004F21C460121304604F0F2FDFEF7B4FF4E
:102710000146304604F0ECFDD4E90132216813444F
:1027200001335B1A052BEDD90A400332063140F222
:102730000513002044F82230FE1C216004F002FC46
:10274000B91C3A1D29402E4004EB810104EB86069A
:102750007B1D2A4004EB82022B40C1F80CA004EB45
:102760008303C6F80C900E9ED66000210F9A254870
:10277000DA6004F09BFD80F31009234B234A4FEAF3
:1027800018469B1AB6EBD30F31D27B1C2B4004EBBF
:1027900083033D40033546EA0946DE6014F82530E0
:1027A00068F3C50304F8253034F82530042262F3B9
:1027B000891324F8253054F825206BF39F22134603
:1027C000012161F301036FF3820344F8252004F82B
:1027D000253094F820341BB906E0FFF77BFC18B1D4
:1027E000D4E900329A42F8D105B0BDE8F08F08492B
:1027F00040F2A31004F0BAFCC7E7394694E700BFE3
:102800000C04002028080020182B0100982A010041
:10281000E00401002DE9F04F87B0504C109EA568F0
:102820000396CDE901239946119B04938046129BA0
:102830000593002092468B4604F06AFBD4E90132EE
:10284000276813440133DB1B062B00F2848004F25B
:102850001C460121304604F04BFDFEF70DFF0146FA
:10286000304604F045FDD4E90132216813440133B8
:102870005B1A062BEDD90A400332073140F24513AB
:10288000002044F82230216004F05CFBB91CF81CE5
:102890003A1D7B1D294028402A4004EB82022B4030
:1028A00004EB810104EB8000BE1D04EB830C2E4081
:1028B000109BC1F80CA004EB8606C0F80C90D36006
:1028C000119BCCF80C300021129B2548F36004F0DA
:1028D000EDFC80F31009234B234A4FEA18469B1A5C
:1028E000B6EBD30F31D27B1C2B4004EB83033D406E
:1028F000033546EA0946DE6014F8253068F3C5035F
:1029000004F8253034F82530052262F3891324F8C1
:10291000253054F825206BF39F221346012161F3E3
:1029200001036FF3820344F8252004F8253094F85E
:1029300020341BB906E0FFF7CDFB18B1D4E9003213
:102940009A42F8D107B0BDE8F08F084940F2A310D1
:1029500004F00CFCC7E739468DE700BF0C040020EB
:1029600028080020182B0100982A0100E00401002B
:10297000044BD3E900239A4201D0FFF7ABBB002000
:10298000704700BF0C04002038B5094BD3F8104441
:10299000012583F820544CB1E3685D71236820461B
:1029A0005B689847E3681C68002CF5D138BD00BF10
:1029B0000C0400202DE9F04784B01D460C9C002338
:1029C00094F80C802373EB8881460E461746002B43
:1029D00040D1297A05290ED06B7AA88873BB404B69
:1029E00053F821A00021FFF7AFFA524603463D49B4
:1029F000204605F097FE062F09D8DFE807F0046AA5
:102A00004249525D33004946204605F08BFE2B7A41
:102A1000052B05D06B7A5BB93349204605F082FE61
:102A2000204605F06BFE84F80C8004B0BDE8F0870A
:102A30002E4A2F49204605F075FEEDE7FFF7B0FA64
:102A40002C4B2B4953F82020204605F06BFE297AA9
:102A5000A888C4E7254A00922749284A204605F05D
:102A600061FEB6E7D6E90410D6E900230390D6E963
:102A700002070291CDE900074946204605F052FEC3
:102A8000C5E74946D6E90023204605F04BFEBEE7E0
:102A9000B168D6E9002320460091494605F042FE80
:102AA000B5E7D6E90201D6E9002301910090494635
:102AB000204605F037FEAAE7D6E90371B068D6E9EB
:102AC00000230291CDE900074946204605F02AFE81
:102AD0009DE732684946204605F024FE97E700BF8F
:102AE000580A01004C0A0100A4040100440A010034
:102AF000001B0100EC0901002C0A0100240A01005E
:102B0000082900D970472DE9F04F1D469046002353
:102B10002A7B2B7385B0B8F80630039207460E4621
:102B2000002B77D198F80810052911D098F80930B2
:102B3000B8F80400002B5FD13A4B53F82140002134
:102B4000FFF702FA224603463749284605F0EAFD18
:102B5000DFF8F4B0DFF8F490002405E03A5D0134CA
:102B600005F0E0FD082C09D0A64249462846F5D8D4
:102B70005946013405F0D6FD082CF5D12B49DFF874
:102B8000D090DFF8D0B0284605F0CCFD002411E04D
:102B900017F804A00CF016FE50445946437813F081
:102BA000970F14BF52462E222846013405F0BAFD75
:102BB000082C08D0A64249462846E9D8013405F039
:102BC000B1FD082CF6D198F80830052B02D098F802
:102BD00009305BB91649284605F0A4FD284605F0E2
:102BE0008DFD039B2B7305B0BDE8F08F114A124990
:102BF000284605F097FDEDE7FFF7D2F90F4B0E4998
:102C000053F82020284605F08DFD98F80810B8F8F4
:102C1000040091E7074A009209490A4A284605F04C
:102C200081FD7FE7580A01004C0A01001C0A0100DF
:102C3000A4040100440A0100001B0100EC0901008A
:102C40002C0A0100240A0100180A0100100A0100E0
:102C5000540A0100200A0100022810B5044603D9D5
:102C60000E493A2004F082FA0D4B1C5D2F2C2346AE
:102C700004D81F2C07D84FF0A04207E009494FF4B1
:102C8000E87004F073FA084A04F01F03D2F8040550
:102C9000D840C04300F0010010BD00BFA40A0100ED
:102CA000040B0100D40A010000030050022810B5F3
:102CB000044603D90F49412004F058FA0E4B1C5D1D
:102CC0002F2C224608D81F2C0BD84FF0A0410123EF
:102CD0009340C1F80C3510BD08494FF4E87004F07A
:102CE00045FA04F01F02064901239340C1F80C3550
:102CF00010BD00BFA40A0100040B0100D40A0100AA
:102D000000030050022810B5044603D90F4947209C
:102D100004F02CFA0E4B1C5D2F2C224608D81F2CD9
:102D20000BD84FF0A04101239340C1F8083510BDE6
:102D300008494FF4E87004F019FA04F01F0206493C
:102D400001239340C1F8083510BD00BFA40A01005B
:102D5000040B0100D40A0100000300504FF0A0430F
:102D60004FF480004FF400014FF08072C3F8080563
:102D7000C3F80815C3F80825704700BF4FF0A043FB
:102D80004FF480004FF400014FF08072C3F80C053F
:102D9000C3F80C15C3F80C25704700BF022810B506
:102DA000044603D910495F2004F0E0F90F4B1C5D85
:102DB0002F2C204604D81F2C07D84FF0A04107E045
:102DC0000B494FF4E87004F0D1F90A4904F01F00F0
:102DD000D1F804350122824022EA03001340C1F8F1
:102DE0000805C1F80C3510BDA40A0100040B010050
:102DF000D40A010000030050203818BF4FF0FF3004
:102E0000704700BFC10706D4830742BF114B0C2295
:102E1000C3F8002770474FF0A043032230B44FF0AF
:102E20008071C3F858274FF48005C3F85C274FF42E
:102E30000004C3F860278207C3F80855C3F80845A3
:102E4000C3F8081503D5034B0C22C3F8002730BC88
:102E5000704700BF00030050434B1978002900F071
:102E600081802DE9F04F002487B001258E4603E0D4
:102E70000134E4B2744560D23C4B27B21E6816F8A8
:102E800037C0ACF1200205FA02F9394ACCF120032F
:102E9000D2E9000125FA03F349EA030905FA0CF81F
:102EA00000EA080201EA0903134306EBC70BDFD06F
:102EB00021EA09032E4920EA08026046C1E90023FD
:102EC00009F07AFD16F837C0ACF1200205FA02F2DB
:102ED00001920199CCF12003C6B225FA03F3ACF1BB
:102EE0002002194306FA02F30393224B0191D3E91E
:102EF0000023CDE9042305FA0CF30093CCF1200163
:102F0000039B26FA01F10B43039306FA0CF3029399
:102F1000DDE90467DDE9002316401F4032463B46E9
:102F2000DDE90267BB4208BFB24209D00E4B013453
:102F300093F800E0E4B274459ED307B0BDE8F08F8B
:102F40009BF80110DBF80430A1F10101B1FA81F125
:102F50004909091AB1FA81F14909002BE6D0604606
:102F60009847E3E7704700BFC80800200009002029
:102F7000F8080020F00800202DE9F84F0646244804
:102F800000F04AFCD8B9234F0123A6F1200103FA2F
:102F900001FBC6F12002D7E9000123FA02F24BEA55
:102FA000020B03FA06FA00EA0A0201EA0B031343D2
:102FB00007D020EA0A0421EA0B05C7E90045BDE86D
:102FC000F88F304609F0F8FC134ED6E90089C8B1F5
:102FD00048EA0A0349EA0B049846A146D7E90023C8
:102FE0004BEA03050D4B0A4819684AEA02044B46AE
:102FF0004246C6E90023C7E900450022BDE8F84F74
:1030000000F0BCBB28EA0A0829EA0B09E6E700BF82
:10301000D0080020F8080020F0080020CC0800208C
:10302000042A36D92DE9F04182B00E4605461446F1
:1030300009F00CFB002836D01D491E4A1E4B0D60BE
:103040001E481F491C60167000230022741EC0E930
:103050000023C1E90023E4B2EEB105EBC404194F2B
:10306000083D4FF00008032601E0AC4213D0A378DE
:1030700020788DF806803A4601A98DF804608DF815
:10308000053009F0EDFA083C0028EED002B0BDE8AA
:10309000F081072070470C4A0C48002100F05CFBCF
:1030A00002B0BDE8F08109F085FA0028C4D0EDE750
:1030B00000090020C8080020CC080020F0080020EB
:1030C000F8080020792F0000592E0000440B010061
:1030D00070B50C4E33687BB10B4D2B7853B1002487
:1030E0003368012113F8340009F0C8FB2B78013450
:1030F000A342F5D8002070BD0449BA2004F036F888
:10310000EAE700BF00090020C8080020080B010002
:1031100030B482B001248DF80740154B9DF807505C
:10312000186044F20104A04259609A6014D044F23D
:103130000201884208D072B69DF80730002BFBD1FF
:1031400062B602B030BC7047DA60DA6812889A6101
:10315000DA685268DA61EEE71A611A6992685A61B0
:103160001A6912689A611A695268DA61E3E700BF66
:103170000409002000B583B002900091019244F24E
:10318000010071466A4600F003F803B000BD00BFBD
:103190002DE9F043044685B00E46154672B6FFF79A
:1031A000F3FBFFF7E5FB0028FBD12C4F44F20102B3
:1031B00094427B8821D044F2020294420ED0002B2C
:1031C0003FD1274B1B68DB0700D500BE2A4631469E
:1031D000204605B0BDE8F043FFF79ABF002BF0D0C2
:1031E000204F21482B886A682049C01BC008000472
:1031F00040F00100FFF748F9E3E7002BE1D0D5F8F4
:103200000890194B174A4846A3EB020806F034F918
:103210002B681749CDE901364FEAD8084FEA08482C
:103220006B68009348F0010803464A464046FFF7A2
:10323000F1FA7B88002BC4D040460E49FEF7C6FE4B
:10324000BFE7084B08480C49C01AC008000440F00A
:1032500001003246FFF78EF8B3E700BF54020020AA
:10326000F0ED00E0982A0100C82A0100480B010097
:10327000640B01008C0B0100A00B0100F8B5204A83
:10328000204B0024C2F84041C2F84441C2F84841F2
:10329000C2F84C41C2F80041C2F804411B6833B384
:1032A0001949D2F804550A68AD1A1A6825F07F4505
:1032B000AA4227460DD8197CDE69AD1A144419B10B
:1032C0001F74D3E9052090471EB133461A68AA42FD
:1032D000F1D90E490E4A0B7812789A4208D00D495E
:1032E0000D4A41F823404FF40013C2F80031F8BDF5
:1032F000531CDBB2022B08BF00230B70EFE700BFAB
:1033000000100140440A0020400A00203D0A00202D
:103310003C0A0020340A002000E100E02DE9F04FD3
:103320008C4A8D4913780978DFF85082994285B02C
:10333000D8F800A000F07B810133DBB2022B08BF7C
:10334000002386481370864A076852F823107B18BA
:1033500023F07F4300240360534626462046A446BC
:10336000ABB11A688A4200F26581DC68C3F800C01C
:10337000891A1044DA6934B13D1825F07F45C3E954
:103380000154DE611E4613460124002BE9D1002CB6
:1033900040F07C8101230093724B734FDFF8E09182
:1033A00043F00103019355464FF0000B46B3D6E9B5
:1033B00001C13446F669694B6C481A68ACEB0203EC
:1033C00023F07F43834248D80B442360002201212D
:1033D000C4E90122E2612174002D5DD02A689A427D
:1033E0004DD2284603E00A689A424FD20846C16986
:1033F0009B1A0029F7D12360E161C461002ED6D168
:1034000078783978884264D00B4603EB43034C1C30
:10341000BA7807EBC303E1B28A421A79397004BF64
:1034200000213970022A9C6844D0032A38D0012A2E
:10343000E8D1227C002AE5D1D3F80CC0C4F804C03E
:103440001969A1605869E06099F800009B69A3615F
:103450000028B0D062609446ADE7A2EB0C0222F0E7
:103460007F428A4202D28B1A2360AFE700230122F7
:10347000C4E90033A360E36122746DB12A68C8F81F
:103480000040D31A2B60E56125468FE7D21A0A6007
:103490002360E161C461B1E7C8F80040254685E7D3
:1034A000002DAFD000232B74ED69002DFBD1C8F89F
:1034B0000050A5E74DB1AC422B4603D1E4E0944265
:1034C0002FD01346DA69002AF9D1002323748842E9
:1034D0009AD1BBF1000F01D1554553D0002D56D1E3
:1034E000234E244A1F4C4FF480334FF40031012700
:1034F000C2F880103C43C6F848334FF43C60C6F82D
:1035000008337760A047154BB7604FF43C601D60EF
:10351000A047194B1D70002389F8003005B0BDE8A5
:10352000F08FA34200F09180E0692168D861002803
:1035300000F086802A4603680B440360AA424FF0DD
:1035400000033978787823741CBF15464FF0010BBF
:10355000BDE700BF3C0A00203D0A0020400A0020D1
:10356000340A0020C00B010024090020FEFF7F0068
:103570000010014000E100E0310A0020440A002070
:10358000300A0020009B002BC5D0002DA8D0434B53
:10359000434A1C68D2F80465424FD5F800A0397838
:1035A000331B23F07F43DD1CB9B93F493F4B4FF438
:1035B0008030C2F844034FF00108C2F804034FF40E
:1035C0000030C1F8800143F001030860C2F80080B8
:1035D0004FF43C60984787F80080AA452CBF04EB65
:1035E0000A0363192E4923F07F43C1F84035D1F80F
:1035F0000425921B9B1B22F07F4223F07F43033262
:103600009A4288D9294BD1F80425C1F8402543F0C6
:1036100001034FF43C609847234B4FF40032C3F84A
:103620000021002389F8003005B0BDE8F08F0026A6
:103630000096B1E674BB521A1A6001230093ABE600
:10364000002339787878237441E71946EA69C8F885
:10365000002092B9CDE90231114BDFF840C00120C2
:103660009860019B89F80000CCF800204FF43C6082
:103670009847DDE90231D8F80020C8690968D861A7
:1036800000287FF458AF59E72946DFE7C8F8003033
:103690009A467FE6C8F800309A46CCE7400A0020F8
:1036A00000100140310A002000E100E0C00B0100E1
:1036B0002DE9F8431F4D204E204FDFF898804FF43E
:1036C00080334FF400324FF001090024C6F8802007
:1036D00047EA0907C5F848334FF43C60C5F808339A
:1036E000C5F80490B847C5F808904FF43C60C8F896
:1036F0000040B847124A134B13491C601470134B17
:10370000134A0C700B2114701C8099704FF4001236
:10371000C023C6F8802186F815333260C5F8084505
:1037200086F81133D5F80435C8F800302046BDE8D6
:10373000F88300BF0010014000E100E0C00B010071
:10374000310A0020440A00203C0A002024090020FD
:103750003D0A0020400A0020074B9B784BB132B154
:1037600028B10368187C20B959745A617047072042
:1037700070470820704700BF240900202DE9F84356
:10378000224CA378002B35D0002833D0042934D91B
:1037900043697BB3437C0646012B4FF000000CBF0E
:1037A000884680461746894603F0B2FB6378A178C5
:1037B00022785D1CEDB2A94208BF0025AA421FD0A5
:1037C00003EB430304EBC3030121114A9E6019710B
:1037D000D2F80425DA600020C3E904989F6165707F
:1037E00003F0B0FB0B4B4FF40012C3F80021002094
:1037F000BDE8F8830820BDE8F8830720BDE8F8831A
:10380000002003F09FFB0420F2E700BF2409002002
:103810000010014000E100E070B5174DAB7823B314
:1038200018B343690BB3002404740646204603F022
:103830006FFB6A78A8782978531CDBB2984208BFDE
:103840002346994213D002EB420205EBC202022149
:103850009660204611716B7003F074FB074B4FF4B8
:103860000012C3F80021204670BD082070BD20461C
:1038700003F068FB042070BD2409002000E100E093
:1038800030B583B020B1154940F27B2003F06EFCC7
:1038900001A9134803F090FC0446E8B1114D2868D3
:1038A0002060002003F034FB0F4B10481B88026897
:1038B00001339B1AE380002103F0F8FCA080002074
:1038C00003F040FB01A9064803F0A2FC084B1B686B
:1038D00013B101462846984703B030BDD00B010014
:1038E0002C0000201C0C0100E80A0020040C002021
:1038F0004C0A002070B50378052B82B0054641D0F4
:10390000002B4CD1394B1C685CB1394E2368002B1D
:103910002DD09B68DBB16888984723685C68002CD1
:10392000F4D1344C002003F0F3FA236833B30121BF
:10393000304803F0DDFC002003F004FB2E4B1B6835
:1039400013B1284601219847236802B070BD314663
:1039500040F21B1003F00AFC236868889B689847B4
:1039600023685C68002CDCD02368002BD1D1314661
:103970004FF48D7003F0FAFB2368CAE71F4B6A8887
:103980001A80D4E71E4BD3F88424D3F8803413F084
:10399000FF0F04D11B4BD2B2052A08BF1D4601A957
:1039A000194803F009FC04460028CED02B680360B8
:1039B000002003F0ADFA114B0E481B88026801335A
:1039C0009B1AE380002103F071FCA080002003F02B
:1039D000B9FA01A90C4803F01BFC074B1B68002B2C
:1039E000B3D001462846984702B070BDFC0B0020BA
:1039F000D00B0100040C00204C0A0020E80A002033
:103A000000700240180C01002C00002030B5012885
:103A100083B012D01AD3022806D0204940F2622087
:103A200003F0A4FB03B030BD01A91D4803F0C4FBA3
:103A300004460028F6D01B4D10E001A9184803F0F9
:103A4000BBFB04460028EDD0174D07E001A9144840
:103A500003F0B2FB04460028E4D0144D286820602F
:103A6000002003F055FA124B12481B8802680133FC
:103A70009B1AE380002103F019FCA080002003F0D2
:103A800061FA01A9064803F0C3FB0B4B1B68002B2E
:103A9000C8D001462846984703B030BDD00B01007E
:103AA0002C000020140C0100100C01000C0C010073
:103AB000E80A0020040C00204C0A00202DE9F04FF9
:103AC00087B006AF00260446894692469B4647F8D3
:103AD000106D00E00136626801235568214600221E
:103AE0003846A8470028F5D18DF80600049066B343
:103AF000804605460AE09DF806306768023B7F680D
:103B0000B8479DF806301D44AE421ED962680123B5
:103B1000576821460DF1060204A8B84762680123E0
:103B2000576821460DF1070204A8B8479DF80730F1
:103B30004B454FF00002214604A8DCD1C24508D015
:103B400008F101085FFA88F8D5E7052007B0BDE85D
:103B5000F08F109A9DF8063013608BF800308BF8C8
:103B600001906168023B4D680BF102022146A847B3
:103B70000020EBE72DE9F04F85B0054605F0D4FCB9
:103B8000A8B108234FF484725749584803F0FCFA4F
:103B900040B9574806F0D8FD044670B1204605B03C
:103BA000BDE8F08F0324204605B0BDE8F08F5149F1
:103BB00040F2313003F0DAFAE3E74F4A4F49504B15
:103BC00014700C60482221464E481C600BF0D2FE57
:103BD000214648224C480BF0CDFE002D6BD095E8D5
:103BE00007004A4B83E80700002005F079FD08B183
:103BF000852865D1DFF818A1434D9AF80830019364
:103C000000261A46F3B29342DAF804B03D4F0AF1A7
:103C100009043DD2002C3BD0617891B3A378E3181E
:103C200018BF4FF0010914D12BE0B8F1080F21D8CB
:103C300005EBC803C3F800A0DBF800005860894515
:103C400009F10103D8B21CD2A3784B44E31818D071
:103C500081461878030600F00F08E6D5B8F1080F82
:103C600005D924494FF4CC7003F080FA617807EB52
:103C7000C803DFE71F494FF4CF7003F077FA61788C
:103C8000D6E70136019AF3B2934204F10304C1D39B
:103C90000B238DF80C30BBF1000F1FD0DBF8003088
:103CA000A3B11B4803A99847044600283FF476AF08
:103CB00006F000FE72E7154BC3E900551D7293E74D
:103CC0000C4A40F25F31FFF755FA93E7094940F299
:103CD000111003F04BFADBF80030E2E705494FF42E
:103CE000887003F043FAD9E7EC0A00202C0000208A
:103CF000F5380000D00B0100080C0020F40B002068
:103D0000F80B0020580A0020A00A00204C0A0020CE
:103D1000580C010010B506F0DDFE40B106F0E2FEE1
:103D2000044620B9064805F0EBFC10B910BD082088
:103D300010BD044A40F2C231FFF71CFA204610BD04
:103D4000080C0100D00B010006F0C4BD08B506F058
:103D5000D3FE20B1044940F2D13003F007FABDE8A8
:103D6000084008F007B900BFD00B010030B583B0A0
:103D700006F0B8FE002830D04FF0804303E0D3F8BF
:103D80003824D10727D5D3F838249207F7D501A9CD
:103D9000154803F011FA0446E8B1144D2868206074
:103DA000002003F0B5F8124B12481B88026801335B
:103DB0009B1AE380002103F079FAA080002003F031
:103DC000C1F801A9084803F023FA0B4B1B6813B193
:103DD00001462846984703B030BD08494FF4767035
:103DE00003F0C4F9C8E700BF2C000020200C01003C
:103DF000E80A0020040C00204C0A0020D00B01002F
:103E000010B582B0822301A912488DF8003003F06A
:103E1000D3F9E8B1044600982060002003F078F858
:103E20000D4B0E481B88026801339B1AE38000216A
:103E300003F03CFAA080002003F084F801A90548B3
:103E400003F0E6F9064B1B6813B101466846984734
:103E500002B010BD2C000020E80A0020040C002055
:103E60004C0A002010B582B0832301A912488DF8B6
:103E7000003003F0A1F9E8B104460098206000206A
:103E800003F046F80D4B0E481B88026801339B1A5D
:103E9000E380002103F00AFAA080002003F052F82A
:103EA00001A9054803F0B4F9064B1B6813B101469C
:103EB0006846984702B010BD2C000020E80A002098
:103EC000040C00204C0A002030B51E4B1B7883B038
:103ED000002B30D0012001F091FD044610B920469E
:103EE00003B030BD842301A917488DF8003003F0DA
:103EF00063F905460028F2D000982860002003F0FE
:103F000007F8124B12481B88026801339B1AEB809A
:103F1000002103F0CBF9A880002003F013F801A9D9
:103F2000094803F075F90B4B1B68002BD7D00146ED
:103F300068469847D3E7084940F2134003F016F962
:103F4000C8E700BF000C00202C000020E80A002079
:103F5000040C00204C0A0020D00B01002DE9F04F8A
:103F6000824685B0002800F0E680DAF80430002BA5
:103F700000F0EB801B68002B00F0D780DAF80030EF
:103F80001B6823B17D4940F26D5003F0EFF806F055
:103F9000A9FD00283FD106F09DFD00283BD000265A
:103FA0009AF80820DFF8DCB1DFF8D081744FF4B262
:103FB0000AF10903944201933FD2019B04EB4404AC
:103FC0001C193BD0002507E0B9F1080F29D80BEBED
:103FD000C90301351B68D3B96378EAB2934226D985
:103FE000A3781344DC4222D0E25C02F00F091206EF
:103FF000EAD5B9F1080F04D941464FF4CC7003F06B
:10400000B5F807EBC90301351B68002BE4D011207C
:1040100005B0BDE8F08F594940F2715003F0A6F8A1
:10402000BDE741464FF4CF7003F0A0F8CFE701366B
:104030009AF80820F4B29442BFD300245FFA84F9BE
:104040000AF1090391454F4DDFF830814C4F019340
:1040500045D2019B09EB490913EB09093FD099F8B7
:104060000130BBB399F8023019EB030318BF4FF0CE
:10407000010B18D12EE0082E24D805EBC603C3F897
:1040800000A0DAF8042012685A6099F801100BF1C8
:1040900001035945DAB21BD999F802305B4419EB98
:1040A000030315D093461A78130602F00F06E2D5E3
:1040B000082E04D941464FF4CC7003F057F807EBB3
:1040C000C603DCE741464FF4CF7003F04FF8D4E766
:1040D0009AF8082001345FFA84F99145B9D32A4C43
:1040E000236833B1254D9A4514D01C682368002BF2
:1040F000F9D1C4F800A0DAF804300B228DF80C20B6
:10410000002B33D01B6843B3504603A9984705B032
:10411000BDE8F08F294640F2975003F027F8236856
:104120001C682368002BDED1E3E7144940F26C5091
:1041300003F01CF822E7114940F26A5003F016F828
:10414000DAF80430002B7FF415AF0C4940F26B50C5
:1041500003F00CF8DAF804300CE7084940F21110CB
:1041600003F004F8DAF804301B68CDE703494FF494
:10417000887002F0FBFFDAF80430C3E7D00B0100CF
:10418000580A0020A00A0020F40B002070B5054654
:1041900000284CD06B68002B51D01B68002B57D0E7
:1041A00006F0A0FC18BB06F095FC00B32B4C22686F
:1041B0003AB12B4EAA422ED0146862680434002A09
:1041C000F8D12B685B6823B1254940F20E6002F0FC
:1041D000CDFF244C22683AB1214E95420DD014688F
:1041E00062680434002AF8D12560002070BD1C49A3
:1041F00040F2036002F0BAFFD8E7314640F21460A3
:1042000002F0B4FF23681C6862680434002AE4D119
:104210002560002070BD314640F2096002F0A6FF23
:1042200023681C6862680434002AC3D1C9E70C49BA
:1042300040F2FF5002F09AFF6B68002BADD10849A5
:104240004FF4C06002F092FF6B681B68002BA7D18F
:10425000034940F2016002F089FFA1E7FC0B002056
:10426000D00B0100F80B002010B5044608B306F08F
:1042700039FC80B906F02EFC68B1114A136843B1CD
:104280009C4202D10EE0A3420BD01A685368002B67
:10429000F9D1052010BD0B4940F2216002F066FF04
:1042A000EBE7043223685B681360236800205860E2
:1042B00010BD044940F21F6002F058FFD7E700BF6D
:1042C000F80B0020D00B010008B560B1094A137843
:1042D0000133DBB2137023B9074940F2716002F079
:1042E00045FF002008BD044940F26E6002F03EFF29
:1042F000ECE700BF000C0020D00B010010B560B14E
:10430000094C23782BB9094940F27B6002F02EFF5B
:104310002378013B2370002010BD044940F27960EE
:1043200002F024FFECE700BF000C0020D00B0100DE
:10433000024B1878003018BF01207047000C002095
:1043400000F00F03072B10B5044604D806F00CFE4E
:10435000204607F0E5F92046BDE8104007F04CB9CB
:1043600007F0FABA014B1868704700BFF40B002041
:1043700070B4114B1E68A6B1357A75B1737A834259
:1043800006F1090210D0002303E012F8034F844223
:104390000BD00133DBB29D42F7D133681E68002E8B
:1043A000EAD1304670BC704700230029F9D030466E
:1043B0000B7070BC704700BFF40B002070B5154641
:1043C0000446A0B16368D3B11B6823B129462046D7
:1043D000BDE8704018470D4940F2111002F0C6FECA
:1043E0006368294620461B68BDE8704018470749A6
:1043F00040F20F1002F0BAFE6368002BE4D10349CB
:104400004FF4887002F0B2FE6368DDE7D00B010064
:1044100000F00F03082B14D8020670B54CBF114AE8
:10442000114ADB0013441D684DB16B680C4693B113
:104430001B6843B121462846BDE87040184710204C
:1044400070BD10207047094940F2111002F08EFE35
:104450006B681B68EEE705494FF4887002F086FE32
:104460006B68E5E7580A0020A00A0020D00B010085
:1044700070B5144B1C681CB30546134E07E0294663
:1044800020469847062813D123681C68C4B1636886
:104490007BB11B68002BF2D1314640F2111002F0C3
:1044A00065FE636829461B68204698470628EBD0BE
:1044B00070BD31464FF4887002F058FE6368E8E73B
:1044C000062070BDF40B0020D00B010038B50D465E
:1044D000044606F08BFB18B1054B1B78022B01D06C
:1044E000082038BD29462046BDE8384006F0A0BB6C
:1044F000080C002038B50D46044606F077FB18B1CD
:10450000054B1B78022B01D0082038BD29462046D8
:10451000BDE8384006F056BC080C0020F8B54368EA
:104520009B6805460C4616461BB19847062800D0E6
:10453000F8BD2B7AA34232D3002E37D12B7AA34277
:104540001DD9093504EB44042C4467782FB3354654
:1045500033463A460EE0A3786219D65C06F00F03A4
:10456000072B30460DD9013507F046F8EBB29F42D4
:1045700013D962789342EED300231B78FFDE737861
:10458000FFDE06F0F1FC304607F0CAF80135304690
:1045900007F032F8EBB2BB42EBD30020F8BD044980
:1045A00040F2F92002F0E2FD002EC7D00720F8BD4E
:1045B000D00B010043681B6903B1184718467047C8
:1045C0002DE9F84F364B1F68002F5DD0DFF8D4B0CF
:1045D00097F808A0BAF1000F52D04FF000094C46EE
:1045E00007F109050DE020B1594640F26A7002F06A
:1045F000BDFD09F101095FFA89F4A24505F1030542
:104600003ED97B689B682BB10022214638469847EB
:104610000628E8D13B7AA3423BD3A34236D995F88A
:104620000180B8F1000FE4D00024234642460EE09A
:10463000AB782A19D65C06F00F03072B30460BD94E
:10464000013406F0D9FFE3B24345D2D26A789342EF
:10465000EED300231B78FFDE06F086FC304607F021
:104660005FF80134304606F0C7FFE3B29845EDD855
:1046700009F101095FFA89F4A24505F10305C0D8E3
:104680003B681F68002FA3D1BDE8F88F00235B783B
:10469000FFDE594640F2F92002F068FD3B7ABCE7A4
:1046A000F40B0020D00B01002DE9F047234B1F68CD
:1046B000002F37D0DFF888A097F80890B9F1000FE5
:1046C0002CD04FF00008444607F109057B68DB68F1
:1046D00013B12146384698473B7AA34227D39C42E0
:1046E00022D26E7896B100242346324609E0AB7898
:1046F0002A190134D05C07F02FF9E3B29E4205D9A4
:104700006A789342F3D300231B78FFDE08F1010897
:104710005FFA88F4A14505F10305D7D83B681F6807
:10472000002FC9D1BDE8F08700235B78FFDE51463A
:104730004FF4467002F01AFD3B7AD0E7F40B0020EC
:10474000D00B01002DE9F041844D2B680446002B6D
:1047500000F0048302F010FC052840F28C802378DE
:10476000852B00F2F482DFE813F04702E0018C00B1
:104770006A02BD02B700BE00F202E00005011E01A0
:10478000F202F202F202F2023701F202F202F20245
:10479000F202F202F202F202F202F202F202F20279
:1047A000F202F202F202F202F202F202F202F20269
:1047B000F202F202F202F202F202F202F202F20259
:1047C000F202F202F202F202F202F202F202F20249
:1047D000F202F202F202F202F202F202F202F20239
:1047E000F202F202F202F202F202F202F202F20229
:1047F000F202F202F202F202F202F202F202F20219
:10480000F202F202F202F202F202F202F202F20208
:10481000F202F202F202F202F202F202F202F202F8
:10482000F202F202F202F202F202F202F202F202E8
:10483000F202F202F202F202F202F202F202F202D8
:10484000F202F202F202F202F202F202F202F202C8
:10485000F202F202F202F202F202F202F202F202B8
:10486000F202F202F202F202F20250015E019C0137
:104870009F021702B7003A4940F22C4002F076FC42
:104880006DE7384E3278931EDBB2062B0BD83649D3
:10489000CB5C13B104F0FEFE3278022A01D0082A64
:1048A00001D106F06DF9314B5B68032232700BB118
:1048B000022098472D687DB1294E6B68002B00F0CF
:1048C0006F831B6828462146002B00F0B982984769
:1048D0002B681D68002DF0D1254B2146D3E900023D
:1048E000BDE8F0411047A37803F00F051B0600F167
:1048F0004082082D00F294831D4B03EBC5052B6805
:10490000002B00F09A836B68002B00F08F832868DF
:104910002146984700B3A07800F00F03013B062B17
:104920001AD8BDE8F04106F0D5BA104B5B680BB160
:10493000082098472D687DB1094E6B68002B00F068
:104940003D831B6828462146002B00F0498298478A
:104950002B681D68002DF0D1BDE8F081F40B00201C
:10496000D00B0100080C0020C80B01004C0A0020ED
:10497000A00A0020974B5B680BB1092098472D686F
:10498000002DE9D0944E6B68002B00F010831B685B
:1049900028462146002B00F0638298472B681D684B
:1049A000002DF0D1D8E78B4B5B680BB10A209847FC
:1049B0002D68002DD0D0884E6B68002B00F0D4827B
:1049C0001B6828462146002B00F0AE8298472B68D2
:1049D0001D68002DF0D1BFE77E4B5B680BB10F2047
:1049E00098472D68002DB7D07B4E6B68002B00F0E8
:1049F000EC821B6828462146002B00F00182984774
:104A00002B681D68002DF0D1A6E7744E3378062B75
:104A100000F0C481072B01D0052B9DD106F0BAF818
:104A20000223337098E76E4B6E49D3E9000290473A
:104A30002C6884B1684E6B4D6368002B00F0A9822E
:104A40001B6820462946002B00F05E8298472368A9
:104A50001C68002CF0D15F4C63680BB10D209847A7
:104A6000FFF722FE00F020FC5F4B1B68002B00F0DC
:104A700090810120594E05F0E9FF3278931EDBB298
:104A8000062B0BD85949CB5C13B104F003FE3278E6
:104A9000022A00F0B682082A00F0B38201233370A4
:104AA0005AE74E4EFFF700FE07F0A6F83278931E45
:104AB000DBB2062B0BD84D49CB5C13B104F0EAFDF9
:104AC0003278022A01D0082A01D106F059F82C6860
:104AD0000023337084B1404F454D6368002B00F0D4
:104AE0007B821B6820462946002B00F0998198475D
:104AF00023681C68002CF0D1394B3D49D3E90002F2
:104B00009047344B5B680BB10E2098473378023BDB
:104B1000DBB2062B3FF620AF344AD35C002B3FF4C8
:104B20001BAFBDE8F04104F0B5BD2C4EFFF7BCFD56
:104B300000F0B0FB3278931EDBB2062B00F214813A
:104B40002A49CB5C002B00F00F81022A03D0082AEF
:104B500001D006F01FF81F4B5B68022232700BB1C8
:104B6000012098471E4B2146D3E9000290472D684B
:104B7000002D3FF4F1AE184E6B68002B00F033822D
:104B80001B6828462146002B00F07A8198472B6845
:104B90001D68002DF0D1DFE6104E3378032B00F0B6
:104BA000028105F0B7FF00283FF4D6AE3278931E9D
:104BB000DBB2062B40F24D820E4804F029FD32781C
:104BC000022A00F02A82082A00F027820623337086
:104BD000C2E600BF4C0A0020D00B0100080C0020E8
:104BE000A00A0020240C0100F80B0020C80B0100D3
:104BF000280C010024000020A94B1B78032B00F097
:104C0000EB80082B00F0E880A64B5B680BB100201E
:104C10009847A54B1D68002D3FF49EAEA34E6B68D0
:104C2000002B00F0E7811B6828462146002B00F08E
:104C30004B8198472B685D68002DF0D18CE6984E2B
:104C40003378082B00F0A0809A1ED2B2062A40F2D8
:104C5000DE81974804F0DCFC3378022B00F0D4812D
:104C6000082B00F0D181052333708E4B5B680BB1AC
:104C7000032098478F4B2146D3E9000290472D68C7
:104C8000002D3FF469AE894E6B68002B00F07381F4
:104C90001B6828462146002B00F0568198472B6858
:104CA0001D68002DF0D157E67D4E3378032B7FF43D
:104CB00053AE07F07FF800283FF44EAE3278931ED3
:104CC000DBB2062B0BD87C49CB5C13B104F0E2FCC1
:104CD0003278022A00F0C381082A00F0C081042340
:104CE000337039E66F4B5B680BB103209847714B0B
:104CF0007249D3E9000290472C6884B16B4E6F4D26
:104D00006368002B00F03E811B6820462946002B7B
:104D100000F0EA80984723681C68002CF0D1604EB0
:104D20003378062B37D0082B0ED09A1ED2B2062A23
:104D300040F289815E4804F06BFC3378022B03D08B
:104D4000082B01D005F026FF0223337004E65749F3
:104D500040F22650BDE8F04102F008BA534940F253
:104D6000254002F003FAF5E4514804F051FC327892
:104D7000EBE6082D04D94D494FF4CC7002F0F6F95A
:104D80004F4B03EBC505BAE50223337005F00CFF6A
:104D90006BE7207A6EE607233370DDE505F0FAFE57
:104DA00008233370D8E507F005F800283FF4F9AE82
:104DB0003278931EDBB2062B0BD83F49CB5C13B184
:104DC00004F068FC3278022A00F04C81082A00F0D6
:104DD000498104233370E4E63A48FFF7B3FC13E754
:104DE000314640F2111002F0C1F96B6828461B6889
:104DF000214698472B681D68002D7FF49EADABE5DA
:104E0000314640F2111002F0B1F96B6828461B6878
:104E1000214698472B681D68002D7FF4E6AD9BE581
:104E2000394640F2111002F0A1F9636820461B6870
:104E30002946984723681C68002C7FF44EAE5BE639
:104E4000314640F2111002F091F96B6828461B6858
:104E5000214698472B681D68002D7FF42EAD3BE559
:104E6000314640F2111002F081F96B6828461B6848
:104E7000214698472B681D68002D7FF484AD6BE5B3
:104E8000314640F2111002F071F96B6828461B6838
:104E9000214698472B681D68002D7FF46DAE5BE5B9
:104EA000080C00204C0A0020F80B0020D00B010059
:104EB00024000020A00A0020C80B0100300C0100D3
:104EC000580A00202C0C0100314640F2111002F06B
:104ED0004DF96B6828461B68214698472B685D682A
:104EE000002D7FF49CAE37E5314640F2111002F000
:104EF0003DF9636820461B682946984723681C686B
:104F0000002C7FF4FDAE0AE7314640F2111002F0AA
:104F10002DF9636820461B682946984723681C685A
:104F2000002C7FF489AD96E5314640F2111002F075
:104F30001DF96B6828461B68214698472B681D6839
:104F4000002D7FF439AD07E5314640F2111002F033
:104F50000DF96B6828461B68214698472B681D6829
:104F6000002D7FF491AEF7E431464FF4887002F0E3
:104F7000FDF86B6824E531464FF4887002F0F6F8CE
:104F80006B6885E631464FF4887002F0EFF863688D
:104F9000BAE631464FF4887002F0E8F863684FE5EE
:104FA00031464FF4887002F0E1F86B6889E43146CD
:104FB0004FF4887002F0DAF86B68E8E431464FF499
:104FC000887002F0D3F86B68BBE431464FF4887008
:104FD00002F0CCF86B680CE539464FF4887002F0AB
:104FE000C5F863687DE531464FF4887002F0BEF87D
:104FF0006B68C5E531464FF4887002F0B7F86B680E
:1050000011E605F0BDFD49E505F0BAFD2BE61749AF
:105010008A5C002A7FF421AE1BE605F0B1FDD5E5E0
:1050200013494FF4CF7002F0A1F865E4104940F243
:10503000035002F09BF86B6869E40D4940F202509E
:1050400002F094F85FE409498A5C002A7FF476AEA6
:1050500070E60649CB5C002B7FF4B2ADACE505F001
:105060008FFD3CE605F08CFDB3E600BFC80B0100E8
:10507000D00B010070B5284E82B034680023019334
:105080000CB3A588A5B1E388B3F5006F3ABF5A1CED
:1050900092B2012205F1FF3528BF002301A8A580A7
:1050A000E280ADF80630FFF74DFB012002B070BD85
:1050B0002046FFF747FB1949194802F0E7F801209D
:1050C000356002B070BD1549154802F0B1F80446CC
:1050D00030600028D5D1134B1B6813B9184602B0B5
:1050E00070BD114D01F014FF2B880E48B3F5006F11
:1050F00039BF5A1C92B22346012201212A80ADF801
:10510000063002F00DF9002001F01CFF01A8FFF7A6
:1051100019FB012002B070BD0C0C0020480A0020D1
:105120002C000020040C0020E80A0020002070471A
:105130002DE9F04F87B04B6802900D460192002B8D
:1051400000F08180019B402B77D805F0BFFEEE6810
:10515000019B9E4228BF1E468146002E00F08C8097
:105160004FF000084246C2464FF0010BD5E901134B
:10517000B3421C4628BF3446361BA71819B309EBA7
:10518000020022460AF05CFBD5E902321B1B141B0D
:10519000C5F804A0C5E902347BB1002C2ED0AB6861
:1051A00073B33A46002EE1D1029BC3F800905F60D2
:1051B000584607B0BDE8F08FEC68B8F1000F14D185
:1051C000F4B9C346EDE7002BF6D028464A4450F820
:1051D000101B4B68D3F804802346C047D5E9023240
:1051E0001B1B141BC5E9023423B92B68E3B11B68F0
:1051F0001B682B604FF00108002CD0D1A346D0E7EC
:10520000296800292FD0CDF810A003E0AB682968E9
:105210000133AB604B6800225C6804A80123A047FF
:105220000028F3D12861BCE71849039340F24320DA
:1052300001F09CFFEC68039BD9E715494FF4CB7054
:1052400001F094FF81E70C68D4B123681B68002B40
:105250007FF478AFAB68002B7FF474AF029A9B4663
:1052600013605360A4E76960002F9DD0019BBB428F
:1052700088BF4FF0000B97E737464FF0010B93E7DD
:10528000024940F2432001F071FFDEE7B80C010053
:10529000F00C010008B50020FFF752F88020BDE8AF
:1052A0000840FFF74DB800BF08B50020FFF758F8D9
:1052B0008020BDE80840FFF753B800BF70B5C38831
:1052C00093421D4628BF1546934284B00E461DD812
:1052D000002200200392CDE9016501F019FE01A929
:1052E0008020FFF7F3F8044628B1002001F02AFEE1
:1052F000204604B070BD05F0BDFE802812D000200D
:1053000001F020FE1024204604B070BD8020144619
:1053100005F050FCB4FBF0F303FB1042B2FA82F24A
:105320005209D6E7054A064B92E8030083E80300DA
:10533000002001F007FE204604B070BDA00C010063
:105340003C0C00202DE9F04F0B78062B89B000F0C3
:10535000A58017D90D2B00F091803ED80B2B70D073
:105360000C2B43D1A54C2378012B29D1A449A54866
:105370000A78002322F002020A7023701D46FFF70C
:10538000E1F926E0022B23D066D9032B44D0052B6C
:105390002CD105460DF115008DF8143005F008FEEE
:1053A0009DF81520984C002102F01F032160032B6B
:1053B00000F28481DFE813F0FD003001CC00BB0077
:1053C000924940F2514001F0D1FE2378002BCDD11B
:1053D0000025284609B0BDE8F08F0E2B0BD0852B99
:1053E00004D1864B1A78032A00F0748106252846DA
:1053F00009B0BDE8F08F814C2378012B40F2608129
:105400007F4A80481378012123F002031370217032
:105410000025FFF797F9DCE77D4801F09BFF30B1ED
:105420007C4B01221A60BFF36F8FBFF34F8F734B1A
:105430001D78002DCCD1754940F2374001F096FE21
:10544000C7E76E4B1B78002BC2D0704940F24B402F
:1054500001F08CFE0025BCE7012BC7D1674B1A7801
:10546000032AC3D0664967480A78032422F002025F
:105470000A701C700625FFF765F9AAE74FF0804314
:105480005E4CD3F83834227813F0010334D0022A6A
:105490009ED05B4A5B4813780221B5E7C8780328A1
:1054A0000C46A3D08B785B0635D1574E3368002B62
:1054B00000F04A8100223260716898470546C0B901
:1054C0003368002B00F00B81A378002B80D105F00E
:1054D00095FD7EE7494D2B78043B012B00F2368188
:1054E0009DF81730002B00F09781012B00F0F98117
:1054F000072505F0B5FD6CE7012A3FF469AF404987
:1055000040480A78012622F002021D460A702670E1
:10551000FFF718F95DE740F274403C4901F026FEC0
:10552000E078C2E7394940F2813001F01FFE05A85A
:10553000FEF79EFF0546002DDBD12568002D00F00B
:10554000D78005F097FD054600287FF441AFBEE700
:105550009DF81900010707D005A9FEF759FF062895
:105560000546E8D19DF8152012F0600F40F0A680A6
:105570009DF81630214A9DF819501278012B00F041
:10558000F780C0F0E580032B40F0988005F00F0312
:10559000072B00F29380BDF81710002940F08E8091
:1055A000052A02D0002B40F0D180284605F092FC5D
:1055B000C3E7002D00F0C080C2F34115002DB6D125
:1055C000D2099DF8161040F0988001390829AED80C
:1055D00001A353F821F000BF7D5600002F550000B5
:1055E0009D5600002F550000255500002F55000046
:1055F0002F5500002F550000D55400001C0C002032
:10560000380C0020680C01003C0C0020F00C01005C
:10561000440C00205C70024003A99DF81900FEF7BD
:10562000A7FE0646002866D005AA9DF80C10FEF7D6
:10563000C5FE062805467FF47EAF9DF8153013F0B1
:10564000600F7FF456AFB34A9DF80C1012789DF8A6
:1056500016C0DF0940F0C680BCF10B0F7FF449AFE4
:10566000052A73D1BDF81730FF2B3FF641AF304606
:105670009DF81720FEF752FF05465CE7BDF817308E
:10568000012B7FF454AFFEF753FE002800F0C280D8
:10569000A14A137823F0020313704EE7BDF81730C8
:1056A000012B7FF444AFFEF743FE002800F0B280E8
:1056B000994A137843F0020313703EE7062518E772
:1056C000964940F2654001F051FD2378012B3FF4EB
:1056D0007FAE95E6904992480A780424C6E6914B3D
:1056E0001B68082B04D1904B1B68002B3FF470AE55
:1056F00005F0ACFC6DE61025FBE606295CD0082918
:1057000049D000297FF413AF884D022228460AF0C1
:1057100031F9814B1B78980703D52B7843F00203AE
:105720002B700DF1150002228049FFF7C7FD0546D9
:10573000062D7FF400AFFAE6784940F25D3001F0C3
:1057400015FD9DF8152037E70E25D2E60825D0E691
:10575000052A01D02A07F9D1284605F0DDFB734957
:10576000022208800DF11500FFF7A8FD0546E2E6CC
:1057700005F00F03072BA1D8BDF8171000299DD104
:10578000052A01D0002BE1D1284605F0EDFB284683
:1057900005F0C6FFD1E65F4B1B78052B37D0042BF5
:1057A0007FF4C5AE614B1D700DF1150001225F49FC
:1057B000FFF784FD0546BBE79DF81830022B52D059
:1057C000032B3AD0012B7FF4B2AEBDF81B30002B77
:1057D0003FF4B3AE0DF1150012225549FFF76EFDEF
:1057E0000546A5E7BCF1000F6DD0BCF10A0F7FF4B0
:1057F00080AE052AAAD13046FEF7DCFE4B493A4678
:1058000008700DF11500FFF759FD054693E6474B6B
:105810001A70C9E70F256CE6FEF746FF2B78042BBC
:105820003FF48BAE3C4A3E481378042123F0020338
:1058300013702970FEF786FF7FE6BDF81B30002B42
:105840003FF47BAEBDF819109DF8170001F01EFB68
:10585000014600283FF46BAE0DF115000A78FFF702
:105860002DFD054664E7BDF81B30002B3FF465AE07
:10587000092B28BF09230193FEF774FDDFF89CB0C4
:1058800006464FF0090AA946002E53D07368002B34
:1058900039D05B688BB30DF12008002748F8147DE0
:1058A00000E0013772680123556831460022404606
:1058B000A8470028F5D1337A326899441668BA446B
:1058C0005FFA89F9E0E7052A7FF440AF174B0DF145
:1058D000150019460222A3F800C0FFF7EFFC0546A9
:1058E00029E6FEF76DFE2B78052B3FF426AE052347
:1058F0000B482B70FEF726FF1FE6594640F2C720E3
:1059000001F034FCC7E7594640F2C62001F02EFCF6
:105910007368BEE71C0C0020380C0020F00C01005E
:10592000680C01003001001034010010480C002008
:105930008C0C01001E4E1F49019A304609F080FF71
:1059400086F80490A6F802A0FEF7F2FC18B1F379ED
:1059500043F02003F371FEF705FD174BBDF81B2044
:10596000019918600020C3E902125E6001F0D0FACC
:1059700012498020FEF7BEFD054630B1002001F03F
:10598000E1FA062D7FF4B5ADD1E505F073FB802873
:1059900004D0284601F0D6FA1025AAE5084B93E872
:1059A000030084E80300284601F0CCFAC5E500BFF7
:1059B000480C00206C0C0100200C00202C0D010074
:1059C000A00C010038B505460C4605F053FBA84273
:1059D00007D194E80300044A82E803000023184634
:1059E00038BD1023184638BD3C0C002008B14023B8
:1059F00003600148704700BF480C0020034B1B7830
:105A000043FA00F000F00100704700BF380C00209E
:105A10002DE9F0431D461B7885B006460F46144617
:105A20000E2B00F24581DFE813F01900A6001B01E0
:105A30000D0143012101BA00430143014301430128
:105A4000D400F10004010F0020466FF0020101F0C4
:105A500043FC0025284605B0BDE8F08394F82830C3
:105A6000002B00F0EA806B8840F2FF72934200F056
:105A7000278194F808C0D4F804E04FEA8C0CBEF1FA
:105A8000000F40F01A828D4A606994F82980A2FBC9
:105A90000C911844C9080231B0FBFCF90CFB190049
:105AA0008842C0F09582B8F1000F00F0C680617A9C
:105AB00060688900002840F00082A2FB010EA06906
:105AC00003EB000C4FEADE000230BCFBF1FE01FBF1
:105AD0001EC18142C0F07E82A07A616880000029E8
:105AE00040F0EB81E169A2FB00C21944D208023206
:105AF000B1FBF0FC00FB1C119142C0F06D82E07A1A
:105B000062688000002A40F0D881216AA2F1333215
:105B1000A2FB00C20B44D2080232B3FBF0F100FB3F
:105B200011339A4240F28980032194F8243023B142
:105B30006B886361002384F8243094F8253023B106
:105B40006B88A361002384F8253094F8263023B1B4
:105B50006B88E361002384F8263094F8273023B162
:105B60006B882362002384F827307B6930469B6969
:105B7000984705466EE76FF00801204601F0ACFB40
:105B800000254FF4006301222273C4E90533C4E900
:105B90000733A56084F8295084F828505AE795F90E
:105BA0000230002BC0F23B814B69DB68002B7FD0B9
:105BB000EB781BB98B690BB1022198473B695B6895
:105BC000402B00F281817B693046DB6898470546AF
:105BD00040E7FEF7DBFA054600287FF43BAF30468E
:105BE000FEF772FB054600287FF434AF4FF40063E4
:105BF000A06084F8290084F82800C4E90533C4E9CA
:105C000007332046012101F05BFB23E7FEF72CFB65
:105C1000054600287FF41EAF3046FEF76FFB0546B1
:105C200000287FF417AF20466FF0010101F054FB0C
:105C300010E72046022101F043FB0025284605B06D
:105C4000BDE8F08320466FF0040101F045FB7B695D
:105C500030469B6898470546284605B0BDE8F08366
:105C60002046042101F02CFB0025F3E6002900F07A
:105C7000D080002C00F02E816B78D9094FEA5312A6
:105C800040F0FE80012A13D1AB780A2B00F064812A
:105C90000B2B00F05381092B0AD12B79022B07D152
:105CA0007B695B6823B12946304698470546D1E6B3
:105CB0000625284605B0BDE8F08300BFCDCCCCCC8E
:105CC0006369207AB3F5006F4FEA800007D003F2D2
:105CD000FF73B3FBF0F200FB123301336361D4F8BE
:105CE00004C0BCF1000F40F0E880BC4B626994F83E
:105CF0002910A3FB00E302F2FF72DB080233B2FBC0
:105D0000F0FE00FB1E229A428846C0F074810029F2
:105D100093D0A369607AB3F5006F4FEA800007D093
:105D200003F2FF73B3FBF0F200FB12330133A36104
:105D30006368002B40F0C180A3F13333A269A3FB59
:105D400000C302F2FF72DB080233B2FBF0FC00FB7F
:105D50001C229A428846C0F0508100293FF46DAF62
:105D6000E369A07AB3F5006F4FEA800007D003F231
:105D7000FF73B3FBF0F200FB12330133E36163689E
:105D8000002B40F09A80A3F13333E269A3FB00C3F8
:105D900002F2FF72DB080233B2FBF0FC00FB1C22B4
:105DA0009A428846C0F02B8100293FF446AF236A0F
:105DB000E07AB3F5006F4FEA800007D003F2FF737B
:105DC000B3FBF0F200FB1233013323626368002B54
:105DD00073D1824B226AA3FB00C302F2FF72DB087D
:105DE0000233B2FBF0FC00FB1C229A42884638BF0B
:105DF0000321BFF422AFB8F1000F7FF496AE94F800
:105E00002430002B3FF4B1AE6B88636184F82480AA
:105E1000ABE6734940F27B1001F0A8F929E7EB7873
:105E20001BB98B690BB1032198476368002B44D1E0
:105E300094F82830002B3FF40AAF94F82930002B57
:105E400000F0D0806369B3F5006F04BF012384F8CC
:105E50002430A369B3F5006F04BF012384F8253013
:105E6000E369B3F5006F04BF012384F82630236A89
:105E7000B3F5006F7FF4E1AE012384F82730DCE650
:105E800012F003082CD0B8F1010F7FF411AFAB78FA
:105E9000022B00F09480032B00F08980012B7FF40B
:105EA00007AF2B79013B012B3FF602AF7B692946F7
:105EB0001B68304698470546CCE520466FF0080140
:105EC00001F00AFA0025C5E545494FF4F67001F0E6
:105ED0004DF978E642494FF4BE7001F047F9CBE640
:105EE00003F01F03012B7FF4E3AEAB78062B7FF4A6
:105EF000DFAE03A8CDF80880FFF778FD044602A8BE
:105F0000EA782979009023463046FDF7D7FD052829
:105F100005F1010975D17B69E9781B69304698471D
:105F20007B69E9785B6904464246304698472246D9
:105F300001464846FFF7C2F905468BE5B5F8031060
:105F4000003118BF01212173BB69002B3FF475AEEE
:105F50003046984700257DE5EB78287923444FF4B7
:105F600000611872EB7804EB830359612B79A3B9B4
:105F7000637A002B7FF461AEA37A002B7FF45DAED1
:105F8000E37A002B7FF459AE257A84F82930002D6E
:105F90007FF453AE84F828505CE584F82820EB7831
:105FA000002B3FF44AAE84F82920002552E5681CF6
:105FB000424604F10C01FFF781F905464AE5E9780C
:105FC0000831681C42462144FFF778F9054641E54F
:105FD000714610E70121A8E50221A6E5CDCCCCCC85
:105FE000340D01006369B3F5006F7FF426AE012321
:105FF00084F8243021E66146FDE60121FBE602211A
:10600000F9E6029B3F2B03D90549AC2001F0AEF81D
:1060100021464846029AFFF751F905461AE500BFA6
:10602000340D010010B5044608B1E06810BD034905
:1060300040F2692001F09AF8E06810BD340D0100CB
:1060400038B910B504468B6A0846022198472046A5
:1060500010BD0320704700BF2DE9F043DD4E0D4613
:10606000097A317083B00446002800F0C7802168A7
:1060700040F2F110814200F0A282B1F5F97F1CD309
:1060800040F20A20814200F0818139D8B1F5FA7FCF
:1060900000F0F58140F2BC80B1F5007F00F06A822B
:1060A00040F20120814200F0A98140F2FD108142BE
:1060B00000F065820020206065E1B1F5F47F00F01A
:1060C0008B8240F2898040F2EB10814200F0CF8158
:1060D000B1F5F67FC0F0D48040F2EF10814200F0BD
:1060E0005F82B1F5F87F80F06481B1F5F67FE1D190
:1060F000002A00F08183207901274FF0000C0BE18A
:10610000B1F5047F00F05D8140F2938040F21220EF
:10611000814200F03A82C0F0898140F2132081422E
:10612000C8D1AD4F3878002A00F0918394F804C0AC
:10613000964601218EF800C0DFF8ACC20130C0B233
:106140009CF800C03870844500F21583A34F38785E
:106150000130C0B238703778874240F22983092075
:106160008B42207140F26783481C002A00F0308384
:106170002779575483424FF00401217140F28A82FB
:1061800002EB000C471C8CF800109449287A09781F
:10619000884240F2B88101EB410005F10901DFF8C6
:1061A00040C211F800E084F804E00144BB42CCF89E
:1061B000001040F25582791C002A00F07D8220797F
:1061C000D0558B424FF00000207140F24482844F42
:1061D000D7F800C04F1C76E040F2E110814200F099
:1061E000E781B1F5F17F5BD2002900F01881B1F5AC
:1061F000F07F7FF45FAF01200021B6E7794940F2DC
:10620000D910CDE9002300F0B1FFDDE900232EE72E
:10621000B1F5F97F00F0EA8040F2F31081427FF49B
:1062200049AF002A00F0E48221794FF0010C0027E9
:106230009FE040F20B20814200F0458140F20F20A8
:1062400081427FF437AF01214FF00008002A00F0AF
:106250007882207902F808008B424FF00300207109
:1062600040F2F481074601F1010C40206345575488
:10627000207100F2988240F211232360012082E015
:1062800040F2E910814200F01781B1F5F57F7FF40B
:1062900011AF002A00F0A8822179012000272AE00E
:1062A00040F2E510814200F0BE8040F2E7108142EA
:1062B0007FF400AF4A49D1F800C0002A00F09A826A
:1062C0002079012700215054BB429CF801C084F87A
:1062D00004C040F2B681781C0321834202F807C053
:1062E000217140F2A981471C1154BB42297E2171C2
:1062F00040F29881781CD15583426F7E277140F21D
:106300008C8100F1010C002163451754217140F28A
:106310007F8108460CF101070921BB4202F80C00FD
:10632000217140F27081084607F1010C212163457B
:10633000D055217140F262810CF101071120BB425E
:1063400002F80C10207140F24F8107F1010C01217D
:106350006345D055217140F24C8108460CEB010792
:106360000021BB4202F80C00217140F2308107F19C
:10637000010CD1556345287D207100F203824FF452
:10638000FA732360012003B0BDE8F0834FF00108E9
:106390000021002A00F014822079505443454FF028
:1063A0000501217100F21B8240F20B2323600120C2
:1063B000E9E7002A00F02882217901274FF0000C3C
:1063C000BCE7002A00F0128227794FF0010C00216F
:1063D0004BE700BF8E0C00208F0C00208D0C00209E
:1063E000900C0020B00D01008C0C0020002A00F061
:1063F0000582207901274FF0000CB1E7002A00F058
:1064000022822079174601213870A54FDFF898C203
:1064100038789CF800C00130C0B238703EE0A14F1F
:106420000846397097E601210027C5E6002A00F0EA
:106430000C82207917464FF0010C0021634538701B
:10644000217140F2F480964F38788E460CF10108A5
:1064500002F80CE0E96A434511F800C084F804C072
:1064600000F2958140F21323236001208BE7002A7C
:1064700000F0CC8127794FF0010C002043E7002A7F
:1064800000F0E78120791746012138708648844F53
:1064900095F814C080F800C00020387084453AD8C0
:1064A000DFF80CC28148DCF800C09CF801C080F81D
:1064B00000C00020387046E6002A00F0A381217950
:1064C0000127002010E7002A00F0BA812179104648
:1064D0004FF00108017076487149D0F800900F78AC
:1064E000B9F1000F00F0988199F80110B9420FD965
:1064F00099F802104F444345795C217140F2B58010
:1065000008F10101A2E66A4A002313601B78FFDE4E
:1065100000231B78FFDE00B22F6957F820708B42F2
:106520003F7927714FEA800040F238814F1C1AB141
:1065300094F804C002F801C02969DFF878C109584D
:1065400008682071BB4280B2ACF8000040F2928033
:10655000791C000A002A00F0088194F804C002F8AF
:1065600007C099422071C0F0288140F201232360C6
:10657000012008E74F49002708880121E9E7484939
:106580000878012780000021D1E74FF001084FF083
:10659000000C434F3878002A71D094F804E057E794
:1065A000002A00F0358120794FF0010C0027BDE66C
:1065B000002A00F0F180217994460127E3E5002AC2
:1065C00000F01E8120794FF0010C0027BFE640F259
:1065D000F31323600120D6E6002A00F01B8194F813
:1065E00004C00120002777E640F2F1132360012068
:1065F000C9E64FF4F97323600120C4E64FF4F87341
:1066000023600120BFE640F2EF1323600120BAE6C9
:106610004FF4F67323600120B5E640F2EB132360DC
:106620000120B0E64FF4F57323600120ABE640F2A1
:10663000122323600120A6E640F2E9132360012023
:10664000A1E64FF4F473236001209CE64FF4047339
:106650002360012097E640F2E7132360012092E6D1
:1066600040F2E513236001208DE640F20F23236002
:10667000012088E64FF400732360012083E6E96A75
:10668000434511F800C084F804C07FF6EBAE08F172
:10669000010151E540F2E1132360012073E600BFE0
:1066A0008F0C00208D0C0020880C00208C0C00200A
:1066B000900C00208A0C00208B422271CBD96648B6
:1066C000D0F800C001319CF8010020718B42B8D98C
:1066D000013103208B422071AED90131287E207117
:1066E0008B429FD90131687E20718B4295D901314F
:1066F00000208B4220718BD9013109208B422071FF
:1067000081D9013121208B4220717FF677AF013191
:1067100011208B4220717FF667AF013101208B423F
:1067200020717FF666AF014400208B4220717FF616
:106730004EAF0131686920718B427FF620AE013186
:10674000A4E603208B42207180D9013140208B4286
:1067500020717FF690AD01F1010C00209C45207165
:10676000BFF465AF01F1020813E799422071BFF44D
:10677000FCAE013149E607208B42207156D901F168
:10678000010806E602EB0C070CF101017DE602EBC5
:10679000080E08F10101CDE40127F6E440F2FD13F3
:1067A00023600120EFE502EB0C070CF1010C44E63D
:1067B00040F2172323600120E5E55718013123E655
:1067C0000521434521717FF6EFAD08F1010882E60E
:1067D0000421834221717FF65DAF471CD5E402EBB3
:1067E000080008F1010875E601217CE70121ADE709
:1067F00001219FE7012166E701217EE7012193E75F
:1068000001218BE7012169E7012181E701216FE780
:10681000012177E701215CE7104940F24310CDE9FF
:10682000002300F0A3FCDDE900235DE640F20A232B
:1068300023600120A7E54FF4F07323600120A2E557
:106840004FF0010847E60121DFE5114683E701210A
:1068500072E401211AE600BF900C0020080E01002E
:1068600038B50D46044620B1236953F82530186821
:1068700038BD0449512000F079FC236953F82530D4
:10688000186838BDB00D010030B50D4683B0044620
:1068900030B1236953F825309868104403B030BDF7
:1068A00003490192512000F061FC019AF1E700BF19
:1068B000B00D010038B50C460546B0B12379012B67
:1068C0000BD0022B07D12B6A601CD3E90012BDE864
:1068D0003840FEF7F3BC062038BDEB69601CD3E9F5
:1068E0000012BDE83840FEF7E9BC0249512000F033
:1068F0003DFCE3E7B00D010030B5044685B0F8B1CA
:10690000257A9DB1A27A012A04F1090315D9E17A09
:10691000226A0B44116852680191587801A900233A
:10692000CDE90223FDF7D2FD05B030BD094940F2A3
:10693000431000F01BFC6B78FFDE00231B78FFDEAA
:106940000549512000F012FC02494FF4887000F014
:106950000DFCD5E7080E0100B00D010030B50D4665
:1069600087B0044650B314F1100F21D0236AE978A0
:106970001A681170D3E9002300250132013B284633
:10698000CDE90323059500F0C3FA284603A9FDF7D6
:106990009DFD054630B90C4B029401A90193FFF708
:1069A00011F80546002000F0CDFA284607B030BDAA
:1069B00006494FF4FE7000F0D9FBD7E70449512097
:1069C00000F0D4FBCFE700BF416000004C0E010097
:1069D000B00D010038B504460D4629B15CB12368FD
:1069E000A3B1DD61002038BD0C4940F22F2000F03A
:1069F000BDFB002CF3D10949512000F0B7FB07493A
:106A0000412000F0B3FB2368002BEAD10349422068
:106A100000F0ACFB2368DD61002038BDB00D010043
:106A200070B50D46044670B1236833B1DB699BB184
:106A300029462046BDE8704018470849422000F02A
:106A400095FB2368F2E70549512000F08FFB0349CD
:106A5000412000F08BFBE7E7062070BDB00D010080
:106A600070B50D46044690B131B304F110062268AA
:106A70003AB12B46314620460C32BDE87040FEF755
:106A8000C7BF1049422000F071FB2268F1E70D49B1
:106A900040F2971000F06AFB25B90A494FF4CC7018
:106AA00000F064FB0749512000F060FB05494120DC
:106AB000102600F05BFBDAE702494FF4CC7000F0DF
:106AC00055FBD2E7B00D01002DE9F041044684B03A
:106AD000002867D02568002D5ED0206B02F088FC6E
