:1010000000000420F112000019130000118A0000F2
:101010001D1300001F13000021130000000000003A
:10102000000000000000000000000000231300008A
:101030002513000000000000271300002913000002
:1010400049E20000C561010095E300002B13000098
:101050002B1300002B130000A5DB00002B13000056
:101060002B1300002B1300002B1300002B13000088
:101070002B1300002B1300002B1300002B13000078
:101080002B130000FD3C00002B1300002B1300006D
:10109000716801009D3D00002B1300002B13000020
:1010A0002B1300002B1300002B1300002B13000048
:1010B0002B1300002B1300000000000000000000B4
:1010C0002B1300002B1300002B1300002B13000028
:1010D0002B1300002B1300002B130000DDC30000B6
:1010E0002B1300002B130000E96702000000000032
:1010F000000000002B130000000000002B13000074
:1011000000000000000000000000000000000000DF
:1011100000000000000000000000000000000000CF
:1011200000000000000000000000000000000000BF
:1011300000000000000000000000000000000000AF
:10114000000000000000000000000000000000009F
:10115000000000000000000000000000000000008F
:10116000000000000000000000000000000000007F
:10117000000000000000000000000000000000006F
:10118000000000000000000000000000000000005F
:10119000000000000000000000000000000000004F
:1011A000000000000000000000000000000000003F
:1011B000000000000000000000000000000000002F
:1011C000000000000000000000000000000000001F
:1011D000000000000000000000000000000000000F
:1011E00000000000000000000000000000000000FF
:1011F00000000000000000000000000000000000EF
:101200000348044B834202D0034B03B11847704795
:101210005403002054030020000000000548064944
:10122000091A891001EBD171491002D0034B03B1A7
:1012300018477047540300205403002000000000AA
:1012400010B5064C237843B9FFF7DAFF044B13B10E
:101250000448AFF300800123237010BD4005002037
:10126000000000007866030008B5044B1BB1044978
:101270000448AFF30080BDE80840CFE7000000005D
:101280004405002078660300134B002B08BF114B68
:101290009D46A3F5803A00218B460F461148124A1D
:1012A000121A26F079F80D4B002B00D098470C4B02
:1012B000002B00D098470020002104000D000B48AF
:1012C00025F062FE25F094FE2000290010F03AFB84
:1012D00025F060FE0000080000000420000000006F
:1012E00000000000400500200C150120BD6F020029
:1012F0000649074A074B9B1A03DD043BC858D050E8
:10130000FBDC10F091FBFFF7BFFF000094690300C6
:101310000800002040050020FEE7FEE7FEE7FEE7AC
:10132000FEE7FEE7FEE7FEE7FEE7FEE7F0B595B075
:10133000002415460F4608461E4608F05BFD384659
:1013400023460895082205A91A9D09960D950A9429
:101350008DF82C400C9408F0C7FD9DF814308DF8E2
:101360001140DDE9061003F00302012ACDE9020174
:1013700027D0022A04D0384608F040FD15B0F0BD51
:10138000BDF81650C3F3C2038DF81030AD0908261E
:10139000082D2C4628BF0824334622460EA938467D
:1013A00008F0A2FD2D1B214608AB02AA0EA8264478
:1013B00002F012F8002DEBD1384608F01FFD15B0F1
:1013C000F0BDBDF81460059DC6F38316C3F3C204D7
:1013D000B2000EA9384608238DF81040C5F39525B4
:1013E00008F082FD08AB324628460EA9009302ABF6
:1013F00001F04CFF384608F001FD15B0F0BD00BF0C
:10140000014B01221A707047A0050020704700BFF1
:1014100000B583B0044B0093044A4023FFF786FFD6
:1014200003B05DF804FB00BF31140000600500202C
:1014300038B50F480F4D03780F4CEB5C0025D2B246
:10144000257053B90C300DF0DDFA58B90B4B1B78F1
:1014500013B12378002BFCD038BD04300DF008FE0A
:101460000028F3D0064A532102F0F4FAEEE700BF59
:1014700008000020E0120120A00500205C050020EB
:10148000C4A2020070B51448144A0378D35C88B033
:10149000EBB90C300DF00EFA114D0FCD6C460FC4A8
:1014A00095E80F0008AD062645F8206D84E80F008A
:1014B00029460022084809F057FA18B1094A432181
:1014C00002F0C8FA084B00221A7008B070BD043050
:1014D0000DF024FDE0E700BF08000020E01201202D
:1014E00098A20200C4A202005C05002070B50E4D57
:1014F0000FCD88B06C460FC495E80F0008AD0626E6
:1015000045F8206D84E80F002946084A084809F08C
:101510002BFA18B1074A432102F09CFA064B01222C
:101520001A7008B070BD00BF98A20200011400003C
:1015300008000020C4A202005C05002008B5FFF7E7
:10154000D5FF0421084801F097FC002803DB074B76
:1015500001225A7108BD0649482007F035FB034BAC
:1015600001225A7108BD00BF9C6803001C000020C6
:101570000CA30200064B8B6004284FF00003CB60E5
:101580004B609CBF034B53F820300B60704700BF8B
:1015900038A602005CA60200C368DB6800225A710C
:1015A000704700BFC368DB6801225A71704700BFF3
:1015B00030B40E4B0E4D0F4CED1A00222D09C1E92F
:1015C0000242C1E900220BD003EB0515DC68247947
:1015D000FF2C02D0904205D001321033AB42F5D13E
:1015E00030BC70479B680B6030BC70479C68030040
:1015F000BC68030070A602000129034604D081687C
:10160000D1F8941A890704D500221846114613F020
:10161000D5BA00B5D2E90031054A83B0CDE9002141
:10162000044A022111F02EFE03B05DF804FB00BF56
:1016300028A402001CA402008368D3F8943A9B07F4
:1016400033D42DE9F0471B4C1B4E361B360982B0B4
:1016500028D00746DFF868A0DFF86890DFF86880D8
:1016600004EB06160CE06D79CDF804C0002D0CBF1C
:1016700055464D460095103411F004FEA64211D097
:10168000D4E902E595F804C0BCF1FF0F7346424669
:101690004FF008013846E6D1084A103411F0F2FD47
:1016A000A642EDD102B0BDE8F0870022114613F04A
:1016B00085BA00BF9C680300BC68030054A4020004
:1016C00048A4020040A4020074A40200F0B5344C07
:1016D00085B004F5836007F069FB04F2144007F05D
:1016E00065FBD4E9013703EA0702D01C04EB800153
:1016F00014F8200010F0040042D003F1020C0E7820
:1017000006F00306012E654635D0022E02F10306CF
:1017100021D004EB86010028F1D104EB82020133D1
:10172000D26801923B4004EB830302F00302012ADA
:10173000DE682ED0022A25D1BDF806309B0903337E
:10174000360C05EB9305174807F03CFB00B16560CC
:10175000304605B0F0BD4B880CEB931307EA03024B
:10176000D11C03F1020C14F82100654604EB810141
:1017700000F00400CFE70B88C3F383136344EDE765
:101780009D1CCAE708494FF4BF7007F01DFA0026F8
:10179000D9E7BDF80430C3F38313360C1D44D2E7F8
:1017A00074060020880A00203CA502002DE9F041C3
:1017B0000F4C104D52F8046C2D1B2D0907460FD00D
:1017C00004EB051502E01034AC4209D0A1683046A4
:1017D00026F0BAFA0028F6D1E3685871BDE8F08126
:1017E00033463846044A0221BDE8F04111F04ABDB3
:1017F0009C680300BC68030004A402002DE9F041CA
:10180000104C114D52F8046C2D1B2D09074610D0B9
:1018100004EB051502E01034AC420AD0A168304652
:1018200026F092FA0028F6D1E36801225A71BDE849
:10183000F08133463846054A0221BDE8F04111F0F7
:1018400021BD00BF9C680300BC68030004A4020023
:1018500070B4104A104E114C921B0023D208C1E9FB
:1018600002434B600CD00E4D2C88A04204D10CE0FA
:1018700035F82340A04206D001339A42F8D1002225
:101880000A6070BC704706EBC30632680A6070BC21
:10189000704700BF9C6803002467030038A602005D
:1018A0007C0300202DE9F04FCB683E4EDFF82091FD
:1018B0005B79A6EB090685B08B46F6088046002BBF
:1018C0006BD0394A394B0821404611F0DBFC384ACD
:1018D0000821404611F0D6FC76B3364DDFF8F4A06F
:1018E000B70000240023EA5AA2423AD004339F42B0
:1018F000F9D15146002335F82320A24241D00133CB
:101900009E42F8D100208446D646002335F8232095
:10191000A24223D001339E42F8D1002384450ED841
:10192000254A0292CDE9001E0134244A082140468E
:1019300011F0A8FCA642D5D105B0BDE8F08F204A31
:101940000292CDE9001E01341C4A0821404611F0E4
:1019500099FCB442C6D105B0BDE8F08F59F83330D8
:10196000DCE7DBF80C2017491279595802EB4202E8
:10197000072393400B40D340DBB2134A52F82310A5
:10198000B8E709EBC30393F806C00F4B6046032882
:1019900028BF032053F820E0B7E70C4A022111F0DA
:1019A00071FC8EE79C680300A8A502009CA50200BC
:1019B000C8A502007C03002094A4020008A602002F
:1019C00020A602003804002048A6020088A50200D4
:1019D0002467030080A5020013460A46C168FFF78A
:1019E00061BF00BF2DE9F047124C134D52F8046C53
:1019F0002D1B2D09804615D01746894604EB051589
:101A000002E01034A5420DD0A168304626F09CF9C2
:101A10000028F6D13B464A4621464046BDE8F047FD
:101A2000FFF740BF33464046044A0221BDE8F04775
:101A300011F028BC9C680300BC68030004A40200E9
:101A40002DE9F04FCD4C002385B0C4F81834BFF316
:101A50004F8FD4E9015605EA0602D31C04EB83013B
:101A600014F8233058071AD527680B7803F00303BE
:101A7000012B3FD0022B03D14B88023505EB931588
:101A800006EA0502D4F81804D31C04EB830130B92C
:101A9000AF4240F2B08014F823305B07E5D404EB8A
:101AA00082026B1CD2680192334004EB830302F084
:101AB0000302DB680293022A05F1020800F0188194
:101AC000012A00F09C80D4F810543DB12B682846C0
:101AD0009B689847EB681D68002DF7D1A84B5B8881
:101AE000012B0DD8D4E90030C01A18BF012005B071
:101AF000BDE8F08F0B880235C3F383131D44BFE7A5
:101B00000020A568DFF894929E4F06F02FFFD4E9DD
:101B10000132D4F8008013440133A3EB0803A7EB90
:101B20000907012B4FEAD70700F24F81964E01219A
:101B3000304607F017F9FFF7C9FD0146304607F0B8
:101B400011F9D4E901322168134401335B1A012BE6
:101B5000EDD90A40033205230231002044F8223037
:101B6000216006F01DFF0021874807F0CDF880F3C3
:101B70001006864BBFB2A3EB0909B7EBD90F80F073
:101B8000178108F101032B4004EB830305EA0805E4
:101B9000033547EA0647DF6014F825307C49022206
:101BA00062F3C50304F8253034F825306FF3891348
:101BB00024F8253054F8252061F39F221346012193
:101BC00061F301036FF3820344F8252004F8253004
:101BD00094F82034002B85D0D4E90003834208D048
:101BE000FFF72EFF00283FF47DAFD4E900038342C6
:101BF000F6D1034678E7676005B0BDE8F08FBDF821
:101C000004706448C7F38313062B28BF0623991C6E
:101C100063F389178900ADF8047008F08FF8C7F3F3
:101C2000C207814600283FF44EAF08F0E3F80023D6
:101C3000082201A9484608F003F9BDF8043013F45E
:101C4000707F00F0CF806FF0010BABEB050B082528
:101C500006EA080103312B46042204EB81014846C1
:101C600008F0EEF8BDF8043008F1010A0BEB0A02A7
:101C7000C3F383139342D04605F10405E8D8D4F8A2
:101C80001834002B40F08E80D4F81054FDB1DFF8EA
:101C900010810726EB685A79B2B11A79BDF80800AD
:101CA00002EB420158F8200006FA01F2052F02EA81
:101CB000000208BF0327CA40BA4205D32B68494631
:101CC0001B6828469847EB681D68002DE2D14846FE
:101CD00008F094F8002006F049FED4F818340BB947
:101CE000C4F804A0002006F05BFED4E90030FBE657
:101CF000BDF8063027489DF804704FEA931A554600
:101D0000502D28BF502565F38F1305F10801ADF85C
:101D1000063008F013F8C7F3C207814600283FF4E5
:101D2000D2AE26EA080B0BF1010B08F063F84FEA7C
:101D30008B0B0023082201A9484608F081F85D4575
:101D400045D9EBB2BBF1000F38D006EA0801A3EB8E
:101D50000B03033104EB8101DDB25A4608234846E8
:101D600008F06EF82A460BF108030B49484608F0C4
:101D700067F80AF1030A08EB9A0A80E77406002064
:101D8000F00300200C680300900A00209C68030008
:101D900020A8020054690300800600202467030085
:101DA00038040020484608F029F8D4E900309BE6C2
:101DB0000D4940F2A31006F007FFE2E62A46082389
:101DC0000A49484608F03CF8D3E74146C1E606EA2E
:101DD0000801033104EB81012A460823484608F034
:101DE0002FF8C6E7C2464AE73CA50200800600205D
:101DF0002DE9F04F8E4B8F4C52F8049CA3EB040856
:101E00005FEA181885B0064611D017460D4604EB58
:101E1000081802E01034A04509D0A168484625F012
:101E200093FF0028F6D15DB905B0BDE8F08F824A76
:101E30004B463046022105B0BDE8F04F11F022BA02
:101E4000E3687E49386893F80490072226F014FA74
:101E5000002866D1012D00F0DE80DFF80C820446F8
:101E60000A2258F8041B786826F006FA58B10134A3
:101E7000052CF5D17B68724A3046022105B0BDE8D9
:101E8000F04F11F0FFB9E3B2022D019340F0BF8093
:101E90006C4C6D4BA3EB04085FEAD8082746C3D00F
:101EA00009EB490307229A400292019ADFF8A4A1A4
:101EB0000194DFF8A4914FEA880802FA03FB002599
:101EC000144609E0019B53F8153011F0DBF9043595
:101ED000A84507F10807A7D0BB79A3424A464FF0AF
:101EE00002013046EED355F80A20029982EA0B032C
:101EF0000B405340C3F3C202C3F382118A4238BF7E
:101F00000A4603F007018A4238BF0A464F4945F89E
:101F10000A30C3F342206918824238BF02464A8021
:101F2000D5E708224A49386826F0A6F900287AD170
:101F3000012D0190ACD0012303F18043013B09EB5B
:101F40004909A7F1040A07EB830707233D4C3E4AE2
:101F500003FA09F30293019BA2EB04084FEAD808A5
:101F600003FA09F3B3460AEB850A46460393A046F3
:101F700057F8044F002E43D0C146002504E0013538
:101F8000AE4209F108093AD02022214658F835001E
:101F900026F072F90028F2D1AE4230D099F806202E
:101FA000019B9A4223D32B4C039B54F82520029883
:101FB0002649534003405340C3F3C202C3F3821087
:101FC000824238BF024603F00700824238BF024611
:101FD000C3F3422001EB8501824238BF024644F838
:101FE00025304A80BA45C3D105B0BDE8F08FD9F895
:101FF0000030194A0221584611F044F9F2E73C68D2
:10200000164A23460221584611F03CF9EAE77FF6CA
:102010000BAF022390E7124A3046022105B0BDE81B
:10202000F04F11F02FB93B680E4A304625E700BF4C
:10203000BC6803009C68030004A402006CA30200B7
:10204000E4A30200246703009C6803007C030020D3
:102050008CA3020038040020ACA30200D0A302002D
:1020600074A3020094A3020048A602002DE9F047E1
:102070008368D3F8944AC4F3400488B0002C40F03D
:10208000908001AB054605AA43F2274141F26E005C
:1020900005940194CDE9064402940EF0A9FD03468F
:1020A000002800F085800A2873D1574B5B88012BEC
:1020B0006FD9DFF87CA1DFF87C81544F2046DAF835
:1020C000084006F053FCDAE90132DAF800901344D4
:1020D0000133A3EB0903A7EB0807012B4FEAD7074E
:1020E00000F290800AF21C460121304606F03AFECA
:1020F000FFF7ECFA0146304606F034FEDAE9013229
:10210000DAF80010134401335B1A012BECD90A40B2
:1021100003320523023100204AF82230CAF80010A9
:1021200006F03EFC00213A4806F0EEFD80F3100672
:10213000384BBFB2A3EB0808B7EBD80F5CD209F15C
:10214000010323400AEB830304EA0904033447EA4A
:102150000647DF601AF824302F49022262F3C503D4
:102160000AF824303AF824306FF389132AF824301F
:102170005AF8242061F39F221346012161F30103E1
:102180006FF382034AF824200AF824309AF82034A6
:102190006BBB2846214A022111F074F808B0BDE853
:1021A000F0870022114612F009FD08B0BDE8F08763
:1021B00003A905A8CDE903330EF0CCF90028E8D136
:1021C0001748184A0499121A24F0E8FF05A80EF0DF
:1021D00003FA0028DDD12846134A082111F052F8ED
:1021E00008B0BDE8F087FFF72BFC0028D1D0DAE972
:1021F00000329A42F7D1CCE70C4940F2A31006F026
:10220000E3FC9CE7494682E7F00300200C680300EA
:10221000900A00209C68030098A40200D8A4020041
:1022200038040020F4040020C0A402003CA50200F1
:10223000740600202467030001B970472DE9F04FB0
:10224000C368DB6885B08946174683467A491068BB
:102250001D79072226F010F800286ED1B9F1010F80
:1022600000F0DE80754E04460A2256F8041B78689A
:1022700026F002F858B10134052CF5D17B68704A7C
:102280005846022105B0BDE8F04F10F0FBBFE3B2A5
:10229000B9F1020F019340F0C0806A4C6A4F3F1BB6
:1022A000FF08264646D0019B029405EB45051A46D9
:1022B000AA404FF0070A0AFA05FADFF89891DFF80A
:1022C00098810192BF0000251C4609E0029B53F84B
:1022D0001530043510F0D6FFAF4206F1080629D0BC
:1022E000B379A34242464FF002015846EED355F867
:1022F0000920019B534003EA0A035340C3F3C2027F
:10230000C3F382118A4238BF0A4603F007018A42AA
:1023100038BF0A464D4945F80930C3F342206918D1
:10232000824205F1040538BF0246AF424A8006F1F9
:102330000806D5D105B0BDE8F08F082244493868B9
:1023400025F09AFF002873D1B9F1010F0190A4D0B4
:10235000012303F18043013B05EB45053A1F07EBE1
:1023600083070723AB40374C374E0293019B361B44
:10237000AB4002EB8909F6080393A04657F8044FD7
:10238000002E43D0C246002504E00135AE420AF1DA
:10239000080A3AD02022214658F8350025F06CFF73
:1023A0000028F2D1AE4230D09AF80620019B9A4222
:1023B00023D3284C039B54F82520029823495340EB
:1023C00003405340C3F3C202C3F38210824238BFBA
:1023D000024603F00700824238BF0246C3F34220A0
:1023E00001EB8501824238BF024644F825304A801D
:1023F000B945C3D105B0BDE8F08FDAF80030164A10
:102400000221584610F03EFFF2E73C68134A23468B
:102410000221584610F036FFEAE78BD9022398E7ED
:102420000F4A5846022105B0BDE8F04F10F02ABF10
:102430003B680C4A24E700BF6CA3020048A60200D8
:10244000E4A30200246703009C6803007C030020CF
:102450008CA3020038040020ACA30200D0A3020029
:1024600074A3020094A302002DE9F84F234B2448E3
:102470000022FF21C3F818249960C3E90022C3F8A1
:10248000142483F8202407F057FC814610B14846F5
:10249000BDE8F88FDFF87C801A4F1B48A7EB0807D0
:1024A00008F058F8FF08F2D0DFF860B04D4600267B
:1024B000344608EBC50AA5424FF0140208D058F87C
:1024C0003410DAF8000025F0D7FE0028C8BF013626
:1024D0000134A742EFD12BF825600135BD42E6D18A
:1024E0000A4B0B490BEB850500225A8004339D42B1
:1024F00041F8042BF9D14846BDE8F88F7406002056
:10250000546903009C6803002CA602007C03002091
:10251000380400202467030021B9124B03EBC000EC
:1025200000687047104A0F49521AD20815D030B4CB
:102530000E4D2B88834212D0002303E035F8234050
:10254000844205D001339A42F8D1002030BC704754
:1025500001EBC300006830BC704710467047084666
:10256000F8E700BF246703009C6803007C03002099
:10257000094B013903EBC00003290BD8DFE801F058
:1025800002080604022070474079704700797047BE
:1025900004207047002070472467030030B51D4BAE
:1025A00093F8203483B0044613BB18B325F0C8FD5C
:1025B00002AA013042F8080D012301A9164807F0CC
:1025C000D7FF0546B0B92146DDE9002024F0E6FD3D
:1025D000DDE900231344104803F8015C009908F07A
:1025E00019F880B900990C4808F02EF828B901981C
:1025F00003B030BD002003B030BD084940F20E20CA
:1026000006F0E2FAF3E7054940F20A2006F0DCFAA8
:10261000E8E700BF740600202CA602003CA50200DB
:102620002DE9F047DFF8FC90074600208846D9F8EE
:10263000084006F09BF9D9E90132D9F8006013444B
:1026400001339B1B012B62D809F21C45012128464E
:1026500006F088FBFFF73AF80146284606F082FBB1
:10266000D9E90132D9F80010134401335B1A012B68
:10267000ECD90A40033205230231002049F8223008
:10268000C9F8001006F08CF90021224806F03CFB46
:1026900080F3100A204B214A3D0C9B1AB5EBD30F57
:1026A0002FD2731C234009EB83033440033445EAE3
:1026B0000A45DD6019F8243067F3C50309F82430B2
:1026C00039F824306FF3891329F8243059F824207D
:1026D00068F39F221346012161F301036FF3820324
:1026E00049F8242009F8243099F820341BB906E071
:1026F000FFF7A6F918B1D9E900329A42F8D1BDE83E
:10270000F087074940F2A31006F05EFAC9E73146A8
:10271000AFE700BF900A00209C6803002467030015
:102720003CA50200740600202DE9F047DFF808A15F
:102730000746002091468846DAF8084006F016F968
:10274000DAE90132DAF80060134401339B1B022BF3
:1027500068D80AF21C450121284606F003FBFEF763
:10276000B5FF0146284606F0FDFADAE90132DAF84B
:102770000010134401335B1A022BECD90A400332D8
:102780000331452300204AF82230CAF8001006F031
:1027900007F9B31C23400AEB830300212248C3F846
:1027A0000C9006F0B1FA80F31009204B204A3D0C42
:1027B0009B1AB5EBD30F2FD2731C23400AEB830374
:1027C0003440033445EA0945DD601AF8243067F3E4
:1027D000C5030AF824303AF82430012161F3891343
:1027E0002AF824305AF8242068F39F22134661F314
:1027F00001036FF382034AF824200AF824309AF880
:1028000020341BB906E0FFF71BF918B1DAE90032F2
:102810009A42F8D1BDE8F087064940F2A31006F0CD
:10282000D3F9C9E73146A9E7900A00209C68030064
:10283000246703003CA50200740600202DE9F84F30
:10284000404C8046002093469A468946A56806F08B
:102850008DF8D4E90132276813440133DB1B032BC5
:102860006ED804F21C460121304606F07BFAFEF7D2
:102870002DFF0146304606F075FAD4E90132216891
:10288000134401335B1A032BEDD90A4003320431A0
:102890008523002044F82230216006F081F8BA1C1C
:1028A000FB1C2A402B4004EB820204EB8303002133
:1028B0002548C2F80CB0C3F80CA006F025FA80F346
:1028C000100A224B224A4FEA18469B1AB6EBD30F46
:1028D00030D27B1C2B4004EB83033D40033546EA9A
:1028E0000A46DE6014F8253068F3C50304F8253085
:1028F00034F82530022262F3891324F8253054F885
:10290000252069F39F221346012161F301036FF330
:10291000820344F8252004F8253094F820341BB9AC
:1029200006E0FFF78DF818B1D4E900329A42F8D1E9
:10293000BDE8F88F074940F2A31006F045F9C8E753
:102940003946A2E774060020900A00209C68030024
:10295000246703003CA502002DE9F84F434C804654
:10296000002093469A46A568894605F0FFFFD4E902
:102970000132276813440133DB1B042B74D804F2A3
:102980001C460121304606F0EDF9FEF79FFE014698
:10299000304606F0E7F9D4E90132216813440133E7
:1029A0005B1A042BEDD90A4003320531C523002000
:1029B00044F82230216005F0F3FFB91CFA1C2940CD
:1029C0003B1D2A4004EB810004EB82022B4004EB08
:1029D0008303C0F80CB00021C2F80CA024480A9A66
:1029E000DA6006F091F980F3100A224B224A4FEA8E
:1029F00018469B1AB6EBD30F30D27B1C2B4004EB4E
:102A000083033D40033546EA0A46DE6014F825306C
:102A100068F3C50304F8253034F82530032262F347
:102A2000891324F8253054F8252069F39F22134692
:102A3000012161F301036FF3820344F8252004F8B8
:102A4000253094F820341BB906E0FEF7F9FF18B1E1
:102A5000D4E900329A42F8D1BDE8F88F074940F234
:102A6000A31006F0B1F8C8E739469CE774060020C9
:102A7000900A00209C680300246703003CA5020024
:102A80002DE9F04F85B04B4C0E9EA5680296CDE91E
:102A900000238046994600200F9B039392468B4665
:102AA00005F064FFD4E90132276813440133DB1BCE
:102AB000052B7CD804F21C460121304606F052F961
:102AC000FEF704FE0146304606F04CF9D4E9013227
:102AD0002168134401335B1A052BEDD90A400332F8
:102AE000063140F20513002044F82230FE1C21601C
:102AF00005F056FFB91C3A1D29402E4004EB810118
:102B000004EB86067B1D2A4004EB82022B40C1F8B1
:102B10000CA004EB8303C6F80C900E9ED660002137
:102B20000F9A2548DA6006F0EFF880F31009234B7E
:102B3000234A4FEA18469B1AB6EBD30F31D27B1CBF
:102B40002B4004EB83033D40033546EA0946DE6033
:102B500014F8253068F3C50304F8253034F825301F
:102B6000042262F3891324F8253054F825206BF3EE
:102B70009F221346012161F301036FF3820344F89E
:102B8000252004F8253094F820341BB906E0FEF720
:102B900057FF18B1D4E900329A42F8D105B0BDE828
:102BA000F08F084940F2A31006F00EF8C7E7394647
:102BB00094E700BF74060020900A00209C68030080
:102BC000246703003CA502002DE9F04F87B0504C6C
:102BD000109EA5680396CDE901239946119B0493A5
:102BE0008046129B0593002092468B4605F0BEFE60
:102BF000D4E90132276813440133DB1B062B00F2B2
:102C0000848004F21C460121304606F0ABF8FEF742
:102C10005DFD0146304606F0A5F8D4E90132216891
:102C2000134401335B1A062BEDD90A4003320731F6
:102C300040F24513002044F82230216005F0B0FE38
:102C4000B91CF81C3A1D7B1D294028402A4004EB82
:102C500082022B4004EB810104EB8000BE1D04EBDB
:102C6000830C2E40109BC1F80CA004EB8606C0F824
:102C70000C90D360119BCCF80C300021129B25489E
:102C8000F36006F041F880F31009234B234A4FEA22
:102C900018469B1AB6EBD30F31D27B1C2B4004EBAA
:102CA00083033D40033546EA0946DE6014F82530CB
:102CB00068F3C50304F8253034F82530052262F3A3
:102CC000891324F8253054F825206BF39F221346EE
:102CD000012161F301036FF3820344F8252004F816
:102CE000253094F820341BB906E0FEF7A9FE18B190
:102CF000D4E900329A42F8D107B0BDE8F08F084914
:102D000040F2A31005F060FFC7E739468DE700BF2A
:102D100074060020900A00209C68030024670300CA
:102D20003CA502002DE9F04FDFF830B183B08246B8
:102D3000002002F1030891460191DBF8084005F0FC
:102D400015FEDBE90121DBF800700A444FEA980820
:102D50000132D21B08F10206964279D90BF21C45CA
:102D60000121284605F0FEFFFEF7B0FC014628468B
:102D700005F0F8FFDBE90121DBF800000A4401322D
:102D8000121A9642ECD8014003310622064468F339
:102D90009F5200204BF82120CBF8006005F000FE88
:102DA000DBF80850B81C204001352D1AAD00033067
:102DB000A9450BEB80003DD801994A4624F0EEF975
:102DC0000021244805F0A0FF80F310007A1C224067
:102DD0004FEA1A410BEB82023C40033441EA0040C7
:102DE000D0601BF824206AF3C5020BF824203BF8BE
:102DF00024206FF38F122BF824200BEB8402022087
:102E0000518869F38F1151801BF8242060F301026F
:102E10006FF382020BF824209BF820241AB906E0F5
:102E2000FEF70EFE18B1DBE900219142F8D103B0A4
:102E3000BDE8F08F019E2A46314624F0AFF93346B3
:102E40002B441946A9EB0502034824F0A7F9B7E77C
:102E5000384698E7900A002080060020740600207B
:102E6000044BD3E900239A4201D0FEF7E9BD0020CC
:102E7000704700BF740600202DE9F043344DD5F8AB
:102E80001044064600205CB1E3681A79824204D1FE
:102E900051E0DB681A7982424DD01B68002BF8D1D3
:102EA000F3681871D5F81034002B4BD0DA68F3684A
:102EB00012681A60D5F81034DB681E60254A264F68
:102EC000BF1AFF0835D0254D254C02EBC7094FF03E
:102ED000070CF768D37997F80480D5F800E08B42A7
:102EE00008EB480828BF0B4603FA08F383EA0E03F1
:102EF0000CFA08F803EA080383EA0E03C3F3C20ED0
:102F0000C3F38218C64538BFC64603F00708C64556
:102F100038BFC646C3F34228C64502F1080238BF8F
:102F2000C6469145A4F802E045F8043B04F10404C8
:102F3000CFD1BDE8F08301300A28A4D14FF0FF3093
:102F4000BDE8F083C5F81064F2681360B6E700BF0F
:102F500074060020246703009C68030038040020E6
:102F60007C03002038B5094BD3F81044012583F8C1
:102F700020544CB1E3685D71236820465B68984734
:102F8000E3681C68002CF5D138BD00BF7406002032
:102F90002DE9F047A14BA249A24C88B0C91A890873
:102FA00000250693079102AA6B4643F2274141F29E
:102FB0006E00CDE902550495CDE9005505940DF05C
:102FC00017FE0746002800F087800A2804D0032651
:102FD000304608B0BDE8F08702A805A90DF022FB35
:102FE000914B5B88022B0646F2D9904B904CDFF850
:102FF00058922846A3EB0908A56805F0B7FCD4E968
:103000000132D4F800A013440133A3EB0A03022BCE
:103010004FEAD80800F2FF8004F21C47012138462D
:1030200005F0A0FEFEF752FB0146384605F09AFE79
:10303000D4E901322168134401335B1A022BEDD924
:103040000A400332452344F8223003310020216036
:1030500005F0A6FC0AF102032B4004EB83030021D8
:103060007448DE6005F050FE80F31007724B1FFAC3
:1030700088F8A3EB0909B8EBD90F80F0C6800AF1F4
:1030800001032B4004EB830305EA0A05033548EAF4
:103090000747DF6014F825306848032262F3C50350
:1030A00004F8253034F82530012161F3891324F820
:1030B000253054F8252060F39F22134661F3010365
:1030C0006FF3820344F8252004F8253094F8203467
:1030D000002B40F08D807BE702A805A90DF0B6FB20
:1030E000514B5B88022B06467FF672AF4F4B504C1C
:1030F000DFF854A1A5683846A3EB0A0805F036FCB2
:10310000D4E90132D4F8009013440133A3EB09034E
:10311000022B4FEAD80876D804F21C470121384622
:1031200005F020FEFEF7D2FA0146384605F01AFEF9
:10313000D4E901322168134401335B1A022BEDD923
:103140000A400332452344F8223003310020216035
:1031500005F026FC09F102032B4004EB8303002158
:103160003448DE6005F0D0FD80F31007324B1FFAC3
:1031700088F8A3EB0A0AB8EBDA0F3ED209F1010393
:103180002B4004EB830305EA0905033548EA0747AA
:10319000DF6014F825302A48032262F3C50304F8DF
:1031A000253034F82530012161F3891324F82530C6
:1031B00054F8252060F39F22134661F301036FF357
:1031C000820344F8252004F8253094F820342BB9E4
:1031D000FEE6FEF735FC00283FF4FAAED4E90032F3
:1031E0009A42F6D1F4E6FEF72BFC00283FF4F0AE4D
:1031F000D4E900329A42F6D1EAE6124940F2A3102D
:1032000005F0E2FCBAE749469AE70E4940F2A310FE
:1032100005F0DAFC33E7514612E700BF380400201E
:10322000F40400206E102734F00300200C68030023
:1032300074060020900A00209C680300ECA702009E
:10324000B8A702003CA50200246703008268D2F8F8
:10325000942A930712D410B50446FFF799FE30B1B3
:103260002046084A0221BDE8104010F00BB8204665
:10327000054A0821BDE8104010F004B800221146AC
:1032800011F09CBC14A50200FCA402002DE9F0473B
:1032900084B01D460C9C002394F80C802373EB88AB
:1032A00081460E461746002B40D1297A05290ED0BB
:1032B0006B7AA88873BB404B53F821A00021FFF71D
:1032C0002BF9524603463D49204605F0A7FE062F3E
:1032D00009D8DFE807F0046A4249525D33004946E5
:1032E000204605F09BFE2B7A052B05D06B7A5BB947
:1032F0003349204605F092FE204605F07BFE84F817
:103300000C8004B0BDE8F0872E4A2F49204605F016
:1033100085FEEDE7FFF72CF92C4B2B4953F82020C5
:10332000204605F07BFE297AA888C4E7254A00924A
:103330002749284A204605F071FEB6E7D6E9041071
:10334000D6E900230390D6E902070291CDE90007F0
:103350004946204605F062FEC5E74946D6E9002306
:10336000204605F05BFEBEE7B168D6E900232046A3
:103370000091494605F052FEB5E7D6E90201D6E9CB
:103380000023019100904946204605F047FEAAE738
:10339000D6E90371B068D6E900230291CDE90007B0
:1033A0004946204605F03AFE9DE7326849462046E8
:1033B00005F034FE97E700BF14AB020008AB020033
:1033C00070A4020000AB020008430300A8AA020098
:1033D000E8AA0200E0AA0200082900D970472DE9F6
:1033E000F04F1D46904600232A7B2B7385B0B8F81A
:1033F0000630039207460E46002B7BD198F8081042
:10340000052911D098F80930B8F80400002B63D1D1
:103410003C4B53F821400021FFF77EF8224603463B
:103420003949284605F0FAFDDFF8FCB0DFF8FC90DA
:10343000002405E03A5D013405F0F0FD082C09D0C8
:10344000A64249462846F5D85946013405F0E6FD1E
:10345000082CF5D12D49DFF8D8B0DFF8D8902846F0
:1034600005F0DCFD00240CE017F804A0BAF17E0F93
:1034700023D92E2249462846013405F0CFFD082CD9
:1034800008D0A642F0D859462846013405F0C6FDBA
:10349000082CF6D198F80830052B02D098F809309E
:1034A000A3B91B49284605F0B9FD284605F0A2FD41
:1034B000039B2B7305B0BDE8F08F23F0EFFD504464
:1034C0005246437813F0970FD3D0D3E7114A1249ED
:1034D000284605F0A3FDE4E7FFF74AF80F4B0E4935
:1034E00053F82020284605F099FD98F80810B8F800
:1034F00004008DE7074A009209490A4A284605F068
:103500008DFD7BE714AB020008AB0200D8AA0200D5
:1035100070A4020000AB020008430300A8AA020046
:10352000E8AA0200E0AA0200D4AA0200CCAA020083
:10353000D4610300DCAA0200022810B5044603D9B6
:103540000E493A2005F040FB0D4B1C5D2F2C234605
:1035500004D81F2C07D84FF0A04207E009494FF4C8
:10356000F37005F031FB084A04F01F03D2F804059C
:10357000D840C04300F0010010BD00BF60AB0200A6
:10358000C0AB020090AB020000030050022810B54F
:10359000044603D90F49412005F016FB0E4B1C5D74
:1035A0002F2C224608D81F2C0BD84FF0A041012306
:1035B0009340C1F80C3510BD08494FF4F37005F085
:1035C00003FB04F01F02064901239340C1F80C35A8
:1035D00010BD00BF60AB0200C0AB020090AB0200A8
:1035E00000030050022810B5044603D90F494720B4
:1035F00005F0EAFA0E4B1C5D2F2C224608D81F2C32
:103600000BD84FF0A04101239340C1F8083510BDFD
:1036100008494FF4F37005F0D7FA04F01F02064989
:1036200001239340C1F8083510BD00BF60AB020014
:10363000C0AB020090AB0200000300504FF0A0436B
:103640004FF480004FF400014FF08072C3F808057A
:10365000C3F80815C3F80825704700BF4FF0A04312
:103660004FF480004FF400014FF08072C3F80C0556
:10367000C3F80C15C3F80C25704700BF022810B51D
:10368000044603D910495F2005F09EFA0F4B1C5DDC
:103690002F2C204604D81F2C07D84FF0A04107E05C
:1036A0000B494FF4F37005F08FFA0A4904F01F003C
:1036B000D1F804350122824022EA03001340C1F808
:1036C0000805C1F80C3510BD60AB0200C0AB0200AC
:1036D00090AB020000030050203818BF4FF0FF30BD
:1036E000704700BFC10706D4830742BF114B0C22AD
:1036F000C3F8002770474FF0A043032230B44FF0C7
:103700008071C3F858274FF48005C3F85C274FF445
:103710000004C3F860278207C3F80855C3F80845BA
:10372000C3F8081503D5034B0C22C3F8002730BC9F
:10373000704700BF00030050434B1978002900F088
:1037400081802DE9F04F002487B001258E4603E0EB
:103750000134E4B2744560D23C4B27B21E6816F8BF
:1037600037C0ACF1200205FA02F9394ACCF1200346
:10377000D2E9000125FA03F349EA030905FA0CF836
:1037800000EA080201EA0903134306EBC70BDFD086
:1037900021EA09032E4920EA08026046C1E9002314
:1037A0000AF0D8F916F837C0ACF1200205FA02F297
:1037B00001920199CCF12003C6B225FA03F3ACF1D2
:1037C0002002194306FA02F30393224B0191D3E935
:1037D0000023CDE9042305FA0CF30093CCF120017A
:1037E000039B26FA01F10B43039306FA0CF30293B1
:1037F000DDE90467DDE9002316401F4032463B4601
:10380000DDE90267BB4208BFB24209D00E4B01346A
:1038100093F800E0E4B274459ED307B0BDE8F08FA2
:103820009BF80110DBF80430A1F10101B1FA81F13C
:103830004909091AB1FA81F14909002BE6D060461D
:103840009847E3E7704700BFB00E0020E80E002065
:10385000E00E0020D80E00202DE9F84F064624483F
:1038600000F01AFDD8B9234F0123A6F1200103FA75
:1038700001FBC6F12002D7E9000123FA02F24BEA6C
:10388000020B03FA06FA00EA0A0201EA0B031343E9
:1038900007D020EA0A0421EA0B05C7E90045BDE884
:1038A000F88F30460AF056F9134ED6E90089C8B1B0
:1038B00048EA0A0349EA0B049846A146D7E90023DF
:1038C0004BEA03050D4B0A4819684AEA02044B46C5
:1038D0004246C6E90023C7E900450022BDE8F84F8B
:1038E00000F08CBC28EA0A0829EA0B09E6E700BFC9
:1038F000B80E0020E00E0020D80E0020B40E0020EC
:10390000042A36D92DE9F04182B00E460546144608
:1039100009F06AFF002836D01D491E4A1E4B0D6073
:103920001E481F491C60167000230022741EC0E947
:103930000023C1E90023E4B2EEB105EBC404194F42
:10394000083D4FF00008032601E0AC4213D0A378F5
:1039500020788DF806803A4601A98DF804608DF82C
:10396000053009F04BFF083C0028EED002B0BDE85E
:10397000F081072070470C4A0C48002100F02CFC15
:1039800002B0BDE8F08109F0E5FE0028C4D0EDE703
:10399000E80E0020B00E0020B40E0020D80E00204B
:1039A000E00E0020593800003937000000AC02005A
:1039B00070B50C4E33687BB10B4D2B7853B100249E
:1039C0003368012113F834000AF026F82B7801340B
:1039D000A342F5D8002070BD0449BA2005F0F4F8E0
:1039E000EAE700BFE80E0020B00E0020C4AB0200E2
:1039F00030B482B001248DF80740154B9DF8075074
:103A0000186044F20104A04259609A6014D044F254
:103A10000201884208D072B69DF80730002BFBD116
:103A200062B602B030BC7047DA60DA6812889A6118
:103A3000DA685268DA61EEE71A611A6992685A61C7
:103A40001A6912689A611A695268DA61E3E700BF7D
:103A5000EC0E002000B583B002900091019244F278
:103A6000010071466A4600F003F803B000BD00BFD4
:103A70002DE9F043044685B00E46154672B6FFF7B1
:103A800071FAFFF7EDF90028FBD12C4F44F2010247
:103A900094427B8821D044F2020294420ED0002B43
:103AA0003FD1274B1B68DB0700D500BE2A463146B5
:103AB000204605B0BDE8F043FFF79ABF002BF0D0D9
:103AC000204F21482B886A682049C01BC008000489
:103AD00040F00100FEF7B2FEE3E7002BE1D0D5F89D
:103AE0000890194B174A4846A3EB020806F0C0FDA0
:103AF0002B681749CDE901364FEAD8084FEA084844
:103B00006B68009348F0010803464A464046FFF7B9
:103B10005BF87B88002BC4D040460E49FEF780FD41
:103B2000BFE7084B08480C49C01AC008000440F021
:103B300001003246FEF7F8FDB3E700BFF0030020B6
:103B4000F0ED00E0246703000C68030004AC020001
:103B500020AC020048AC02005CAC0200F0B412F0F1
:103B6000030412D14B1CDB000A4D0B4E0B4F34707B
:103B70009BB213442B600A4E0A4D0B4B28803A60CF
:103B8000347019802046F0BC704707242046F0BCF2
:103B9000704700BF100F00200C0F0020140F0020F2
:103BA0001C0F0020180F00201A0F00202DE9F047ED
:103BB000294F3B888B4235D30546002016460C46DC
:103BC00004F0D4FE254B264A26481978137800883D
:103BD000DBB2834238BF0133C9B234BFDBB200234A
:103BE000994222D092F800801378DFF88090DBB2FF
:103BF000984286BF0133DBB200235FFA88F80020C9
:103C0000137004F0CDFED9F800300FFA88F24FEAB5
:103C1000C20A43F83260534405B164B90020988069
:103C2000BDE8F0870920BDE8F087002004F0B8FE69
:103C30000420BDE8F0870C4B38881B68294608FB38
:103C40000030224623F0AAFAD9F800309A44002026
:103C5000AAF80440E4E700BF180F00201C0F002062
:103C60000C0F00201A0F0020100F0020140F00204E
:103C70002DE9F84F1B4C1C4D22782B789A4226D008
:103C8000DFF86CA0DFF86C90184FDFF86CB04FF0E5
:103C900000082378DAF800203888D9F80060DBB211
:103CA0000FFA83FE02EBCE0103FB0060898852F815
:103CB0003E3098472378BBF80010DBB25A1C99427B
:103CC000D2B206D9227023782A789A42E1D1BDE88F
:103CD000F88F84F8008022782B789A42D9D1BDE8F9
:103CE000F88F00BF1C0F00200C0F0020180F0020C1
:103CF000140F0020100F00201A0F0020F8B5204AE2
:103D0000204B0024C2F84041C2F84441C2F8484167
:103D1000C2F84C41C2F80041C2F804411B6833B3F9
:103D20001949D2F804550A68AD1A1A6825F07F457A
:103D3000AA4227460DD8197CDE69AD1A144419B180
:103D40001F74D3E9052090471EB133461A68AA4272
:103D5000F1D90E490E4A0B7812789A4208D00D49D3
:103D60000D4A41F823404FF40013C2F80031F8BD6A
:103D7000531CDBB2022B08BF00230B70EFE700BF20
:103D800000100140D0100020CC100020C9100020ED
:103D9000C8100020C010002000E100E02DE9F04F25
:103DA0008C4A8D4913780978DFF85082994285B0A2
:103DB000D8F800A000F07B810133DBB2022B08BFF2
:103DC000002386481370864A076852F823107B1830
:103DD00023F07F4300240360534626462046A44632
:103DE000ABB11A688A4200F26581DC68C3F800C092
:103DF000891A1044DA6934B13D1825F07F45C3E9CA
:103E00000154DE611E4613460124002BE9D1002C2B
:103E100040F07C8101230093724B734FDFF8E091F7
:103E200043F00103019355464FF0000B46B3D6E92A
:103E300001C13446F669694B6C481A68ACEB020361
:103E400023F07F43834248D80B44236000220121A2
:103E5000C4E90122E2612174002D5DD02A689A42F2
:103E60004DD2284603E00A689A424FD20846C169FB
:103E70009B1A0029F7D12360E161C461002ED6D1DD
:103E800078783978884264D00B4603EB43034C1CA6
:103E9000BA7807EBC303E1B28A421A79397004BFDA
:103EA00000213970022A9C6844D0032A38D0012AA4
:103EB000E8D1227C002AE5D1D3F80CC0C4F804C0B4
:103EC0001969A1605869E06099F800009B69A361D5
:103ED0000028B0D062609446ADE7A2EB0C0222F05D
:103EE0007F428A4202D28B1A2360AFE7002301226D
:103EF000C4E90033A360E36122746DB12A68C8F895
:103F00000040D31A2B60E56125468FE7D21A0A607C
:103F10002360E161C461B1E7C8F80040254685E748
:103F2000002DAFD000232B74ED69002DFBD1C8F814
:103F30000050A5E74DB1AC422B4603D1E4E09442DA
:103F40002FD01346DA69002AF9D10023237488425E
:103F50009AD1BBF1000F01D1554553D0002D56D158
:103F6000234E244A1F4C4FF480334FF40031012775
:103F7000C2F880103C43C6F848334FF43C60C6F8A2
:103F800008337760A047154BB7604FF43C601D6065
:103F9000A047194B1D70002389F8003005B0BDE81B
:103FA000F08FA34200F09180E0692168D861002879
:103FB00000F086802A4603680B440360AA424FF053
:103FC00000033978787823741CBF15464FF0010B35
:103FD000BDE700BFC8100020C9100020CC10002091
:103FE000C010002080AC0200200F0020FEFF7F00E8
:103FF0000010014000E100E0BD100020D0100020C2
:10400000BC100020009B002BC5D0002DA8D0434B36
:10401000434A1C68D2F80465424FD5F800A03978AD
:10402000331B23F07F43DD1CB9B93F493F4B4FF4AD
:104030008030C2F844034FF00108C2F804034FF483
:104040000030C1F8800143F001030860C2F800802D
:104050004FF43C60984787F80080AA452CBF04EBDA
:104060000A0363192E4923F07F43C1F84035D1F884
:104070000425921B9B1B22F07F4223F07F430332D7
:104080009A4288D9294BD1F80425C1F8402543F03C
:1040900001034FF43C609847234B4FF40032C3F8C0
:1040A0000021002389F8003005B0BDE8F08F00261C
:1040B0000096B1E674BB521A1A6001230093ABE676
:1040C000002339787878237441E71946EA69C8F8FB
:1040D000002092B9CDE90231114BDFF840C0012038
:1040E0009860019B89F80000CCF800204FF43C60F8
:1040F0009847DDE90231D8F80020C8690968D8611D
:1041000000287FF458AF59E72946DFE7C8F80030A8
:104110009A467FE6C8F800309A46CCE7CC100020DB
:1041200000100140BD10002000E100E080AC020062
:104130002DE9F8431F4D204E204FDFF898804FF4B3
:1041400080334FF400324FF001090024C6F880207C
:1041500047EA0907C5F848334FF43C60C5F808330F
:10416000C5F80490B847C5F808904FF43C60C8F80B
:104170000040B847124A134B13491C601470134B8C
:10418000134A0C70112114701C8099704FF40012A6
:10419000C023C6F8802186F815333260C5F808457B
:1041A00086F81133D5F80435C8F800302046BDE84C
:1041B000F88300BF0010014000E100E080AC020085
:1041C000BD100020D0100020C8100020200F0020BB
:1041D000C9100020CC100020074B9B784BB132B1A6
:1041E00028B10368187C20B959745A6170470720B8
:1041F00070470820704700BF200F00202DE9F843CA
:10420000224CA378002B35D0002833D0042934D990
:1042100043697BB3437C0646012B4FF000000CBF83
:10422000884680461746894604F0A0FB6378A1784B
:1042300022785D1CEDB2A94208BF0025AA421FD01A
:1042400003EB430304EBC3030121114A9E60197180
:10425000D2F80425DA600020C3E904989F616570F4
:1042600004F09EFB0B4B4FF40012C3F8002100201A
:10427000BDE8F8830820BDE8F8830720BDE8F8838F
:10428000002004F08DFB0420F2E700BF200F002087
:104290000010014000E100E070B5174DAB7823B38A
:1042A00018B343690BB3002404740646204604F097
:1042B0005DFB6A78A8782978531CDBB2984208BF66
:1042C0002346994213D002EB420205EBC2020221BF
:1042D0009660204611716B7004F062FB074B4FF43F
:1042E0000012C3F80021204670BD082070BD204692
:1042F00004F056FB042070BD200F002000E100E018
:104300000378052B02D0094B1B681847084BD3F8DC
:104310008424D3F8803413F0FF0FF4D1054BD2B2CC
:10432000052A08BF1846014B1B681847D410002007
:1043300000700240C8AC020018B9084B08481B685E
:10434000184710B540F27B20064904F03DFC034BB2
:1043500003481B68BDE81040184700BFD410002078
:10436000CCAC020090AC02002DE9F04F87B006AF54
:1043700000260446894692469B4647F8106D00E0A9
:104380000136626801235568214600223846A84755
:104390000028F5D18DF80600049066B380460546E6
:1043A0000AE09DF806306768023B7F68B8479DF8D1
:1043B00006301D44AE421ED962680123576821466B
:1043C0000DF1060204A8B847626801235768214628
:1043D0000DF1070204A8B8479DF807304B454FF090
:1043E0000002214604A8DCD1C24508D008F101082A
:1043F0005FFA88F8D5E7052007B0BDE8F08F109A7E
:104400009DF8063013608BF800308BF801906168DE
:10441000023B4D680BF102022146A8470020EBE762
:104420002DE9F04F85B0054606F07AF9002800F036
:104430008C805E4807F0B2FA044618B1204605B0F9
:10444000BDE8F08F5A4A5B495B4B14700C60482200
:1044500021465A481C6022F09FFF214648225848B6
:1044600022F09AFF002D00F0868095E80700554B5A
:1044700083E80700002876D0002006F02DFA0028F7
:1044800069D1DFF848A14E4D9AF808300193002613
:104490001A46F3B29342DAF804B0484F0AF109041D
:1044A0003DD2002C3BD0617891B3A378E31818BFBC
:1044B0004FF0010914D12BE0B8F1080F21D805EB1A
:1044C000C803C3F800A0DBF800005860894509F173
:1044D0000103D8B21CD2A3784B44E31818D081460C
:1044E0001878030600F00F08E6D5B8F1080F05D9D3
:1044F00035494FF4CC7004F067FB617807EBC803D3
:10450000DFE731494FF4CF7004F05EFB6178D6E706
:104510000136019AF3B2934204F10304C1D30B2391
:104520008DF80C30BBF1000F39D0DBF8003073B3DD
:10453000264803A99847044600283FF47FAF07F0B8
:10454000D1FA204605B0BDE8F08F1F4940F2313066
:1045500004F03AFB6DE7852893D01B4A40F25F31A7
:10456000FFF778FA8DE71A4A1A60002006F0B4F9CE
:10457000002886D0EFE7134B154A5D6000201D72BE
:104580001A6006F0A9F900283FF47BAFE3E70E4973
:1045900040F2111004F018FBDBF80030C8E70A49BC
:1045A0004FF4887004F010FBBFE700BF0143000028
:1045B0007D1100207011002074110020E0100020F7
:1045C00028110020D410002090AC0200A0AD020001
:1045D0009D4E000007F09CBA08B507F0B9FB20B16A
:1045E000044940F2D13004F0EFFABDE8084008F089
:1045F000EFBC00BF90AC020010B507F09FFB88B184
:104600004FF0804303E0D3F83824D10709D5D3F81D
:1046100038249207F7D5064B06481B68BDE81040C2
:10462000184710BD04494FF4767004F0CDFAE7E75F
:10463000D4100020D0AC020090AC020000B583B0D2
:1046400002A8822300F8043D024B1B68984703B080
:104650005DF804FBD410002000B583B002A88323CA
:1046600000F8043D024B1B68984703B05DF804FB5B
:10467000D410002010B50C4B1B7882B073B1012010
:1046800002F032FF044630B102A8842300F8043D52
:10469000064B1B689847204602B010BD044940F203
:1046A000134004F091FAEAE77C110020D4100020B6
:1046B00090AC02002DE9F04F824685B0002800F052
:1046C000E680DAF80430002B00F0EB801B68002B4A
:1046D00000F0D780DAF800301B6823B17D4940F242
:1046E0006D5004F071FA07F029FB00283FD107F064
:1046F0001DFB00283BD000269AF80820DFF8DCB12B
:10470000DFF8D081744FF4B20AF1090394420193A7
:104710003FD2019B04EB44041C193BD0002507E069
:10472000B9F1080F29D80BEBC90301351B68D3B9C0
:104730006378EAB2934226D9A3781344DC4222D0AC
:10474000E25C02F00F091206EAD5B9F1080F04D9AC
:1047500041464FF4CC7004F037FA07EBC90301353A
:104760001B68002BE4D0112005B0BDE8F08F59493B
:1047700040F2715004F028FABDE741464FF4CF7083
:1047800004F022FACFE701369AF80820F4B29442F6
:10479000BFD300245FFA84F90AF1090391454F4D14
:1047A000DFF830814C4F019345D2019B09EB490959
:1047B00013EB09093FD099F80130BBB399F80230E7
:1047C00019EB030318BF4FF0010B18D12EE0082E90
:1047D00024D805EBC603C3F800A0DAF80420126859
:1047E0005A6099F801100BF101035945DAB21BD94F
:1047F00099F802305B4419EB030315D093461A78FD
:10480000130602F00F06E2D5082E04D941464FF4F4
:10481000CC7004F0D9F907EBC603DCE741464FF44E
:10482000CF7004F0D1F9D4E79AF8082001345FFA88
:1048300084F99145B9D32A4C236833B1254D9A4563
:1048400014D01C682368002BF9D1C4F800A0DAF852
:1048500004300B228DF80C20002B33D01B6843B39F
:10486000504603A9984705B0BDE8F08F294640F2AD
:10487000975004F0A9F923681C682368002BDED147
:10488000E3E7144940F26C5004F09EF922E7114925
:1048900040F26A5004F098F9DAF80430002B7FF403
:1048A00015AF0C4940F26B5004F08EF9DAF8043081
:1048B0000CE7084940F2111004F086F9DAF80430E8
:1048C0001B68CDE703494FF4887004F07DF9DAF8EE
:1048D0000430C3E790AC0200E01000202811002053
:1048E0007011002070B5054600284CD06B68002B75
:1048F00051D01B68002B57D007F020FA18BB07F0E7
:1049000015FA00B32B4C22683AB12B4EAA422ED096
:10491000146862680434002AF8D12B685B6823B1FC
:10492000254940F20E6004F04FF9244C22683AB158
:10493000214E95420DD0146862680434002AF8D1E3
:104940002560002070BD1C4940F2036004F03CF972
:10495000D8E7314640F2146004F036F923681C6849
:1049600062680434002AE4D12560002070BD31461D
:1049700040F2096004F028F923681C686268043476
:10498000002AC3D1C9E70C4940F2FF5004F01CF9DA
:104990006B68002BADD108494FF4C06004F014F9E6
:1049A0006B681B68002BA7D1034940F2016004F03B
:1049B0000BF9A1E77811002090AC020074110020DF
:1049C00010B5044608B307F0B9F980B907F0AEF99D
:1049D00068B1114A136843B19C4202D10EE0A34270
:1049E0000BD01A685368002BF9D1052010BD0B4974
:1049F00040F2216004F0E8F8EBE7043223685B68DA
:104A0000136023680020586010BD044940F21F6005
:104A100004F0DAF8D7E700BF7411002090AC020070
:104A200008B560B1094A13780133DBB2137023B9BA
:104A3000074940F2716004F0C7F8002008BD04493E
:104A400040F26E6004F0C0F8ECE700BF7C1100207B
:104A500090AC020010B560B1094C23782BB909491C
:104A600040F27B6004F0B0F82378013B2370002013
:104A700010BD044940F2796004F0A6F8ECE700BFED
:104A80007C11002090AC0200024B1878003018BF57
:104A9000012070477C11002000F00F03072B10B598
:104AA000044604D807F08CFB204607F045FF20465B
:104AB000BDE8104007F0ACBE08F05AB8014B1868CA
:104AC000704700BF7011002070B4114B1E68A6B172
:104AD000357A75B1737A834206F1090210D000234A
:104AE00003E012F8034F84420BD00133DBB29D4246
:104AF000F7D133681E68002EEAD1304670BC70478B
:104B000000230029F9D030460B7070BC704700BFFD
:104B10007011002070B515460446A0B16368D3B18A
:104B20001B6823B129462046BDE8704018470D494F
:104B300040F2111004F048F86368294620461B68CB
:104B4000BDE870401847074940F20F1004F03CF8E8
:104B50006368002BE4D103494FF4887004F034F803
:104B60006368DDE790AC020000F00F03082B14D857
:104B7000020670B54CBF114A114ADB0013441D6890
:104B80004DB16B680C4693B11B6843B12146284672
:104B9000BDE870401847102070BD102070470949CB
:104BA00040F2111004F010F86B681B68EEE705493D
:104BB0004FF4887004F008F86B68E5E7E010002017
:104BC0002811002090AC020070B5144B1C681CB377
:104BD0000546134E07E0294620469847062813D17C
:104BE00023681C68C4B163687BB11B68002BF2D1D9
:104BF000314640F2111003F0E7FF636829461B6855
:104C0000204698470628EBD070BD31464FF4887097
:104C100003F0DAFF6368E8E7062070BD701100203A
:104C200090AC020038B50D46044607F00BF918B1F8
:104C3000054B1B78022B01D0082038BD29462046A1
:104C4000BDE8384007F020B97D11002038B50D4689
:104C5000044607F0F7F818B1054B1B78022B01D07A
:104C6000082038BD29462046BDE8384007F0D6B9AF
:104C70007D110020F8B543689B6805460C46164632
:104C80001BB19847062800D0F8BD2B7AA34232D337
:104C9000002E37D12B7AA3421DD9093504EB4404E9
:104CA0002C4467782FB3354633463A460EE0A37856
:104CB0006219D65C06F00F03072B30460DD901357B
:104CC00007F0A6FDEBB29F4213D962789342EED370
:104CD00000231B78FFDE7378FFDE07F071FA3046A1
:104CE00007F02AFE0135304607F092FDEBB2BB42D9
:104CF000EBD30020F8BD044940F2F92003F064FF33
:104D0000002EC7D00720F8BD90AC020043681B6995
:104D100003B11847184670472DE9F84F364B1F6806
:104D2000002F5DD0DFF8D4B097F808A0BAF1000FDB
:104D300052D04FF000094C4607F109050DE020B1B3
:104D4000594640F26A7003F03FFF09F101095FFA2A
:104D500089F4A24505F103053ED97B689B682BB118
:104D600000222146384698470628E8D13B7AA342DC
:104D70003BD3A34236D995F80180B8F1000FE4D0B7
:104D80000024234642460EE0AB782A19D65C06F092
:104D90000F03072B30460BD9013407F039FDE3B27E
:104DA0004345D2D26A789342EED300231B78FFDECC
:104DB00007F006FA304607F0BFFD0134304607F031
:104DC00027FDE3B29845EDD809F101095FFA89F4AE
:104DD000A24505F10305C0D83B681F68002FA3D189
:104DE000BDE8F88F00235B78FFDE594640F2F920DA
:104DF00003F0EAFE3B7ABCE77011002090AC0200A1
:104E00002DE9F047234B1F68002F37D0DFF888A02B
:104E100097F80890B9F1000F2CD04FF000084446E5
:104E200007F109057B68DB6813B1214638469847CE
:104E30003B7AA34227D39C4222D26E7896B10024BB
:104E40002346324609E0AB782A190134D05C07F0DA
:104E50008FFEE3B29E4205D96A789342F3D30023D2
:104E60001B78FFDE08F101085FFA88F4A14505F11F
:104E70000305D7D83B681F68002FC9D1BDE8F0876C
:104E800000235B78FFDE51464FF4467003F09CFE32
:104E90003B7AD0E77011002090AC02002DE9F04180
:104EA000844D2B680446002B00F0048303F092FD30
:104EB000052840F28C802378852B00F2F482DFE80D
:104EC00013F04702E0018C006A02BD02B700BE0089
:104ED000F202E00005011E01F202F202F202F20209
:104EE0003701F202F202F202F202F202F202F202DE
:104EF000F202F202F202F202F202F202F202F20212
:104F0000F202F202F202F202F202F202F202F20201
:104F1000F202F202F202F202F202F202F202F202F1
:104F2000F202F202F202F202F202F202F202F202E1
:104F3000F202F202F202F202F202F202F202F202D1
:104F4000F202F202F202F202F202F202F202F202C1
:104F5000F202F202F202F202F202F202F202F202B1
:104F6000F202F202F202F202F202F202F202F202A1
:104F7000F202F202F202F202F202F202F202F20291
:104F8000F202F202F202F202F202F202F202F20281
:104F9000F202F202F202F202F202F202F202F20271
:104FA000F202F202F202F202F202F202F202F20261
:104FB000F202F202F202F202F202F202F202F20251
:104FC000F20250015E019C019F021702B7003A49AC
:104FD00040F22C4003F0F8FD6DE7384E3278931E16
:104FE000DBB2062B0BD83649CB5C13B105F04EFC77
:104FF0003278022A01D0082A01D106F0EDFE314BA9
:105000005B68032232700BB1022098472D687DB196
:10501000294E6B68002B00F06F831B6828462146E1
:10502000002B00F0B98298472B681D68002DF0D145
:10503000254B2146D3E90002BDE8F0411047A37893
:1050400003F00F051B0600F14082082D00F2948347
:105050001D4B03EBC5052B68002B00F09A836B6892
:10506000002B00F08F8328682146984700B3A07872
:1050700000F00F03013B062B1AD8BDE8F04107F002
:1050800055B8104B5B680BB1082098472D687DB16F
:10509000094E6B68002B00F03D831B6828462146B3
:1050A000002B00F0498298472B681D68002DF0D135
:1050B000BDE8F0817011002090AC02007D1100204D
:1050C00088AC0200D410002028110020974B5B68A8
:1050D0000BB1092098472D68002DE9D0944E6B68DC
:1050E000002B00F010831B6828462146002B00F09F
:1050F000638298472B681D68002DF0D1D8E78B4B51
:105100005B680BB10A2098472D68002DD0D0884EDF
:105110006B68002B00F0D4821B6828462146002BC8
:1051200000F0AE8298472B681D68002DF0D1BFE7D4
:105130007E4B5B680BB10F2098472D68002DB7D0D0
:105140007B4E6B68002B00F0EC821B6828462146E2
:10515000002B00F0018298472B681D68002DF0D1CC
:10516000A6E7744E3378062B00F0C481072B01D0DC
:10517000052B9DD106F03AFE0223337098E76E4B63
:105180006E49D3E9000290472C6884B1684E6B4D9C
:105190006368002B00F0A9821B6820462946002B7B
:1051A00000F05E82984723681C68002CF0D15F4CA9
:1051B00063680BB10D209847FFF722FE01F0E8FD70
:1051C0005F4B1B68002B00F090810120594E06F0C8
:1051D0006DFD3278931EDBB2062B0BD85949CB5CA0
:1051E00013B105F053FB3278022A00F0B682082A88
:1051F00000F0B382012333705AE74E4EFFF700FEF2
:1052000007F006FE3278931EDBB2062B0BD84D4911
:10521000CB5C13B105F03AFB3278022A01D0082AA0
:1052200001D106F0D9FD2C680023337084B1404FC2
:10523000454D6368002B00F07B821B6820462946A1
:10524000002B00F09981984723681C68002CF0D14E
:10525000394B3D49D3E900029047344B5B680BB1B1
:105260000E2098473378023BDBB2062B3FF620AF87
:10527000344AD35C002B3FF41BAFBDE8F04105F08E
:1052800005BB2C4EFFF7BCFD01F078FD3278931E74
:10529000DBB2062B00F214812A49CB5C002B00F014
:1052A0000F81022A03D0082A01D006F09FFD1F4B70
:1052B0005B68022232700BB1012098471E4B2146D9
:1052C000D3E9000290472D68002D3FF4F1AE184E4F
:1052D0006B68002B00F033821B6828462146002BA8
:1052E00000F07A8198472B681D68002DF0D1DFE629
:1052F000104E3378032B00F0028106F037FD0028B2
:105300003FF4D6AE3278931EDBB2062B40F24D82CC
:105310000E4805F079FA3278022A00F02A82082A2B
:1053200000F0278206233370C2E600BFD4100020AD
:1053300090AC02007D11002028110020D4AC0200A6
:105340007411002088AC0200D8AC020024000020B8
:10535000A94B1B78032B00F0EB80082B00F0E880B2
:10536000A64B5B680BB100209847A54B1D68002D2C
:105370003FF49EAEA34E6B68002B00F0E7811B68E4
:1053800028462146002B00F04B8198472B685D682A
:10539000002DF0D18CE6984E3378082B00F0A080D9
:1053A0009A1ED2B2062A40F2DE81974805F02CFA06
:1053B0003378022B00F0D481082B00F0D181052333
:1053C00033708E4B5B680BB1032098478F4B21469F
:1053D000D3E9000290472D68002D3FF469AE894E55
:1053E0006B68002B00F073811B6828462146002B58
:1053F00000F0568198472B681D68002DF0D157E6C4
:105400007D4E3378032B7FF453AE07F0DBFE00288C
:105410003FF44EAE3278931EDBB2062B0BD87C499C
:10542000CB5C13B105F032FA3278022A00F0C38166
:10543000082A00F0C0810423337039E66F4B5B68A3
:105440000BB103209847714B7249D3E90002904792
:105450002C6884B16B4E6F4D6368002B00F03E8169
:105460001B6820462946002B00F0EA8098472368F5
:105470001C68002CF0D1604E3378062B37D0082BF7
:105480000ED09A1ED2B2062A40F289815E4805F0FB
:10549000BBF93378022B03D0082B01D006F0A6FC11
:1054A0000223337004E6574940F22650BDE8F0412C
:1054B00003F08ABB534940F2254003F085FBF5E435
:1054C000514805F0A1F93278EBE6082D04D94D4991
:1054D0004FF4CC7003F078FB4F4B03EBC505BAE5F6
:1054E0000223337006F08CFC6BE7207A6EE607230C
:1054F0003370DDE506F07AFC08233370D8E507F059
:1055000061FE00283FF4F9AE3278931EDBB2062B21
:105510000BD83F49CB5C13B105F0B8F93278022AB9
:1055200000F04C81082A00F0498104233370E4E63E
:105530003A48FFF7B3FC13E7314640F2111003F08D
:1055400043FB6B6828461B68214698472B681D68FB
:10555000002D7FF49EADABE5314640F2111003F013
:1055600033FB6B6828461B68214698472B681D68EB
:10557000002D7FF4E6AD9BE5394640F2111003F0B3
:1055800023FB636820461B682946984723681C68EC
:10559000002C7FF44EAE5BE6314640F2111003F072
:1055A00013FB6B6828461B68214698472B681D68CB
:1055B000002D7FF42EAD3BE5314640F2111003F093
:1055C00003FB6B6828461B68214698472B681D68BB
:1055D000002D7FF484AD6BE5314640F2111003F0ED
:1055E000F3FA6B6828461B68214698472B681D68AC
:1055F000002D7FF46DAE5BE57D110020D4100020FE
:105600007411002090AC020024000020281100201A
:1056100088AC0200E0AC0200E0100020DCAC02002C
:10562000314640F2111003F0CFFA6B6828461B6830
:10563000214698472B685D68002D7FF49CAE37E5C6
:10564000314640F2111003F0BFFA636820461B6830
:105650002946984723681C68002C7FF4FDAE0AE7B2
:10566000314640F2111003F0AFFA636820461B6820
:105670002946984723681C68002C7FF489AD96E57D
:10568000314640F2111003F09FFA6B6828461B6800
:10569000214698472B681D68002D7FF439AD07E53A
:1056A000314640F2111003F08FFA6B6828461B68F0
:1056B000214698472B681D68002D7FF491AEF7E4D2
:1056C00031464FF4887003F07FFA6B6824E5314669
:1056D0004FF4887003F078FA6B6885E631464FF432
:1056E000887003F071FA6368BAE631464FF4887047
:1056F00003F06AFA63684FE531464FF4887003F0AF
:1057000063FA6B6889E431464FF4887003F05CFA01
:105710006B68E8E431464FF4887003F055FA6B6823
:10572000BBE431464FF4887003F04EFA6B680CE529
:1057300039464FF4887003F047FA63687DE53146D7
:105740004FF4887003F040FA6B68C5E531464FF4BA
:10575000887003F039FA6B6811E606F03DFB49E505
:1057600006F03AFB2BE617498A5C002A7FF421AE4B
:105770001BE606F031FBD5E513494FF4CF7003F07B
:1057800023FA65E4104940F2035003F01DFA6B68F8
:1057900069E40D4940F2025003F016FA5FE409494A
:1057A0008A5C002A7FF476AE70E60649CB5C002B5B
:1057B0007FF4B2ADACE506F00FFB3CE606F00CFB67
:1057C000B3E600BF88AC020090AC02004360CA6937
:1057D0009A4205D201F1280202608B6700207047CF
:1057E0008A6902600B67CB61002070472DE9F04F9A
:1057F000DFF8A8840F46097A88F8001083B01546B0
:105800001E460446002800F0C6812168B1F5517F8C
:1058100000F097832ED940F25633994200F010845D
:1058200000F2A380B1F5537F00F0F58340F22281AE
:1058300040F25133994200F0898400F2AF8240F285
:105840004F33994200F09583B1F5547F40F01483B3
:1058500001230022002D00F076852179A9549E4273
:105860004FF00202227100F2AB8540F25133236007
:1058700001208DE140F22633994200F0DE8328D8E2
:1058800040F21633994200F0638340F2328140F2D5
:105890001933994200F07F8300F2838140F217337D
:1058A000994200F00D84B1F5467F40F0E582002D6D
:1058B00000F0518621794FF00109002200234E4566
:1058C000A954237100F2848540F21933236001202A
:1058D0005EE140F23333994200F0A483B1F54D7F8D
:1058E000C0F08780B1F54F7F00F03E8440F2F08237
:1058F00040F24233994200F0B88200F25C8440F2F8
:105900004133994240F0B88201234FF00009002D45
:1059100000F0DB84227905F80920B3424FF024021D
:10592000227180F0A7841146581C00228642E95457
:10593000227140F28884411C10238E422A54237124
:1059400040F264841A46481C012386426A5423713B
:1059500040F252841A46C11805238E422A542371FC
:1059600040F240841A46481C9AE040F27233994251
:1059700000F05C8340F2EB8040F28333994200F008
:105980004583B1F5617FC0F0988240F28933994236
:1059900000F0678240F28E33994200F06282B1F5E6
:1059A000617F40F06982002D00F0EC8523792A4662
:1059B0004FF001091370B44B3A7D1B681B789A4273
:1059C00000F02E84BA7D9A4240F0478400234E4571
:1059D000237140F271854B4609F101090DB122791D
:1059E000EA54AA49AA4A0B7812780133DBB20B7049
:1059F00003E2B1F54B7F00F0ED8200F2128140F23C
:105A00002733994200F0AB82B1F54A7F40F03482EF
:105A10009D4B1A68002D00F0AF85237929464FF081
:105A2000010A0B7013783A7D9A4200F03284BA7DF5
:105A30009A4240F03C840A235645237140F2668521
:105A40000AF10103002D00F01785227905F80A20DC
:105A50000021B342217180F0898403F1010A002200
:105A60005645E954227100F2158540F23533236022
:105A700001208DE040F24933994200F0958300F215
:105A8000E08140F24533994200F05482B1F5527FF3
:105A900040F0F281002D00F05C8522790120002188
:105AA000242386426A54237140F28D831A46411C96
:105AB00001238E422A54237140F271831A46C8187A
:105AC000032386426A54237140F26483411C2B54A1
:105AD0008E42B87D207140F26A824A1C04239642AD
:105AE0006854237100F2688440F24F332360012030
:105AF0004EE040F21333994200F0F182B1F5457F58
:105B000080F02781002900F0C78240F212339942C9
:105B100040F0B281002D00F07A8423792B70012EA1
:105B20004FF00B03237140F2648403210222012011
:105B30002B549642387D207140F2638302238E42BB
:105B4000A854237140F253831A46481C0EE140F2D8
:105B50005933994200F0ED8200F2A28040F25733AF
:105B6000994200F0CC82B1F5567F40F085814FF02C
:105B700001090023002D00F031812279EA544E45BD
:105B8000BB7D237100F2298440F259332360012048
:105B900003B0BDE8F08F3F4940F20F3003F014F836
:105BA00033E6B1F5487F00F0CD8240F221339942CF
:105BB00040F06281002D00F0DC8423792A46012127
:105BC0001370354B3A7A1B789A4240F2928103EB7C
:105BD000430207F109032C4813F802C084F804C0FB
:105BE00013448E42036040F233834B1C002D00F0BF
:105BF000C78322796A549E424FF00002227140F21C
:105C00000A8321481146026803F1010AE954564506
:105C10005378237100F2E7834FF44A732360012025
:105C2000B6E740F22D33994200F0518240F22E3314
:105C3000994240F02181002D00F0978423792A4673
:105C40004FF0010A137000235645237140F2308152
:105C50000AF1010915B1237905F80A30DFF828A007
:105C6000397DDAF800301A78914200F04C81B97D24
:105C7000914200F0BC80074940F2623002F0A4FF7C
:105C8000DAF80030B3E000BF841100208111002059
:105C90007E11002004AD02007F1100208011002041
:105CA00040F26D33994200F0728140F26E339942B6
:105CB00040F0E280002D40F016844FF00109DFF83B
:105CC00008B3C04ADBF8003092F800A0002B00F0C7
:105CD000FD835A78524540F2E8809A449B78B1455A
:105CE0001AF80330237180F0208109F1010A15B1FF
:105CF000237905F80930DBF800303A7D1B789A42A9
:105D000000F0BD82BA7D9A4240F0CB820223B245B8
:105D1000237180F0EF8353460AF1010A0DB1227915
:105D2000EA5440235645237140F2E8800AF1010904
:105D3000002D00F08082237905F80A30B1454FF03C
:105D400000032371C0F090824FF46173236001203F
:105D50001EE700F0E28140F21533994240F08C805A
:105D6000002D00F0F18322790120002102238642D8
:105D70006A54237140F231821A46411C02238E423A
:105D80002A54237140F224824A1C6B549642797E35
:105D9000217140F2FA8102F101098FE540F252339C
:105DA000994200F0648140F25533994264D1002D4C
:105DB00040F09583012324229E42227140F25281B9
:105DC0005A1C06239642237140F247813B7D237182
:105DD000531CB34280F06A8102F10209BB7D23713A
:105DE0004E457FF6D1AE09F10109774B1B68774824
:105DF00074495A78027000230B7093423FD3744A5F
:105E000013780133DBB2137098F800209A4240F205
:105E10008B8109234E45237140F2C88209F10101AB
:105E2000002D00F0EC82237905F809308E424FF006
:105E30000403237100F2468340F2213323600120E2
:105E4000A6E640F24A33994200F0938140F24B3388
:105E5000994211D1002D00F06B832379012100209C
:105E600035E64FF001090023B8E5002D00F064830A
:105E700021790120002358E50020206088E60723CF
:105E80004E45237147D909F10102002D00F015821A
:105E9000237905F8093096424FF0050323713FD965
:105EA000A91802F101090B7009E700231B78FFDE36
:105EB0004FF44F73236001206AE640F27733994232
:105EC00002D0B1F55F7FD7D14FF0010A002325E75B
:105ED000B1F54D7F00F00B8140F235339942CBD1C3
:105EE000002D00F042832B4622791A704FF0010AF0
:105EF000A9E6354A002313601B78FFDE40F28333A6
:105F00002360012044E60523B145237180F04882D7
:105F100009F10103FBE440F26D332360012037E611
:105F200040F26E332360012032E640F27233236088
:105F300001202DE6002D00F0F482227901210020BD
:105F40000AE5002D00F0EF82227901200021FBE418
:105F5000002D00F0E1822279012100200EE71A4B8A
:105F60001A68002D00F0DB8221794FF0010A00232E
:105F70004CE6002D00F012832179284601222423CB
:105F800096420170237117D91946531C66E4012209
:105F90004FF0000979E7002D00F0FB8223792A46B3
:105FA0004FF0010913700A4A002313702CE74FF4D5
:105FB000537323600120EBE54FF4547323600120F9
:105FC000E6E500BF81110020841100207E11002031
:105FD0007F11002001234FF0000A002D00F06182A4
:105FE000227905F80A209E424FF00202227140F207
:105FF000C28103F1010AEA5456457B7E237100F207
:10600000358240F22E3323600120C1E54FF00109B3
:106010004FF0000A8CE6002D00F08C8220790122DE
:1060200000215BE501234FF0000A0BE5DFF874B5B2
:106030004FF0010A4FF0000959E601230021D5E590
:1060400001220023002D3FF4BCAE2179E954964291
:106050004FF00603237100F2B78140F257332360FB
:10606000012095E540F256332360012090E501239D
:106070000022002D00F073812179A9549E424FF037
:106080000502227117D9E81801332421B3420270A6
:106090002171E7D25A1CD9E708232371002E7FF41F
:1060A00039AD40F212332360012071E54FF456738D
:1060B000236001206CE540F255332360012067E541
:1060C000002D00F04D822379012200215DE6002D94
:1060D00000F03D8222794FF0010A00238BE7002D6A
:1060E00000F02382237902210122002020E5002DE7
:1060F00000F0348221794FF0010A0023AFE4002D33
:1061000000F03E8221792846012301703A7D2271F8
:106110009E42CBD903F1010930E5002D00F00E823B
:1061200020790121002209E540F299332360012002
:106130002EE5002D00F02A822A46237913704FF0B5
:10614000010952E601214FF0000969E6002D00F037
:10615000238221792846012202239642017023716D
:106160000ED91946531C88E74FF001094FF0000A79
:1061700070E5002D00F0E4812279012000219FE4E8
:1061800040F252332360012002E54FF4467323604E
:106190000120FDE440F24B3323600120F8E440F29B
:1061A0004A3323600120F3E4002D00F0DC812279E2
:1061B000012100207CE4002D00F0C481227901211E
:1061C0000020FFF7B9BB40F2493323600120DFE430
:1061D00040F2173323600120DAE440F216332360E3
:1061E0000120D5E44FF4527323600120D0E440F243
:1061F000153323600120CBE440F2453323600120B6
:10620000C6E44FF4457323600120C1E44FF4517399
:1062100023600120BCE440F2273323600120B7E46F
:106220003B6A4E451B7823713FF6D5AB40F289336C
:1062300023600120ACE4B1452571BFF485AD09F1BF
:106240000109FFF7B8BB40F24333236001209FE40C
:1062500040F22633236001209AE4D14940F2923083
:1062600002F0B2FCFFF7BDBB05EB090209F1010921
:10627000FFF7A0BB40F242332360012088E40323F0
:10628000B2452371FFF447AD40F27733236001201C
:106290007EE402235645237140F232810AF1010364
:1062A0009BE6BF494FF4607002F08EFC39E5BC49B3
:1062B00040F2393002F088FCC5E405239642237190
:1062C0007FF62EAE02F10109F9E42422B3422271D5
:1062D000D0D2013300229E422271B4D90133102260
:1062E0009E42227192D9013301229E42227183D9AA
:1062F000134405229E4222717FF674AF013324229B
:106300009E4222717FF65FAF013301229E422271CD
:106310007FF645AF134403229E4222717FF63AAFC7
:106320000133BA7D22719E427FF641AE01330422D1
:106330009E4222717FF6D8AB5A1C2421B2422171B1
:10634000BFF43AAE023302229E4222717FF68DAA3A
:106350005A1C0221B2422171BFF412AF0B44052234
:106360009E4222717FF6A7AE013324E54FF44D73B0
:10637000236001200CE440F22D332360012007E468
:106380009E4225717FF647AF864A126801335178E5
:1063900021719E427FF640AC03F1010AFFF742BB38
:1063A00040F2413323600120FFF7F2BB4FF4487302
:1063B00023600120FFF7ECBBA81819460132DEE587
:1063C0001146E8185A1CC7E61946A818531C9CE643
:1063D00005EB090209F10109E4E505EB090209F100
:1063E0000109137001E505EB0A010AF1010AFFF743
:1063F00018BB40F2133323600120FFF7C9BB04230D
:106400008E4223717FF618AD0131FFF7DABB0B2303
:10641000012E2371EDD903230222397D2171964289
:106420007FF6EFAE02229E4222717FF6E0AE03F1CC
:10643000010902234E4523717FF6CFAE09F1010910
:1064400002234E4523717FF6C3AE09F101097B7E1D
:1064500023714E457FF699AE09F1010900234E459F
:1064600023717FF631AA09F101099CE505EB0A02C7
:106470000AF1010AFFF7E6BBB3422571BFF476AF1C
:10648000013300229E4222717FF6EFAA03F1010A36
:10649000FFF7D9BB05EB0A030AF1010A1A70FFF7EF
:1064A000D2BB02229E4222717FF665AF01337A7E13
:1064B00022719E42EAD8A4E540F28E332360012087
:1064C000FFF766BB6A180131FFF77ABB36490193C3
:1064D00040F2431002F078FB019BFFF7FABB2279F0
:1064E00028460123D1E5294623790B704FF0010995
:1064F000FFF7E5BB4FF45F7323600120FFF748BB54
:106500004FF44B7323600120FFF742BB40F233335B
:1065100023600120FFF73CBB4FF0010990E7012306
:1065200035E70123E5E60123DEE60223012274E7D5
:106530000123F6E60123FAE60123CBE6012371E706
:106540000123E8E60123CAE64FF0010971E70123C0
:10655000ADE70123D3E64FF001097FE7012390E780
:106560004FF0010973E70123CFE64FF0010AFFF76F
:106570006ABB0121FFF725BB4FF0010AFFF752BAB2
:10658000002223E44FF00109FFF715BA4FF001098B
:106590002BE44FF0010906E52B46D9E60023CBE6B4
:1065A00004AD02008411002054AD02004360CA69AA
:1065B0009A4205D201F12802026000208B677047E1
:1065C0008A6910B40260C8698C690A6FC01A1C44D9
:1065D0001A44C86100308C6118BF01200A675DF859
:1065E000044B704788B910B50C46C9B1206870B12A
:1065F000037B202B07D100F10E010722183020F079
:10660000CDFD002010BD062010BD03207047602086
:10661000064902F0D9FA2068037B202BEBD0F2E781
:1066200002495F2002F0D0FAE0E700BF04AD0200AB
:106630002DE9F0430E4689B0054600287ED0002E95
:1066400000F0848033780E2B5AD8DFE803F054082A
:106650005454591E5E595908595454545400002D2D
:1066600000F083802B68002B00F088800024C3E9B1
:106670001E44C3E9204403F134021C845C62DC62E2
:106680005A67204609B0BDE8F083002D00F036813E
:106690007378D9094FEA531276D1012A30D13DB926
:1066A000B149522002F090FAAF495F2002F08CFA13
:1066B0002F6827B9AC49602002F086FA2F68B378BA
:1066C000202B00F0B380222B1AD1B6F80730BBB9CB
:1066D000B6F8033097F820203B8402F0010203F063
:1066E00001039A4207D0EA69002B00F0748112B1CD
:1066F0002846022190470024204609B0BDE8F083D7
:106700000624204609B0BDE8F083002D00F0F0809B
:106710002F7A1FB3AB7A05F10901EBB1EA7AB378AE
:106720008A5C9A42E7D01B06F47800F1CE80012CF7
:10673000E1D043D3032CDED00324A2E78A4940F200
:10674000DD2002F041FA002E7FF47CAF864940F252
:10675000DE2002F039FA75E71B78FFDE834940F24C
:10676000431002F031FA7B78FFDE7F49522002F0BD
:106770002BFA7D495F2002F027FA73E77A496020FF
:1067800002F022FA2B6871E712F0030274D0012A9A
:10679000B6D1002D00F050812B68002B00F0458110
:1067A000B378212BACD1B6F80720072AA8D12968E5
:1067B000701C183100F0F6FA044662E72E68002ECD
:1067C00000F00281012F06F10C0240F28980697B02
:1067D000012905F10C0340F297806548A97BCDE9BA
:1067E00005020B44B26A93F80180002A40F08F80C2
:1067F000F36FF46AB267C6E91F23002C00F0E28051
:1068000006F12C0393E8030006F1240383E8030058
:10681000F262404605A9FEF719FA0446EB69002B1F
:106820003FF42FAF2846002198472AE7B6F8072003
:10683000072A7FF465AF002F00F01E813B73B6F886
:1068400007300024DBB27B7320460E37CDE9057399
:10685000079402F08BF8204605A9FEF7E3F90446F9
:1068600030B9444B049503A9039300F021FE04467C
:10687000002002F095F804E703F01F03012B7FF4DA
:106880003FAFB478062C7FF43BAF05A8039200F02D
:1068900023FE0DF10C0C0746F2783179CDF800C0DB
:1068A00028463B46FDF760FD05283FF4EAAE039A13
:1068B0003F2A04D92C49C92002F086F9039A3946A7
:1068C000701C00F06FFA0446DBE6002C7FF432AF58
:1068D000EB69002B3FF40FAF284601219847D0E623
:1068E000224940F2431002F06FF900235B78FFDE8B
:1068F0001E494FF4887002F067F909E71A494FF40E
:10690000E47002F061F9C3E600231B78FFDED6F8DD
:106910008490706A4A4506F1340C28BF4A466146A5
:106920001446674620F03AFCF26FF16AA9EB0403C3
:1069300007EB040C22444FF00009C6E91DC3C6E969
:106940001F92002976D006F12C0797E8030006F184
:10695000240484E80300C6F82C90002B75D0B26A9A
:10696000934217D27AE000BF04AD020054AD02009A
:10697000AD650000E565000097E8030084E80300CA
:10698000B36FC6F82C90002B5FD0B26AD6F874C0F3
:106990009A4263D86146706A20F000FCD6E91D3245
:1069A000B16AC6F880100B44521AC6E91D32EB6971
:1069B00013B1002128469847F36A002BDCD173629B
:1069C00000242BE7746229E72F49602002F0FCF8CD
:1069D0002F7A2E68F6E612B10321284690472B7ACB
:1069E000012B7FF67DAF6B7B05F10C04002B3FF490
:1069F000B3AEAB7BE05C05F0D5FF2B7A012B7FF6C5
:106A00006FAF6B7B012B7FF67FAFAB7B1C44607855
:106A100005F0C8FF002407F134037C62FC62C7E97B
:106A20001E44C7E920447B672BE61749602002F02B
:106A3000CBF8B5E67162C3E71349522002F0C4F8FF
:106A400011495F2002F0C0F8A6E6736A002BB7D0A8
:106A5000404605A9FEF7FAF80446DFE61A46614605
:106A6000706A20F09BFBD6E90932B16FF167521AC8
:106A70000B44C6E90932E9E70349602002F0A4F8B3
:106A8000B3782F68DAE600BF04AD020070B50E4699
:106A900084B01546044600282CD0236823B31B8CF1
:106AA000DB0702D4082004B070BD237A012B13D970
:106AB000637B04F10C026BB1A37BD05CAA060CBF14
:106AC0000123002301A9CDE901650393FEF7AAF88C
:106AD00004B070BD1B78FFDE094940F2431002F09C
