:020000022000DC
:1060000000000420B5620200DD62020075DA0200C1
:10601000E1620200E3620200E562020000000000AB
:10602000000000000000000000000000E762020025
:10603000E962020000000000EB620200ED62020073
:10604000996603008DB30300E5670300EF62020069
:10605000EF620200EF620200F55F0300EF620200F0
:10606000EF620200EF620200EF620200EF620200E4
:10607000EF620200EF620200EF620200EF620200D4
:10608000EF620200618D0200EF620200EF62020027
:1060900039BA0300018E0200EF620200EF620200D3
:1060A000EF620200EF620200EF620200EF620200A4
:1060B000EF620200EF62020000000000000000003A
:1060C000EF620200EF620200EF620200EF62020084
:1060D000EF620200EF620200EF6202002D4803004F
:1060E000EF620200EF620200659B04000000000006
:1060F00000000000EF62020000000000EF620200FA
:10610000000000000000000000000000000000008F
:10611000000000000000000000000000000000007F
:10612000000000000000000000000000000000006F
:10613000000000000000000000000000000000005F
:10614000000000000000000000000000000000004F
:10615000000000000000000000000000000000003F
:10616000000000000000000000000000000000002F
:10617000000000000000000000000000000000001F
:10618000000000000000000000000000000000000F
:1061900000000000000000000000000000000000FF
:1061A00000000000000000000000000000000000EF
:1061B00000000000000000000000000000000000DF
:1061C00000000000000000000000000000000000CF
:1061D00000000000000000000000000000000000BF
:1061E00000000000000000000000000000000000AF
:1061F000000000000000000000000000000000009F
:1062000010B5054C237833B9044B13B10448AFF3F0
:1062100000800123237010BDE8270020000000004B
:106220001859050008B5034B1BB103490348AFF3E8
:10623000008008BD00000000EC2700201859050070
:10624000154B002B08BF134B9D46A3F5803A002148
:106250008B460F461348144A121A24F0E2F80F4BEB
:10626000002B00D098470E4B002B00D09847002001
:10627000002104000D000D48002802D00C48AFF3A7
:10628000008024F053F82000290013F001FE24F0D0
:1062900039F800BF000008000000042000000000E2
:1062A00000000000E8270020183501200000000051
:1062B000000000000649074A074B9B1A03DD043B18
:1062C000C858D050FBDC13F055FEFFF7B9FF0000B3
:1062D000F85B0500E0220020E8270020FEE7FEE74B
:1062E000FEE7FEE7FEE7FEE7FEE7FEE7FEE7FEE786
:1062F000F0B595B0002415460F4608461E460BF033
:10630000B9FF384623460895082205A91A9D099623
:106310000D950A948DF82C400C940CF025F89DF8FE
:1063200014308DF81140DDE9061003F00302012A54
:10633000CDE9020127D0022A04D038460BF09EFF97
:1063400015B0F0BDBDF81650C3F3C2038DF8103080
:10635000AD090826082D2C4628BF082433462246BE
:106360000EA938460CF000F82D1B214608AB02AAF6
:106370000EA8264402F012F8002DEBD138460BF09F
:106380007DFF15B0F0BDBDF81460059DC6F3831602
:10639000C3F3C204B2000EA9384608238DF810409A
:1063A000C5F395250BF0E0FF08AB324628460EA951
:1063B000009302AB01F04CFF38460BF05FFF15B0C5
:1063C000F0BD00BF014B01221A7070474828002021
:1063D000704700BF00B583B0044B0093044A4023CC
:1063E000FFF786FF03B05DF804FB00BFF563020012
:1063F0000828002038B50F480F4D03780F4CEB5C90
:106400000025D2B2257053B90C3010F023FD58B9D5
:106410000B4B1B7813B12378002BFCD038BD043014
:1064200011F04EF80028F3D0064A532102F044FB45
:10643000EEE700BFE0220020F033012048280020D2
:106440000428002034BD040070B51448144A0378B1
:10645000D35C88B0EBB90C3010F054FC114D0FCD6B
:106460006C460FC495E80F0008AD062645F8206D70
:1064700084E80F002946002208480CF09DFC18B162
:10648000094A432102F018FB084B00221A7008B099
:1064900070BD043010F06AFFE0E700BFE02200208A
:1064A000F033012008BD040034BD0400042800209E
:1064B00070B50E4D0FCD88B06C460FC495E80F0037
:1064C00008AD062645F8206D84E80F002946084AE5
:1064D00008480CF071FC18B1074A432102F0ECFAAD
:1064E000064B01221A7008B070BD00BF08BD040041
:1064F000C5630200E022002034BD0400042800200F
:1065000008B5FFF7D5FF0421084801F097FC0028E3
:1065100003DB074B01225A7108BD0649482007F0EA
:1065200085FB034B01225A7108BD00BF085B0500C3
:10653000F422002094BD0400064B8B6004284FF029
:106540000003CB604B609CBF034B53F820300B60C3
:10655000704700BFF0C0040014C10400C368DB68CA
:1065600000225A71704700BFC368DB6801225A716C
:10657000704700BF30B40E4B0E4D0F4CED1A002289
:106580002D09C1E90242C1E900220BD003EB051538
:10659000DC682479FF2C02D0904205D00132103300
:1065A000AB42F5D130BC70479B680B6030BC704784
:1065B000085B0500285B050028C10400012903468B
:1065C00004D08168D1F8941A890704D500221846AE
:1065D00011460AF0FBBC00B5D2E90031054A83B090
:1065E000CDE90021044A022109F05CF803B05DF80E
:1065F00004FB00BFC8BE0400BCBE04008368D3F81F
:10660000943A9B0733D42DE9F0471B4C1B4E361BA5
:10661000360982B028D00746DFF868A0DFF8689016
:10662000DFF8688004EB06160CE06D79CDF804C045
:10663000002D0CBF55464D460095103409F032F838
:10664000A64211D0D4E902E595F804C0BCF1FF0FD1
:10665000734642464FF008013846E6D1084A1034E6
:1066600009F020F8A642EDD102B0BDE8F087002283
:1066700011460AF0ABBC00BF085B0500285B0500B3
:10668000F4BE0400E8BE0400E0BE040014BF040031
:10669000F0B5344C85B004F5836007F0B9FB04F223
:1066A000144007F0B5FBD4E9013703EA0702D01C18
:1066B00004EB800114F8200010F0040042D003F134
:1066C000020C0E7806F00306012E654635D0022E28
:1066D00002F1030621D004EB86010028F1D104EB7E
:1066E00082020133D26801923B4004EB830302F043
:1066F0000302012ADE682ED0022A25D1BDF8063019
:106700009B090333360C05EB9305174807F08CFB08
:1067100000B16560304605B0F0BD4B880CEB9313BB
:1067200007EA0302D11C03F1020C14F821006546AC
:1067300004EB810100F00400CFE70B88C3F383135F
:106740006344EDE79D1CCAE708494FF4BF7007F0AA
:106750006DFA0026D9E7BDF80430C3F38313360C75
:106760001D44D2E71C290020302D0020DCBF04008E
:106770002DE9F0410F4C104D52F8046C2D1B2D09E2
:1067800007460FD004EB051502E01034AC4209D0E7
:10679000A168304624F0C1F80028F6D1E3685871AA
:1067A000BDE8F08133463846044A0221BDE8F04195
:1067B00008F078BF085B0500285B0500A4BE040054
:1067C0002DE9F041104C114D52F8046C2D1B2D0990
:1067D000074610D004EB051502E01034AC420AD095
:1067E000A168304624F099F80028F6D1E368012228
:1067F0005A71BDE8F08133463846054A0221BDE8AA
:10680000F04108F04FBF00BF085B0500285B0500A2
:10681000A4BE040070B4104A104E114C921B002309
:10682000D208C1E902434B600CD00E4D2C88A04227
:1068300004D10CE035F82340A04206D001339A423F
:10684000F8D100220A6070BC704706EBC3063268BC
:106850000A6070BC704700BF085B0500A8590500BE
:10686000F0C00400402600202DE9F04FCB683E4EDA
:10687000DFF820915B79A6EB090685B08B46F60818
:106880008046002B6BD0394A394B0821404608F02E
:1068900009FF384A0821404608F004FF76B3364D18
:1068A000DFF8F4A0B70000240023EA5AA2423AD04D
:1068B00004339F42F9D15146002335F82320A242E8
:1068C00041D001339E42F8D100208446D6460023B1
:1068D00035F82320A24223D001339E42F8D1002371
:1068E00084450ED8254A0292CDE9001E0134244A7F
:1068F0000821404608F0D6FEA642D5D105B0BDE835
:10690000F08F204A0292CDE9001E01341C4A082172
:10691000404608F0C7FEB442C6D105B0BDE8F08FCE
:1069200059F83330DCE7DBF80C2017491279595855
:1069300002EB4202072393400B40D340DBB2134AE1
:1069400052F82310B8E709EBC30393F806C00F4BC6
:106950006046032828BF032053F820E0B7E70C4A1D
:10696000022108F09FFE8EE7085B050060C004006E
:1069700054C0040080C004004026002034BF04003E
:10698000C0C00400D8C00400F026002000C10400EC
:1069900040C00400A859050038C0040013460A4648
:1069A000C168FFF761BF00BF2DE9F047124C134DDE
:1069B00052F8046C2D1B2D09804615D017468946C8
:1069C00004EB051502E01034A5420DD0A168304655
:1069D00023F0A3FF0028F6D13B464A462146404615
:1069E000BDE8F047FFF740BF33464046044A022166
:1069F000BDE8F04708F056BE085B0500285B0500BF
:106A0000A4BE04002DE9F04FCD4C002385B0C4F89E
:106A10001834BFF34F8FD4E9015605EA0602D31CA0
:106A200004EB830114F8233058071AD527680B7834
:106A300003F00303012B3FD0022B03D14B88023517
:106A400005EB931506EA0502D4F81804D31C04EBF1
:106A5000830130B9AF4240F2B08014F823305B07B5
:106A6000E5D404EB82026B1CD2680192334004EB44
:106A7000830302F00302DB680293022A05F1020895
:106A800000F01881012A00F09C80D4F810543DB128
:106A90002B6828469B689847EB681D68002DF7D146
:106AA000A84B5B88012B0DD8D4E90030C01A18BF61
:106AB000012005B0BDE8F08F0B880235C3F38313C6
:106AC0001D44BFE70020A568DFF894929E4F06F0B2
:106AD0007FFFD4E90132D4F8008013440133A3EBE3
:106AE0000803A7EB0907012B4FEAD70700F24F81F4
:106AF000964E0121304607F067F9FFF7C9FD0146C0
:106B0000304607F061F9D4E90132216813440133BA
:106B10005B1A012BEDD90A40033205230231002014
:106B200044F82230216006F06DFF0021874807F00D
:106B30001DF980F31006864BBFB2A3EB0909B7EB32
:106B4000D90F80F0178108F101032B4004EB830378
:106B500005EA0805033547EA0647DF6014F82530E3
:106B60007C49022262F3C50304F8253034F825304D
:106B70006FF3891324F8253054F8252061F39F2200
:106B80001346012161F301036FF3820344F82520CA
:106B900004F8253094F82034002B85D0D4E9000384
:106BA000834208D0FFF72EFF00283FF47DAFD4E9E1
:106BB00000038342F6D1034678E7676005B0BDE87D
:106BC000F08FBDF804706448C7F38313062B28BF09
:106BD0000623991C63F389178900ADF804700BF044
:106BE000EDFAC7F3C207814600283FF44EAF0BF021
:106BF00041FB0023082201A948460BF061FBBDF8C8
:106C0000043013F4707F00F0CF806FF0010BABEB1A
:106C1000050B082506EA080103312B46042204EB84
:106C2000810148460BF04CFBBDF8043008F1010A25
:106C30000BEB0A02C3F383139342D04605F104051C
:106C4000E8D8D4F81834002B40F08E80D4F81054D3
:106C5000FDB1DFF810810726EB685A79B2B11A79D5
:106C6000BDF8080002EB420158F8200006FA01F2D4
:106C7000052F02EA000208BF0327CA40BA4205D323
:106C80002B6849461B6828469847EB681D68002D0D
:106C9000E2D148460BF0F2FA002006F099FED4F853
:106CA00018340BB9C4F804A0002006F0ABFED4E9F8
:106CB0000030FBE6BDF8063027489DF804704FEA27
:106CC000931A5546502D28BF502565F38F1305F1B3
:106CD0000801ADF806300BF071FAC7F3C207814620
:106CE00000283FF4D2AE26EA080B0BF1010B0BF0A3
:106CF000C1FA4FEA8B0B0023082201A948460BF08A
:106D0000DFFA5D4545D9EBB2BBF1000F38D006EA9A
:106D10000801A3EB0B03033104EB8101DDB25A46FA
:106D2000082348460BF0CCFA2A460BF108030B491E
:106D300048460BF0C5FA0AF1030A08EB9A0A80E705
:106D40001C290020AC260020805A0500382D002088
:106D5000085B0500D8C20400B85B050028290020A4
:106D6000A8590500F026002048460BF087FAD4E920
:106D700000309BE60D4940F2A31006F057FFE2E613
:106D80002A4608230A4948460BF09AFAD3E74146B7
:106D9000C1E606EA0801033104EB81012A46082313
:106DA00048460BF08DFAC6E7C2464AE7DCBF04004E
:106DB000282900202DE9F04F8E4B8F4C52F8049C6F
:106DC000A3EB04085FEA181885B0064611D01746F1
:106DD0000D4604EB081802E01034A04509D0A16864
:106DE000484623F09AFD0028F6D15DB905B0BDE80C
:106DF000F08F824A4B463046022105B0BDE8F04F85
:106E000008F050BCE3687E49386893F80490072284
:106E100023F0C3FD002866D1012D00F0DE80DFF8ED
:106E20000C8204460A2258F8041B786823F0B5FD4A
:106E300058B10134052CF5D17B68724A30460221E5
:106E400005B0BDE8F04F08F02DBCE3B2022D019370
:106E500040F0BF806C4C6D4BA3EB04085FEAD80890
:106E60002746C3D009EB490307229A400292019AB0
:106E7000DFF8A4A10194DFF8A4914FEA880802FA90
:106E800003FB0025144609E0019B53F8153008F078
:106E900009FC0435A84507F10807A7D0BB79A34230
:106EA0004A464FF002013046EED355F80A200299C7
:106EB00082EA0B030B405340C3F3C202C3F38211B7
:106EC0008A4238BF0A4603F007018A4238BF0A46A1
:106ED0004F4945F80A30C3F342206918824238BF4F
:106EE00002464A80D5E708224A49386823F055FD12
:106EF00000287AD1012D0190ACD0012303F1804309
:106F0000013B09EB4909A7F1040A07EB83070723B3
:106F10003D4C3E4A03FA09F30293019BA2EB04089D
:106F20004FEAD80803FA09F3B3460AEB850A464646
:106F30000393A04657F8044F002E43D0C1460025C6
:106F400004E00135AE4209F108093AD02022214679
:106F500058F8350023F021FD0028F2D1AE4230D0A0
:106F600099F80620019B9A4223D32B4C039B54F89B
:106F7000252002982649534003405340C3F3C202E0
:106F8000C3F38210824238BF024603F007008242F8
:106F900038BF0246C3F3422001EB8501824238BF6D
:106FA000024644F825304A80BA45C3D105B0BDE851
:106FB000F08FD9F80030194A0221584608F072FBC8
:106FC000F2E73C68164A23460221584608F06AFB5D
:106FD000EAE77FF60BAF022390E7124A3046022120
:106FE00005B0BDE8F04F08F05DBB3B680E4A304687
:106FF00025E700BF285B0500085B0500A4BE040070
:107000000CBE040084BE0400A8590500085B0500FE
:10701000402600202CBE0400F02600204CBE0400B8
:1070200070BE040014BE040034BE040000C104009D
:107030002DE9F0478368D3F8944AC4F3400488B03C
:10704000002C40F0908001AB054605AA43F2274191
:1070500041F26E0005940194CDE90644029412F0C9
:107060006DF80346002800F085800A2873D1574B3D
:107070005B88012B6FD9DFF87CA1DFF87C81544F4E
:107080002046DAF8084006F0A3FCDAE90132DAF823
:10709000009013440133A3EB0903A7EB0807012B6E
:1070A0004FEAD70700F290800AF21C4601213046D1
:1070B00006F08AFEFFF7ECFA0146304606F084FE41
:1070C000DAE90132DAF80010134401335B1A012BBC
:1070D000ECD90A4003320523023100204AF822305D
:1070E000CAF8001006F08EFC00213A4806F03EFE79
:1070F00080F31006384BBFB2A3EB0808B7EBD80FEC
:107100005CD209F1010323400AEB830304EA09047A
:10711000033447EA0647DF601AF824302F49022279
:1071200062F3C5030AF824303AF824306FF3891368
:107130002AF824305AF8242061F39F2213460121B3
:1071400061F301036FF382034AF824200AF8243024
:107150009AF820346BBB2846214A022108F0A2FA93
:1071600008B0BDE8F0870022114609F02FFF08B0F3
:10717000BDE8F08703A905A8CDE9033311F024FC8D
:107180000028E8D11748184A0499121A23F025F963
:1071900005A811F05BFC0028DDD12846134A082120
:1071A00008F080FA08B0BDE8F087FFF72BFC002854
:1071B000D1D0DAE900329A42F7D1CCE70C4940F25B
:1071C000A31006F033FD9CE7494682E7AC26002079
:1071D000805A0500382D0020085B050038BF0400E8
:1071E00078BF0400F0260020A027002060BF040024
:1071F000DCBF04001C290020A859050001B9704714
:107200002DE9F04FC368DB6885B089461746834691
:107210007A4910681D79072223F0BFFB00286ED140
:10722000B9F1010F00F0DE80754E04460A2256F8CF
:10723000041B786823F0B1FB58B10134052CF5D15B
:107240007B68704A5846022105B0BDE8F04F08F04F
:1072500029BAE3B2B9F1020F019340F0C0806A4C41
:107260006A4F3F1BFF08264646D0019B029405EB60
:1072700045051A46AA404FF0070A0AFA05FADFF850
:107280009891DFF898810192BF0000251C4609E023
:10729000029B53F81530043508F004FAAF4206F1AA
:1072A000080629D0B379A34242464FF0020158465E
:1072B000EED355F80920019B534003EA0A035340DB
:1072C000C3F3C202C3F382118A4238BF0A4603F0F5
:1072D00007018A4238BF0A464D4945F80930C3F3D1
:1072E00042206918824205F1040538BF0246AF42C8
:1072F0004A8006F10806D5D105B0BDE8F08F082216
:107300004449386823F049FB002873D1B9F1010FD3
:107310000190A4D0012303F18043013B05EB450517
:107320003A1F07EB83070723AB40374C374E0293D6
:10733000019B361BAB4002EB8909F6080393A0467C
:1073400057F8044F002E43D0C246002504E0013513
:10735000AE420AF1080A3AD02022214658F83500F8
:1073600023F01BFB0028F2D1AE4230D09AF8062061
:10737000019B9A4223D3284C039B54F82520029862
:107380002349534003405340C3F3C202C3F3821066
:10739000824238BF024603F00700824238BF0246ED
:1073A000C3F3422001EB8501824238BF024644F814
:1073B00025304A80B945C3D105B0BDE8F08FDAF871
:1073C0000030164A0221584608F06CF9F2E73C6892
:1073D000134A23460221584608F064F9EAE78BD99C
:1073E000022398E70F4A5846022105B0BDE8F04F46
:1073F00008F058B93B680C4A24E700BF0CBE0400F3
:1074000000C1040084BE0400A8590500085B050003
:10741000402600202CBE0400F02600204CBE0400B4
:1074200070BE040014BE040034BE04002DE9F84F01
:10743000234B24480022FF21C3F818249960C3E994
:107440000022C3F8142483F820240AF0B5FE8146F4
:1074500010B14846BDE8F88FDFF87C801A4F1B4812
:10746000A7EB08070BF09EFAFF08F2D0DFF860B038
:107470004D460026344608EBC50AA5424FF01402DB
:1074800008D058F83410DAF8000023F086FA002803
:10749000C8BF01360134A742EFD12BF82560013572
:1074A000BD42E6D10A4B0B490BEB850500225A8001
:1074B00004339D4241F8042BF9D14846BDE8F88FCA
:1074C0001C290020B85B0500085B0500E4C004002F
:1074D00040260020F0260020A859050021B9124BB3
:1074E00003EBC00000687047104A0F49521AD208D7
:1074F00015D030B40E4D2B88834212D0002303E008
:1075000035F82340844205D001339A42F8D1002057
:1075100030BC704701EBC300006830BC70471046B8
:1075200070470846F8E700BFA8590500085B05004A
:1075300040260020094B013903EBC00003290BD87A
:10754000DFE801F002080604022070474079704726
:10755000007970470420704700207047A859050043
:1075600030B51D4B93F8203483B0044613BB18B3D9
:1075700023F0F7F902AA013042F8080D012301A90E
:1075800016480BF01DFA0546B0B92146DDE900208A
:1075900022F023FFDDE900231344104803F8015CC7
:1075A00000990BF05FFA80B900990C480BF074FA5F
:1075B00028B9019803B030BD002003B030BD0849A0
:1075C00040F20E2006F032FBF3E7054940F20A20B4
:1075D00006F02CFBE8E700BF1C290020E4C00400F3
:1075E000DCBF04002DE9F047DFF8FC9007460020DF
:1075F0008846D9F8084006F0EBF9D9E90132D9F804
:107600000060134401339B1B012B62D809F21C4517
:107610000121284606F0D8FBFFF73AF80146284634
:1076200006F0D2FBD9E90132D9F800101344013336
:107630005B1A012BECD90A400332052302310020EA
:1076400049F82230C9F8001006F0DCF90021224880
:1076500006F08CFB80F3100A204B214A3D0C9B1A4C
:10766000B5EBD30F2FD2731C234009EB83033440B7
:10767000033445EA0A45DD6019F8243067F3C50391
:1076800009F8243039F824306FF3891329F82430AD
:1076900059F8242068F39F221346012161F3010366
:1076A0006FF3820349F8242009F8243099F8203434
:1076B0001BB906E0FFF7A6F918B1D9E900329A42E2
:1076C000F8D1BDE8F087074940F2A31006F0AEFA02
:1076D000C9E73146AFE700BF382D0020085B050041
:1076E000A8590500DCBF04001C2900202DE9F04743
:1076F000DFF808A10746002091468846DAF80840DE
:1077000006F066F9DAE90132DAF800601344013371
:107710009B1B022B68D80AF21C450121284606F063
:1077200053FBFEF7B5FF0146284606F04DFBDAE9AC
:107730000132DAF80010134401335B1A022BECD942
:107740000A4003320331452300204AF82230CAF8A8
:10775000001006F057F9B31C23400AEB8303002105
:107760002248C3F80C9006F001FB80F31009204B6F
:10777000204A3D0C9B1AB5EBD30F2FD2731C23402C
:107780000AEB83033440033445EA0945DD601AF807
:10779000243067F3C5030AF824303AF82430012175
:1077A00061F389132AF824305AF8242068F39F22C1
:1077B000134661F301036FF382034AF824200AF8A9
:1077C00024309AF820341BB906E0FFF71BF918B1F2
:1077D000DAE900329A42F8D1BDE8F087064940F272
:1077E000A31006F023FAC9E73146A9E7382D002097
:1077F000085B0500A8590500DCBF04001C29002017
:107800002DE9F84F404C8046002093469A46894621
:10781000A56806F0DDF8D4E9013227681344013386
:10782000DB1B032B6ED804F21C460121304606F008
:10783000CBFAFEF72DFF0146304606F0C5FAD4E933
:1078400001322168134401335B1A032BEDD90A403E
:10785000033204318523002044F82230216006F0F1
:10786000D1F8BA1CFB1C2A402B4004EB820204EB2B
:10787000830300212548C2F80CB0C3F80CA006F021
:1078800075FA80F3100A224B224A4FEA18469B1AD7
:10789000B6EBD30F30D27B1C2B4004EB83033D406F
:1078A000033546EA0A46DE6014F8253068F3C5035E
:1078B00004F8253034F82530022262F3891324F8C5
:1078C000253054F8252069F39F221346012161F3E6
:1078D00001036FF3820344F8252004F8253094F85F
:1078E00020341BB906E0FFF78DF818B1D4E9003257
:1078F0009A42F8D1BDE8F88F074940F2A31006F08C
:1079000095F9C8E73946A2E71C290020382D002048
:10791000085B0500A8590500DCBF04002DE9F84FFD
:10792000434C8046002093469A46A568894606F057
:107930004FF8D4E90132276813440133DB1B042BD1
:1079400074D804F21C460121304606F03DFAFEF7D9
:107950009FFE0146304606F037FAD4E9013221682D
:10796000134401335B1A042BEDD90A40033205316D
:10797000C523002044F82230216006F043F8B91CEA
:10798000FA1C29403B1D2A4004EB810004EB8202D3
:107990002B4004EB8303C0F80CB00021C2F80CA00C
:1079A00024480A9ADA6006F0E1F980F3100A224BC3
:1079B000224A4FEA18469B1AB6EBD30F30D27B1CF3
:1079C0002B4004EB83033D40033546EA0A46DE6064
:1079D00014F8253068F3C50304F8253034F8253051
:1079E000032262F3891324F8253054F8252069F323
:1079F0009F221346012161F301036FF3820344F8D0
:107A0000252004F8253094F820341BB906E0FEF751
:107A1000F9FF18B1D4E900329A42F8D1BDE8F88FE5
:107A2000074940F2A31006F001F9C8E739469CE780
:107A30001C290020382D0020085B0500A8590500EE
:107A4000DCBF04002DE9F04F85B04B4C0E9EA568BD
:107A50000296CDE900238046994600200F9B0393B0
:107A600092468B4605F0B4FFD4E9013227681344EF
:107A70000133DB1B052B7CD804F21C460121304668
:107A800006F0A2F9FEF704FE0146304606F09CF926
:107A9000D4E901322168134401335B1A052BEDD977
:107AA0000A400332063140F20513002044F8223028
:107AB000FE1C216005F0A6FFB91C3A1D29402E408E
:107AC00004EB810104EB86067B1D2A4004EB820255
:107AD0002B40C1F80CA004EB8303C6F80C900E9E5B
:107AE000D66000210F9A2548DA6006F03FF980F34E
:107AF0001009234B234A4FEA18469B1AB6EBD30FC3
:107B000031D27B1C2B4004EB83033D40033546EA16
:107B10000946DE6014F8253068F3C50304F8253003
:107B200034F82530042262F3891324F8253054F800
:107B300025206BF39F221346012161F301036FF3AC
:107B4000820344F8252004F8253094F820341BB92A
:107B500006E0FEF757FF18B1D4E900329A42F8D197
:107B600005B0BDE8F08F084940F2A31006F05EF8BA
:107B7000C7E7394694E700BF1C290020382D0020B4
:107B8000085B0500A8590500DCBF04002DE9F04F93
:107B900087B0504C109EA5680396CDE90123994605
:107BA000119B04938046129B0593002092468B46BE
:107BB00005F00EFFD4E90132276813440133DB1BC3
:107BC000062B00F2848004F21C460121304606F0A8
:107BD000FBF8FEF75DFD0146304606F0F5F8D4E906
:107BE00001322168134401335B1A062BEDD90A4098
:107BF0000332073140F24513002044F8223021605F
:107C000005F000FFB91CF81C3A1D7B1D29402840D7
:107C10002A4004EB82022B4004EB810104EB80003C
:107C2000BE1D04EB830C2E40109BC1F80CA004EB8E
:107C30008606C0F80C90D360119BCCF80C30002164
:107C4000129B2548F36006F091F880F31009234B4E
:107C5000234A4FEA18469B1AB6EBD30F31D27B1C4E
:107C60002B4004EB83033D40033546EA0946DE60C2
:107C700014F8253068F3C50304F8253034F82530AE
:107C8000052262F3891324F8253054F825206BF37C
:107C90009F221346012161F301036FF3820344F82D
:107CA000252004F8253094F820341BB906E0FEF7AF
:107CB000A9FE18B1D4E900329A42F8D107B0BDE864
:107CC000F08F084940F2A31005F0B0FFC7E739462E
:107CD0008DE700BF1C290020382D0020085B05001F
:107CE000A8590500DCBF04002DE9F04FDFF830B1E2
:107CF00083B08246002002F1030891460191DBF82F
:107D0000084005F065FEDBE90121DBF800700A445C
:107D10004FEA98080132D21B08F10206964279D93F
:107D20000BF21C450121284606F04EF8FEF7B0FC88
:107D30000146284606F048F8DBE90121DBF800009F
:107D40000A440132121A9642ECD80140033106224D
:107D5000064468F39F5200204BF82120CBF80060C6
:107D600005F050FEDBF80850B81C204001352D1AF4
:107D7000AD000330A9450BEB80003DD801994A4680
:107D800022F02BFB0021244805F0F0FF80F31000C7
:107D90007A1C22404FEA1A410BEB82023C4003342A
:107DA00041EA0040D0601BF824206AF3C5020BF8BA
:107DB00024203BF824206FF38F122BF824200BEBA8
:107DC00084020220518869F38F1151801BF824200E
:107DD00060F301026FF382020BF824209BF8202449
:107DE0001AB906E0FEF70EFE18B1DBE90021914258
:107DF000F8D103B0BDE8F08F019E2A46314622F04B
:107E0000ECFA33462B441946A9EB0502034822F04D
:107E1000E4FAB7E7384698E7382D002028290020F3
:107E20001C290020044BD3E900239A4201D0FEF71D
:107E3000E9BD0020704700BF1C2900202DE9F04358
:107E4000344DD5F81044064600205CB1E3681A7939
:107E5000824204D151E0DB681A7982424DD01B681E
:107E6000002BF8D1F3681871D5F81034002B4BD0E3
:107E7000DA68F36812681A60D5F81034DB681E609F
:107E8000254A264FBF1AFF0835D0254D254C02EB59
:107E9000C7094FF0070CF768D37997F80480D5F835
:107EA00000E08B4208EB480828BF0B4603FA08F3B2
:107EB00083EA0E030CFA08F803EA080383EA0E03C8
:107EC000C3F3C20EC3F38218C64538BFC64603F0DB
:107ED0000708C64538BFC646C3F34228C64502F167
:107EE000080238BFC6469145A4F802E045F8043BB5
:107EF00004F10404CFD1BDE8F08301300A28A4D1F5
:107F00004FF0FF30BDE8F083C5F81064F2681360ED
:107F1000B6E700BF1C290020A8590500085B050032
:107F2000F02600204026002038B5094BD3F8104435
:107F3000012583F820544CB1E3685D712368204625
:107F40005B689847E3681C68002CF5D138BD00BF1A
:107F50001C2900202DE9F047A14BA249A24C88B072
:107F6000C91A890800250693079102AA6B4643F2B5
:107F7000274141F26E00CDE902550495CDE9005547
:107F8000059411F0DBF80746002800F087800A28E6
:107F900004D00326304608B0BDE8F08702A805A942
:107FA00010F07AFD914B5B88022B0646F2D9904B7C
:107FB000904CDFF858922846A3EB0908A56805F015
:107FC00007FDD4E90132D4F800A013440133A3EB38
:107FD0000A03022B4FEAD80800F2FF8004F21C4784
:107FE0000121384605F0F0FEFEF752FB0146384607
:107FF00005F0EAFED4E901322168134401335B1A2B
:10800000022BEDD90A400332452344F822300331D4
:108010000020216005F0F6FC0AF102032B4004EB7E
:10802000830300217448DE6005F0A0FE80F3100792
:10803000724B1FFA88F8A3EB0909B8EBD90F80F04F
:10804000C6800AF101032B4004EB830305EA0A050D
:10805000033548EA0747DF6014F8253068480322F3
:1080600062F3C50304F8253034F82530012161F3AB
:10807000891324F8253054F8252060F39F221346F5
:1080800061F301036FF3820344F8252004F82530DF
:1080900094F82034002B40F08D807BE702A805A9DE
:1080A00010F00EFE514B5B88022B06467FF672AF36
:1080B0004F4B504CDFF854A1A5683846A3EB0A0893
:1080C00005F086FCD4E90132D4F800901344013362
:1080D000A3EB0903022B4FEAD80876D804F21C4719
:1080E0000121384605F070FEFEF7D2FA0146384607
:1080F00005F06AFED4E901322168134401335B1AAA
:10810000022BEDD90A400332452344F822300331D3
:108110000020216005F076FC09F102032B4004EBFE
:10812000830300213448DE6005F020FE80F3100751
:10813000324B1FFA88F8A3EB0A0AB8EBDA0F3ED2EB
:1081400009F101032B4004EB830305EA090503351C
:1081500048EA0747DF6014F825302A48032262F313
:10816000C50304F8253034F82530012161F3891363
:1081700024F8253054F8252060F39F22134661F33C
:1081800001036FF3820344F8252004F8253094F8A6
:1081900020342BB9FEE6FEF735FC00283FF4FAAE9A
:1081A000D4E900329A42F6D1F4E6FEF72BFC00281F
:1081B0003FF4F0AED4E900329A42F6D1EAE6124931
:1081C00040F2A31005F032FDBAE749469AE70E499E
:1081D00040F2A31005F02AFD33E7514612E700BF35
:1081E000F0260020A02700206E102734AC260020A7
:1081F000805A05001C290020382D0020085B05004E
:10820000A4C2040070C20400DCBF0400A859050029
:108210008268D2F8942A930712D410B50446FFF767
:1082200099FE30B12046084A0221BDE8104007F00F
:1082300039BA2046054A0821BDE8104007F032BA95
:108240000022114608F0C2BEB4BF04009CBF040067
:108250002DE9F04784B01D460C9C002394F80C8057
:108260002373EB8881460E461746002B40D1297AAE
:1082700005290ED06B7AA88873BB404B53F821A018
:108280000021FFF72BF9524603463D49204609F0ED
:1082900005F9062F09D8DFE807F0046A4249525D64
:1082A00033004946204609F0F9F82B7A052B05D012
:1082B0006B7A5BB93349204609F0F0F8204609F0A3
:1082C000D9F884F80C8004B0BDE8F0872E4A2F4915
:1082D000204609F0E3F8EDE7FFF72CF92C4B2B498A
:1082E00053F82020204609F0D9F8297AA888C4E755
:1082F000254A00922749284A204609F0CFF8B6E7D8
:10830000D6E90410D6E900230390D6E902070291CA
:10831000CDE900074946204609F0C0F8C5E74946BF
:10832000D6E90023204609F0B9F8BEE7B168D6E9DE
:10833000002320460091494609F0B0F8B5E7D6E998
:108340000201D6E90023019100904946204609F038
:10835000A5F8AAE7D6E90371B068D6E9002302912F
:10836000CDE900074946204609F098F89DE73268B4
:108370004946204609F092F897E700BFCCC50400B3
:10838000C0C5040010BF0400B8C50400583605007D
:1083900060C50400A0C5040098C50400082900D9E0
:1083A00070472DE9F04F1D46904600232A7B2B7322
:1083B00085B0B8F80630039207460E46002B7BD1F5
:1083C00098F80810052911D098F80930B8F8040079
:1083D000002B63D13C4B53F821400021FFF77EF87E
:1083E000224603463949284609F058F8DFF8FCB020
:1083F000DFF8FC90002405E03A5D013409F04EF806
:10840000082C09D0A64249462846F5D859460134D9
:1084100009F044F8082CF5D12D49DFF8D8B0DFF881
:10842000D890284609F03AF800240CE017F804A088
:10843000BAF17E0F23D92E2249462846013409F08D
:108440002DF8082C08D0A642F0D859462846013409
:1084500009F024F8082CF6D198F80830052B02D042
:1084600098F80930A3B91B49284609F017F828469F
:1084700009F000F8039B2B7305B0BDE8F08F21F0E5
:108480007DFF50445246437813F0970FD3D0D3E783
:10849000114A1249284609F001F8E4E7FFF74AF8C3
:1084A0000F4B0E4953F82020284608F0F7FF98F8A4
:1084B0000810B8F804008DE7074A009209490A4AF3
:1084C000284608F0EBFF7BE7CCC50400C0C50400DC
:1084D00090C5040010BF0400B8C50400583605005C
:1084E00060C50400A0C5040098C504008CC5040044
:1084F00084C504008054050094C50400032810B509
:10850000044603D90E493A2005F090FB0D4B1C5D43
:108510002F2C234604D81F2C07D84FF0A04207E089
:1085200009494FF4F37005F081FB084A04F01F037A
:10853000D2F80405D840C04300F0010010BD00BFD0
:1085400018C60400A8C6040060C60400000300505A
:10855000032810B5044603D90F49412005F066FBF6
:108560000E4B1C5D2F2C224608D81F2C0BD84FF029
:10857000A04101239340C1F80C3510BD08494FF4C8
:10858000F37005F053FB04F01F02064901239340EA
:10859000C1F80C3510BD00BF18C60400A8C6040001
:1085A00060C6040000030050032810B5044603D938
:1085B0000F49472005F03AFB0E4B1C5D2F2C22463D
:1085C00008D81F2C0BD84FF0A04101239340C1F8CD
:1085D000083510BD08494FF4F37005F027FB04F08F
:1085E0001F02064901239340C1F8083510BD00BFA2
:1085F00018C60400A8C6040060C6040000030050AA
:1086000030B44FF0A043094940254FF480744FF433
:1086100000704FF48052C3F80855C3F80845C1F8FC
:108620000805C3F8082530BC704700BF00030050A0
:1086300030B44FF0A043094940254FF480744FF403
:1086400000704FF48052C3F80C55C3F80C45C1F8C4
:108650000C05C3F80C2530BC704700BF0003005068
:10866000032810B5044603D910495F2005F0DEFA4F
:108670000F4B1C5D2F2C204604D81F2C07D84FF021
:10868000A04107E00B494FF4F37005F0CFFA0A4917
:1086900004F01F00D1F804350122824022EA0300D1
:1086A0001340C1F80805C1F80C3510BD18C6040008
:1086B000A8C6040060C6040000030050263818BF96
:1086C0004FF0FF30704700BFC30706D4830742BF97
:1086D0002E4B0C22C3F81827704770B44FF080431C
:1086E000D3F84036D90722D44FF0A04327490322BC
:1086F000C3F818274026C3F820274FF48075C1F827
:1087000024274FF40074C3F830274FF48052C3F885
:108710000865C3F80855C1F80845C3F8082582075D
:1087200003D51A4B0C22C3F8182770BC70474FF0C2
:108730001023D3F8043303F00703072BD4D1144BD1
:108740000122C3F80425D3F80024002AFBD04FF0FF
:1087500010210020D1F804230D4C22F0070242F032
:108760000402C1F80423C3F80405D4F80034002B34
:10877000FBD0BFF34F8F0749074BCA6802F4E06292
:108780001343CB60BFF34F8F00BFFDE700030050E2
:1087900000E0014000ED00E00400FA05434B1978C9
:1087A000002900F081802DE9F04F002487B00125D9
:1087B0008E4603E00134E4B2744560D23C4B27B2EC
:1087C0001E6816F837C0ACF1200205FA02F9394AE2
:1087D000CCF12003D2E9000125FA03F349EA0309A9
:1087E00005FA0CF800EA080201EA0903134306EB54
:1087F000C70BDFD021EA09032E4920EA08026046B0
:10880000C1E900230DF0CEFB16F837C0ACF1200211
:1088100005FA02F201920199CCF12003C6B225FAC1
:1088200003F3ACF12002194306FA02F30393224B3F
:108830000191D3E90023CDE9042305FA0CF3009359
:10884000CCF12001039B26FA01F10B43039306FAB6
:108850000CF30293DDE90467DDE9002316401F40B5
:1088600032463B46DDE90267BB4208BFB24209D04F
:108870000E4B013493F800E0E4B274459ED307B088
:10888000BDE8F08F9BF80110DBF80430A1F1010185
:10889000B1FA81F14909091AB1FA81F14909002BAC
:1088A000E6D060469847E3E7704700BF58310020A4
:1088B0009031002088310020803100202DE9F84FD0
:1088C0000646244800F01AFDD8B9234F0123A6F12B
:1088D000200103FA01FBC6F12002D7E9000123FAC7
:1088E00002F24BEA020B03FA06FA00EA0A0201EA74
:1088F0000B03134307D020EA0A0421EA0B05C7E95A
:108900000045BDE8F88F30460DF04CFB134ED6E91C
:108910000089C8B148EA0A0349EA0B049846A1460F
:10892000D7E900234BEA03050D4B0A4819684AEAC8
:1089300002044B464246C6E90023C7E9004500222F
:10894000BDE8F84F00F08CBC28EA0A0829EA0B09B8
:10895000E6E700BF60310020883100208031002030
:108960005C310020042A36D92DE9F04182B00E4650
:10897000054614460DF060F9002836D01D491E4A00
:108980001E4B0D601E481F491C60167000230022FC
:10899000741EC0E90023C1E90023E4B2EEB105EB87
:1089A000C404194F083D4FF00008032601E0AC4213
:1089B00013D0A37820788DF806803A4601A98DF867
:1089C00004608DF805300DF041F9083C0028EED028
:1089D00002B0BDE8F081072070470C4A0C48002126
:1089E00000F02CFC02B0BDE8F0810DF0DBF80028AF
:1089F000C4D0EDE790310020583100205C310020D8
:108A00008031002088310020BD8802009D8702004F
:108A100004C7040070B50C4E33687BB10B4D2B7846
:108A200053B100243368012113F834000DF01CFA0F
:108A30002B780134A342F5D8002070BD0449BA2038
:108A400005F0F4F8EAE700BF90310020583100202B
:108A5000ACC6040030B482B001248DF80740154B39
:108A60009DF80750186044F20104A04259609A60D2
:108A700014D044F20201884208D072B69DF8073043
:108A8000002BFBD162B602B030BC7047DA60DA6806
:108A900012889A61DA685268DA61EEE71A611A6937
:108AA00092685A611A6912689A611A695268DA61A1
:108AB000E3E700BF9431002000B583B0029000913D
:108AC000019244F2010071466A4600F003F803B0D7
:108AD00000BD00BF2DE9F043044685B00E461546A3
:108AE00072B6FFF721FAFFF79DF90028FBD12C4F52
:108AF00044F2010294427B8821D044F20202944263
:108B00000ED0002B3FD1274B1B68DB0700D500BEE2
:108B10002A463146204605B0BDE8F043FFF79ABF2C
:108B2000002BF0D0204F21482B886A682049C01BB9
:108B3000C008000440F00100FEF762FEE3E7002BEE
:108B4000E1D0D5F80890194B174A4846A3EB020824
:108B500009F0B6FF2B681749CDE901364FEAD8086E
:108B60004FEA08486B68009348F0010803464A46FC
:108B70004046FFF70BF87B88002BC4D040460E49D7
:108B8000FEF730FDBFE7084B08480C49C01AC00883
:108B9000000440F001003246FEF7A8FDB3E700BF35
:108BA000AC260020F0ED00E0A8590500805A050031
:108BB00008C7040024C704004CC7040060C70400B1
:108BC000F0B412F0030412D14B1CDB000A4D0B4E23
:108BD0000B4F34709BB213442B600A4E0A4D0B4B63
:108BE00028803A60347019802046F0BC7047072412
:108BF0002046F0BC704700BFB8310020B4310020DF
:108C0000BC310020C4310020C0310020C23100201E
:108C10002DE9F047294F3B888B4235D3054600208C
:108C200016460C4604F0D4FE254B264A26481978F1
:108C300013780088DBB2834238BF0133C9B234BF36
:108C4000DBB20023994222D092F800801378DFF83B
:108C50008090DBB2984286BF0133DBB200235FFA1B
:108C600088F80020137004F0CDFED9F800300FFA18
:108C700088F24FEAC20A43F83260534405B164B93E
:108C800000209880BDE8F0870920BDE8F08700202B
:108C900004F0B8FE0420BDE8F0870C4B38881B6850
:108CA000294608FB0030224621F097FBD9F8003016
:108CB0009A440020AAF80440E4E700BFC031002035
:108CC000C4310020B4310020C2310020B83100206E
:108CD000BC3100202DE9F84F1B4C1C4D22782B781D
:108CE0009A4226D0DFF86CA0DFF86C90184FDFF8BE
:108CF0006CB04FF000082378DAF800203888D9F8F3
:108D00000060DBB20FFA83FE02EBCE0103FB0060D2
:108D1000898852F83E3098472378BBF80010DBB2C0
:108D20005A1C9942D2B206D9227023782A789A42E4
:108D3000E1D1BDE8F88F84F8008022782B789A4240
:108D4000D9D1BDE8F88F00BFC4310020B431002074
:108D5000C0310020BC310020B8310020C2310020D9
:108D6000F8B5204A204B0024C2F84041C2F84441E3
:108D7000C2F84841C2F84C41C2F80041C2F804416F
:108D80001B6833B31949D2F804550A68AD1A1A683A
:108D900025F07F45AA4227460DD8197CDE69AD1A19
:108DA000144419B11F74D3E9052090471EB133460E
:108DB0001A68AA42F1D90E490E4A0B7812789A42E3
:108DC00008D00D490D4A41F823404FF40013C2F872
:108DD0000031F8BD531CDBB2022B08BF00230B701F
:108DE000EFE700BF0010014078330020743300200B
:108DF00071330020703300206833002000E100E070
:108E00002DE9F04F8C4A8D4913780978DFF85082AC
:108E1000994285B0D8F800A000F07B810133DBB225
:108E2000022B08BF002386481370864A076852F851
:108E300023107B1823F07F4300240360534626460B
:108E40002046A446ABB11A688A4200F26581DC680C
:108E5000C3F800C0891A1044DA6934B13D1825F00E
:108E60007F45C3E90154DE611E4613460124002BF1
:108E7000E9D1002C40F07C8101230093724B734FA9
:108E8000DFF8E09143F00103019355464FF0000BEA
:108E900046B3D6E901C13446F669694B6C481A6895
:108EA000ACEB020323F07F43834248D80B4423609A
:108EB00000220121C4E90122E2612174002D5DD06C
:108EC0002A689A424DD2284603E00A689A424FD255
:108ED0000846C1699B1A0029F7D12360E161C4618A
:108EE000002ED6D178783978884264D00B4603EBCF
:108EF00043034C1CBA7807EBC303E1B28A421A79E8
:108F0000397004BF00213970022A9C6844D0032ABA
:108F100038D0012AE8D1227C002AE5D1D3F80CC050
:108F2000C4F804C01969A1605869E06099F80000AC
:108F30009B69A3610028B0D062609446ADE7A2EBC4
:108F40000C0222F07F428A4202D28B1A2360AFE7E2
:108F500000230122C4E90033A360E36122746DB1F0
:108F60002A68C8F80040D31A2B60E56125468FE7D0
:108F7000D21A0A602360E161C461B1E7C8F8004019
:108F8000254685E7002DAFD000232B74ED69002D19
:108F9000FBD1C8F80050A5E74DB1AC422B4603D138
:108FA000E4E094422FD01346DA69002AF9D1002375
:108FB000237488429AD1BBF1000F01D1554553D09B
:108FC000002D56D1234E244A1F4C4FF480334FF4CA
:108FD00000310127C2F880103C43C6F848334FF4F3
:108FE0003C60C6F808337760A047154BB7604FF474
:108FF0003C601D60A047194B1D70002389F80030AC
:1090000005B0BDE8F08FA34200F09180E0692168CF
:10901000D861002800F086802A4603680B4403606C
:10902000AA424FF000033978787823741CBF1546A4
:109030004FF0010BBDE700BF7033002071330020FB
:10904000743300206833002080C70400C83100203A
:10905000FEFF7F000010014000E100E065330020CA
:109060007833002064330020009B002BC5D0002DF6
:10907000A8D0434B434A1C68D2F80465424FD5F848
:1090800000A03978331B23F07F43DD1CB9B93F4979
:109090003F4B4FF48030C2F844034FF00108C2F850
:1090A00004034FF40030C1F8800143F0010308606D
:1090B000C2F800804FF43C60984787F80080AA45CA
:1090C0002CBF04EB0A0363192E4923F07F43C1F838
:1090D0004035D1F80425921B9B1B22F07F4223F0E0
:1090E0007F4303329A4288D9294BD1F80425C1F82D
:1090F000402543F001034FF43C609847234B4FF465
:109100000032C3F80021002389F8003005B0BDE823
:10911000F08F00260096B1E674BB521A1A60012344
:109120000093ABE6002339787878237441E7194639
:10913000EA69C8F8002092B9CDE90231114BDFF895
:1091400040C001209860019B89F80000CCF8002005
:109150004FF43C609847DDE90231D8F80020C86937
:109160000968D86100287FF458AF59E72946DFE73E
:10917000C8F800309A467FE6C8F800309A46CCE737
:1091800074330020001001406533002000E100E04E
:1091900080C704002DE9F8431F4D204E204FDFF813
:1091A00098804FF480334FF400324FF001090024CF
:1091B000C6F8802047EA0907C5F848334FF43C60F9
:1091C000C5F80833C5F80490B847C5F808904FF4BF
:1091D0003C60C8F80040B847124A134B13491C6062
:1091E0001470134B134A0C70112114701C80997069
:1091F0004FF40012C023C6F8802186F81533326080
:10920000C5F8084586F81133D5F80435C8F800309C
:109210002046BDE8F88300BF0010014000E100E0F7
:1092200080C70400653300207833002070330020AD
:10923000C83100207133002074330020074B9B7825
:109240004BB132B128B10368187C20B959745A6106
:109250007047072070470820704700BFC8310020C2
:109260002DE9F843224CA378002B35D0002833D0C9
:10927000042934D943697BB3437C0646012B4FF064
:1092800000000CBF884680461746894604F0A0FBC4
:109290006378A17822785D1CEDB2A94208BF002551
:1092A000AA421FD003EB430304EBC3030121114A7D
:1092B0009E601971D2F80425DA600020C3E9049891
:1092C0009F61657004F09EFB0B4B4FF40012C3F8D6
:1092D00000210020BDE8F8830820BDE8F8830720BE
:1092E000BDE8F883002004F08DFB0420F2E700BF06
:1092F000C83100200010014000E100E070B5174DBA
:10930000AB7823B318B343690BB300240474064647
:10931000204604F05DFB6A78A8782978531CDBB2FC
:10932000984208BF2346994213D002EB420205EB54
:10933000C20202219660204611716B7004F062FB3C
:10934000074B4FF40012C3F80021204670BD0820DF
:1093500070BD204604F056FB042070BDC8310020CB
:1093600000E100E00378052B02D0094B1B68184789
:10937000084BD3F88424D3F8803413F0FF0FF4D1D2
:10938000054BD2B2052A08BF1846014B1B68184787
:109390007C33002000700240E4C7040018B9084B79
:1093A00008481B68184710B540F27B20064904F0B6
:1093B0003DFC034B03481B68BDE81040184700BF45
:1093C0007C330020E8C7040090C704002DE9F04F6B
:1093D00087B006AF00260446894692469B4647F86A
:1093E000106D00E0013662680123556821460022B5
:1093F0003846A8470028F5D18DF80600049066B3DA
:10940000804605460AE09DF806306768023B7F68A3
:10941000B8479DF806301D44AE421ED9626801234C
:10942000576821460DF1060204A8B8476268012377
:10943000576821460DF1070204A8B8479DF8073088
:109440004B454FF00002214604A8DCD1C24508D0AC
:1094500008F101085FFA88F8D5E7052007B0BDE8F4
:10946000F08F109A9DF8063013608BF800308BF85F
:1094700001906168023B4D680BF102022146A8474A
:109480000020EBE72DE9F04F85B0054609F070FBB1
:10949000002800F08C805E480AF0A8FC044618B151
:1094A000204605B0BDE8F08F5A4A5B495B4B14700B
:1094B0000C60482221465A481C6020F0B2FF214629
:1094C0004822584820F0ADFF002D00F0868095E836
:1094D0000700554B83E80700002876D0002009F0EC
:1094E00023FC002869D1DFF848A14E4D9AF80830D6
:1094F000019300261A46F3B29342DAF804B0484FBB
:109500000AF109043DD2002C3BD0617891B3A378D5
:10951000E31818BF4FF0010914D12BE0B8F1080F80
:1095200021D805EBC803C3F800A0DBF800005860A1
:10953000894509F10103D8B21CD2A3784B44E31842
:1095400018D081461878030600F00F08E6D5B8F168
:10955000080F05D935494FF4CC7004F067FB6178EA
:1095600007EBC803DFE731494FF4CF7004F05EFB2F
:109570006178D6E70136019AF3B2934204F103040D
:10958000C1D30B238DF80C30BBF1000F39D0DBF8C1
:10959000003073B3264803A99847044600283FF4D7
:1095A0007FAF0AF0C7FC204605B0BDE8F08F1F4929
:1095B00040F2313004F03AFB6DE7852893D01B4A26
:1095C00040F25F31FFF778FA8DE71A4A1A600020FF
:1095D00009F0AAFB002886D0EFE7134B154A5D601F
:1095E00000201D721A6009F09FFB00283FF47BAF3A
:1095F000E3E70E4940F2111004F018FBDBF80030ED
:10960000C8E70A494FF4887004F010FBBFE700BFB9
:109610006593020025340020183400201C340020FB
:1096200088330020D03300207C33002090C7040012
:10963000ECC80400019F02000AF092BC08B50AF0D1
:10964000AFFD20B1044940F2D13004F0EFFABDE89B
:1096500008400BF0E5BE00BF90C7040010B50AF04B
:1096600095FD88B14FF0804303E0D3F83824D1074B
:1096700009D5D3F838249207F7D5064B06481B685E
:10968000BDE81040184710BD04494FF4767004F04F
:10969000CDFAE7E77C330020ECC7040090C7040054
:1096A00000B583B002A8822300F8043D024B1B687A
:1096B000984703B05DF804FB7C33002000B583B00D
:1096C00002A8832300F8043D024B1B68984703B0AF
:1096D0005DF804FB7C33002010B50C4B1B7882B086
:1096E00073B1012002F032FF044630B102A8842396
:1096F00000F8043D064B1B689847204602B010BD99
:10970000044940F2134004F091FAEAE724340020BF
:109710007C33002090C704002DE9F04F824685B0CD
:10972000002800F0E680DAF80430002B00F0EB802F
:109730001B68002B00F0D780DAF800301B6823B1DB
:109740007D4940F26D5004F071FA0AF01FFD0028C7
:109750003FD10AF013FD00283BD000269AF80820DC
:10976000DFF8DCB1DFF8D081744FF4B20AF10903FD
:10977000944201933FD2019B04EB44041C193BD05B
:10978000002507E0B9F1080F29D80BEBC903013513
:109790001B68D3B96378EAB2934226D9A3781344FD
:1097A000DC4222D0E25C02F00F091206EAD5B9F1E0
:1097B000080F04D941464FF4CC7004F037FA07EB98
:1097C000C90301351B68002BE4D0112005B0BDE8AA
:1097D000F08F594940F2715004F028FABDE7414634
:1097E0004FF4CF7004F022FACFE701369AF8082040
:1097F000F4B29442BFD300245FFA84F90AF109035A
:1098000091454F4DDFF830814C4F019345D2019B7C
:1098100009EB490913EB09093FD099F80130BBB3B3
:1098200099F8023019EB030318BF4FF0010B18D160
:109830002EE0082E24D805EBC603C3F800A0DAF802
:10984000042012685A6099F801100BF10103594580
:10985000DAB21BD999F802305B4419EB030315D037
:1098600093461A78130602F00F06E2D5082E04D9A3
:1098700041464FF4CC7004F0D9F907EBC603DCE79E
:1098800041464FF4CF7004F0D1F9D4E79AF808209C
:1098900001345FFA84F99145B9D32A4C236833B176
:1098A000254D9A4514D01C682368002BF9D1C4F8C3
:1098B00000A0DAF804300B228DF80C20002B33D0F6
:1098C0001B6843B3504603A9984705B0BDE8F08F25
:1098D000294640F2975004F0A9F923681C682368D0
:1098E000002BDED1E3E7144940F26C5004F09EF9FE
:1098F00022E7114940F26A5004F098F9DAF804308E
:10990000002B7FF415AF0C4940F26B5004F08EF938
:10991000DAF804300CE7084940F2111004F086F937
:10992000DAF804301B68CDE703494FF4887004F07F
:109930007DF9DAF80430C3E790C7040088330020CB
:10994000D03300201834002070B5054600284CD0D4
:109950006B68002B51D01B68002B57D00AF016FC07
:1099600018BB0AF00BFC00B32B4C22683AB12B4E0B
:10997000AA422ED0146862680434002AF8D12B68F9
:109980005B6823B1254940F20E6004F04FF9244C86
:1099900022683AB1214E95420DD0146862680434B1
:1099A000002AF8D12560002070BD1C4940F20360F8
:1099B00004F03CF9D8E7314640F2146004F036F97F
:1099C00023681C6862680434002AE4D12560002002
:1099D00070BD314640F2096004F028F923681C6824
:1099E00062680434002AC3D1C9E70C4940F2FF5031
:1099F00004F01CF96B68002BADD108494FF4C0602E
:109A000004F014F96B681B68002BA7D1034940F2DE
:109A1000016004F00BF9A1E72034002090C7040096
:109A20001C34002010B5044608B30AF0AFFB80B91F
:109A30000AF0A4FB68B1114A136843B19C4202D1F9
:109A40000EE0A3420BD01A685368002BF9D1052011
:109A500010BD0B4940F2216004F0E8F8EBE7043256
:109A600023685B68136023680020586010BD0449B8
:109A700040F21F6004F0DAF8D7E700BF1C34002082
:109A800090C7040008B560B1094A13780133DBB20E
:109A9000137023B9074940F2716004F0C7F8002041
:109AA00008BD044940F26E6004F0C0F8ECE700BF66
:109AB0002434002090C7040010B560B1094C23780D
:109AC0002BB9094940F27B6004F0B0F82378013BE0
:109AD0002370002010BD044940F2796004F0A6F81C
:109AE000ECE700BF2434002090C70400024B187834
:109AF000003018BF012070472434002000F00F030D
:109B0000072B10B5044604D80AF082FD20460BF05E
:109B10003BF92046BDE810400BF0A2B80BF050BA5C
:109B2000014B1868704700BF1834002070B4114B07
:109B30001E68A6B1357A75B1737A834206F10902BF
:109B400010D0002303E012F8034F84420BD00133FE
:109B5000DBB29D42F7D133681E68002EEAD1304651
:109B600070BC704700230029F9D030460B7070BCE0
:109B7000704700BF1834002070B515460446A0B1E8
:109B80006368D3B11B6823B129462046BDE8704005
:109B900018470D4940F2111004F048F8636829464F
:109BA00020461B68BDE870401847074940F20F1077
:109BB00004F03CF86368002BE4D103494FF488704B
:109BC00004F034F86368DDE790C7040000F00F0389
:109BD000082B14D8020670B54CBF114A114ADB009D
:109BE00013441D684DB16B680C4693B11B6843B1BB
:109BF00021462846BDE870401847102070BD10204F
:109C00007047094940F2111004F010F86B681B68A6
:109C1000EEE705494FF4887004F008F86B68E5E753
:109C200088330020D033002090C7040070B5144B57
:109C30001C681CB30546134E07E02946204698478A
:109C4000062813D123681C68C4B163687BB11B6804
:109C5000002BF2D1314640F2111003F0E7FF6368A8
:109C600029461B68204698470628EBD070BD314630
:109C70004FF4887003F0DAFF6368E8E7062070BDF0
:109C80001834002090C7040038B50D4604460AF089
:109C900001FB18B1054B1B78022B01D0082038BD01
:109CA00029462046BDE838400AF016BB253400207E
:109CB00038B50D4604460AF0EDFA18B1054B1B788D
:109CC000022B01D0082038BD29462046BDE8384087
:109CD0000AF0CCBB25340020F8B543689B680546E4
:109CE0000C4616461BB19847062800D0F8BD2B7AC3
:109CF000A34232D3002E37D12B7AA3421DD9093586
:109D000004EB44042C4467782FB3354633463A4677
:109D10000EE0A3786219D65C06F00F03072B3046DD
:109D20000DD901350AF09CFFEBB29F4213D962783E
:109D30009342EED300231B78FFDE7378FFDE0AF038
:109D400067FC30460BF020F8013530460AF088FFFA
:109D5000EBB2BB42EBD30020F8BD044940F2F9203E
:109D600003F064FF002EC7D00720F8BD90C70400A1
:109D700043681B6903B11847184670472DE9F84F2F
:109D8000364B1F68002F5DD0DFF8D4B097F808A0DD
:109D9000BAF1000F52D04FF000094C4607F1090507
:109DA0000DE020B1594640F26A7003F03FFF09F11F
:109DB00001095FFA89F4A24505F103053ED97B68E4
:109DC0009B682BB100222146384698470628E8D1E7
:109DD0003B7AA3423BD3A34236D995F80180B8F130
:109DE000000FE4D00024234642460EE0AB782A1947
:109DF000D65C06F00F03072B30460BD901340AF06E
:109E00002FFFE3B24345D2D26A789342EED30023C8
:109E10001B78FFDE0AF0FCFB30460AF0B5FF013488
:109E200030460AF01DFFE3B29845EDD809F101096B
:109E30005FFA89F4A24505F10305C0D83B681F68A5
:109E4000002FA3D1BDE8F88F00235B78FFDE5946D1
:109E500040F2F92003F0EAFE3B7ABCE71834002018
:109E600090C704002DE9F047234B1F68002F37D01F
:109E7000DFF888A097F80890B9F1000F2CD04FF0C8
:109E80000008444607F109057B68DB6813B12146E9
:109E9000384698473B7AA34227D39C4222D26E7819
:109EA00096B100242346324609E0AB782A190134E2
:109EB000D05C0BF085F8E3B29E4205D96A789342F4
:109EC000F3D300231B78FFDE08F101085FFA88F462
:109ED000A14505F10305D7D83B681F68002FC9D1FC
:109EE000BDE8F08700235B78FFDE51464FF44670F3
:109EF00003F09CFE3B7AD0E71834002090C70400A2
:109F00002DE9F041844D2B680446002B00F00483BA
:109F100003F092FD052840F28C802378852B00F217
:109F2000F482DFE813F04702E0018C006A02BD0210
:109F3000B700BE00F202E00005011E01F202F202CB
:109F4000F202F2023701F202F202F202F202F2022D
:109F5000F202F202F202F202F202F202F202F20261
:109F6000F202F202F202F202F202F202F202F20251
:109F7000F202F202F202F202F202F202F202F20241
:109F8000F202F202F202F202F202F202F202F20231
:109F9000F202F202F202F202F202F202F202F20221
:109FA000F202F202F202F202F202F202F202F20211
:109FB000F202F202F202F202F202F202F202F20201
:109FC000F202F202F202F202F202F202F202F202F1
:109FD000F202F202F202F202F202F202F202F202E1
:109FE000F202F202F202F202F202F202F202F202D1
:109FF000F202F202F202F202F202F202F202F202C1
:10A00000F202F202F202F202F202F202F202F202B0
:10A01000F202F202F202F202F202F202F202F202A0
:10A02000F202F202F20250015E019C019F0217024D
:10A03000B7003A4940F22C4003F0F8FD6DE7384E86
:10A040003278931EDBB2062B0BD83649CB5C13B1AA
:10A0500008F044FE3278022A01D0082A01D10AF021
:10A06000E3F8314B5B68032232700BB10220984752
:10A070002D687DB1294E6B68002B00F06F831B6843
:10A0800028462146002B00F0B98298472B681D68AE
:10A09000002DF0D1254B2146D3E90002BDE8F04167
:10A0A0001047A37803F00F051B0600F14082082D2E
:10A0B00000F294831D4B03EBC5052B68002B00F0C9
:10A0C0009A836B68002B00F08F832868214698479D
:10A0D00000B3A07800F00F03013B062B1AD8BDE8AF
:10A0E000F0410AF04BBA104B5B680BB1082098475F
:10A0F0002D687DB1094E6B68002B00F03D831B6815
:10A1000028462146002B00F0498298472B681D689D
:10A11000002DF0D1BDE8F0811834002090C7040074
:10A120002534002088C704007C330020D033002071
:10A13000974B5B680BB1092098472D68002DE9D03B
:10A14000944E6B68002B00F010831B682846214654
:10A15000002B00F0638298472B681D68002DF0D11A
:10A16000D8E78B4B5B680BB10A2098472D68002D10
:10A17000D0D0884E6B68002B00F0D4821B68284634
:10A180002146002B00F0AE8298472B681D68002DF9
:10A19000F0D1BFE77E4B5B680BB10F2098472D686D
:10A1A000002DB7D07B4E6B68002B00F0EC821B6853
:10A1B00028462146002B00F0018298472B681D6835
:10A1C000002DF0D1A6E7744E3378062B00F0C48141
:10A1D000072B01D0052B9DD10AF030F802233370F4
:10A1E00098E76E4B6E49D3E9000290472C6884B122
:10A1F000684E6B4D6368002B00F0A9821B682046F7
:10A200002946002B00F05E82984723681C68002CCA
:10A21000F0D15F4C63680BB10D209847FFF722FE29
:10A2200001F0E8FD5F4B1B68002B00F090810120DE
:10A23000594E09F063FF3278931EDBB2062B0BD820
:10A240005949CB5C13B108F049FD3278022A00F07D
:10A25000B682082A00F0B382012333705AE74E4ECB
:10A26000FFF700FE0AF0FCFF3278931EDBB2062BEC
:10A270000BD84D49CB5C13B108F030FD3278022A7F
:10A2800001D0082A01D109F0CFFF2C6800233370D8
:10A2900084B1404F454D6368002B00F07B821B6802
:10A2A00020462946002B00F09981984723681C68B6
:10A2B000002CF0D1394B3D49D3E900029047344B93
:10A2C0005B680BB10E2098473378023BDBB2062B5C
:10A2D0003FF620AF344AD35C002B3FF41BAFBDE800
:10A2E000F04108F0FBBC2C4EFFF7BCFD01F078FDFF
:10A2F0003278931EDBB2062B00F214812A49CB5C24
:10A30000002B00F00F81022A03D0082A01D009F0A7
:10A3100095FF1F4B5B68022232700BB101209847FA
:10A320001E4B2146D3E9000290472D68002D3FF4D3
:10A33000F1AE184E6B68002B00F033821B68284684
:10A340002146002B00F07A8198472B681D68002D6C
:10A35000F0D1DFE6104E3378032B00F0028109F0D4
:10A360002DFF00283FF4D6AE3278931EDBB2062BC9
:10A3700040F24D820E4808F06FFC3278022A00F05D
:10A380002A82082A00F0278206233370C2E600BF23
:10A390007C33002090C7040025340020D0330020F7
:10A3A000F0C704001C34002088C70400F4C7040070
:10A3B000FC220020A94B1B78032B00F0EB80082B1C
:10A3C00000F0E880A64B5B680BB100209847A54BD6
:10A3D0001D68002D3FF49EAEA34E6B68002B00F06D
:10A3E000E7811B6828462146002B00F04B819847E7
:10A3F0002B685D68002DF0D18CE6984E3378082BE1
:10A4000000F0A0809A1ED2B2062A40F2DE81974860
:10A4100008F022FC3378022B00F0D481082B00F0E6
:10A42000D181052333708E4B5B680BB103209847B5
:10A430008F4B2146D3E9000290472D68002D3FF451
:10A4400069AE894E6B68002B00F073811B6828464B
:10A450002146002B00F0568198472B681D68002D7F
:10A46000F0D157E67D4E3378032B7FF453AE0BF0DB
:10A47000D1F800283FF44EAE3278931EDBB2062BA3
:10A480000BD87C49CB5C13B108F028FC3278022A47
:10A4900000F0C381082A00F0C0810423337039E63C
:10A4A0006F4B5B680BB103209847714B7249D3E93E
:10A4B000000290472C6884B16B4E6F4D6368002B8F
:10A4C00000F03E811B6820462946002B00F0EA8000
:10A4D000984723681C68002CF0D1604E3378062B17
:10A4E00037D0082B0ED09A1ED2B2062A40F28981AC
:10A4F0005E4808F0B1FB3378022B03D0082B01D063
:10A5000009F09CFE0223337004E6574940F22650BE
:10A51000BDE8F04103F08ABB534940F2254003F007
:10A5200085FBF5E4514808F097FB3278EBE6082DFF
:10A5300004D94D494FF4CC7003F078FB4F4B03EB3B
:10A54000C505BAE50223337009F082FE6BE7207A75
:10A550006EE607233370DDE509F070FE08233370E3
:10A56000D8E50BF057F800283FF4F9AE3278931E87
:10A57000DBB2062B0BD83F49CB5C13B108F0AEFB26
:10A580003278022A00F04C81082A00F04981042325
:10A590003370E4E63A48FFF7B3FC13E7314640F284
:10A5A000111003F043FB6B6828461B68214698474F
:10A5B0002B681D68002D7FF49EADABE5314640F25F
:10A5C000111003F033FB6B6828461B68214698473F
:10A5D0002B681D68002D7FF4E6AD9BE5394640F2FF
:10A5E000111003F023FB636820461B682946984737
:10A5F00023681C68002C7FF44EAE5BE6314640F2C7
:10A60000111003F013FB6B6828461B68214698471E
:10A610002B681D68002D7FF42EAD3BE5314640F2DE
:10A62000111003F003FB6B6828461B68214698470E
:10A630002B681D68002D7FF484AD6BE5314640F238
:10A64000111003F0F3FA6B6828461B6821469847FF
:10A650002B681D68002D7FF46DAE5BE5253400206E
:10A660007C3300201C34002090C70400FC22002012
:10A67000D033002088C70400FCC7040088330020C2
:10A68000F8C70400314640F2111003F0CFFA6B68AE
:10A6900028461B68214698472B685D68002D7FF48B
:10A6A0009CAE37E5314640F2111003F0BFFA636803
:10A6B00020461B682946984723681C68002C7FF4B5
:10A6C000FDAE0AE7314640F2111003F0AFFA6368BD
:10A6D00020461B682946984723681C68002C7FF495
:10A6E00089AD96E5314640F2111003F09FFA6B6890
:10A6F00028461B68214698472B681D68002D7FF46B
:10A7000039AD07E5314640F2111003F08FFA6B685E
:10A7100028461B68214698472B681D68002D7FF44A
:10A7200091AEF7E431464FF4887003F07FFA6B681E
:10A7300024E531464FF4887003F078FA6B6885E6BB
:10A7400031464FF4887003F071FA6368BAE6314617
:10A750004FF4887003F06AFA63684FE531464FF4AE
:10A76000887003F063FA6B6889E431464FF48870AF
:10A7700003F05CFA6B68E8E431464FF4887003F04C
:10A7800055FA6B68BBE431464FF4887003F04EFA1B
:10A790006B680CE539464FF4887003F047FA63683C
:10A7A0007DE531464FF4887003F040FA6B68C5E5EB
:10A7B00031464FF4887003F039FA6B6811E609F0FE
:10A7C00033FD49E509F030FD2BE617498A5C002A84
:10A7D0007FF421AE1BE609F027FDD5E513494FF4C0
:10A7E000CF7003F023FA65E4104940F2035003F000
:10A7F0001DFA6B6869E40D4940F2025003F016FA45
:10A800005FE409498A5C002A7FF476AE70E6064967
:10A81000CB5C002B7FF4B2ADACE509F005FD3CE666
:10A8200009F002FDB3E600BF88C7040090C704002A
:10A830004360CA699A4205D201F1280202608B671F
:10A84000002070478A6902600B67CB610020704767
:10A850002DE9F04FDFF8A8840F46097A88F8001038
:10A8600083B015461E460446002800F0C6812168C4
:10A87000B1F5517F00F097832ED940F256339942BB
:10A8800000F0108400F2A380B1F5537F00F0F5834F
:10A8900040F2228140F25133994200F0898400F263
:10A8A000AF8240F24F33994200F09583B1F5547F67
:10A8B00040F0148301230022002D00F076852179D9
:10A8C000A9549E424FF00202227100F2AB8540F281
:10A8D0005133236001208DE140F22633994200F08C
:10A8E000DE8328D840F21633994200F0638340F2A9
:10A8F000328140F21933994200F07F8300F2838164
:10A9000040F21733994200F00D84B1F5467F40F0D4
:10A91000E582002D00F0518621794FF001090022D7
:10A9200000234E45A954237100F2848540F2193367
:10A93000236001205EE140F23333994200F0A483AA
:10A94000B1F54D7FC0F08780B1F54F7F00F03E84B8
:10A9500040F2F08240F24233994200F0B88200F2B5
:10A960005C8440F24133994240F0B88201234FF0B9
:10A970000009002D00F0DB84227905F80920B3429C
:10A980004FF02402227180F0A7841146581C002247
:10A990008642E954227140F28884411C10238E4281
:10A9A0002A54237140F264841A46481C01238642CB
:10A9B0006A54237140F252841A46C11805238E420C
:10A9C0002A54237140F240841A46481C9AE040F20F
:10A9D0007233994200F05C8340F2EB8040F28333A3
:10A9E000994200F04583B1F5617FC0F0988240F252
:10A9F0008933994200F0678240F28E33994200F029
:10AA00006282B1F5617F40F06982002D00F0EC8533
:10AA100023792A464FF001091370B44B3A7D1B6825
:10AA20001B789A4200F02E84BA7D9A4240F0478407
:10AA300000234E45237140F271854B4609F101090F
:10AA40000DB12279EA54AA49AA4A0B781278013347
:10AA5000DBB20B7003E2B1F54B7F00F0ED8200F248
:10AA6000128140F22733994200F0AB82B1F54A7F60
:10AA700040F034829D4B1A68002D00F0AF85237999
:10AA800029464FF0010A0B7013783A7D9A4200F084
:10AA90003284BA7D9A4240F03C840A2356452371A1
:10AAA00040F266850AF10103002D00F01785227936
:10AAB00005F80A200021B342217180F0898403F156
:10AAC000010A00225645E954227100F2158540F230
:10AAD0003533236001208DE040F24933994200F084
:10AAE000958300F2E08140F24533994200F05482B0
:10AAF000B1F5527F40F0F281002D00F05C852279A3
:10AB000001200021242386426A54237140F28D8360
:10AB10001A46411C01238E422A54237140F271834C
:10AB20001A46C818032386426A54237140F264838C
:10AB3000411C2B548E42B87D207140F26A824A1C1F
:10AB4000042396426854237100F2688440F24F3324
:10AB5000236001204EE040F21333994200F0F1826D
:10AB6000B1F5457F80F02781002900F0C78240F2CF
:10AB70001233994240F0B281002D00F07A8423799B
:10AB80002B70012E4FF00B03237140F264840321DC
:10AB9000022201202B549642387D207140F26383BB
:10ABA00002238E42A854237140F253831A46481C54
:10ABB0000EE140F25933994200F0ED8200F2A2809A
:10ABC00040F25733994200F0CC82B1F5567F40F005
:10ABD00085814FF001090023002D00F03181227999
:10ABE000EA544E45BB7D237100F2298440F259336B
:10ABF0002360012003B0BDE8F08F3F4940F20F30E1
:10AC000003F014F833E6B1F5487F00F0CD8240F24E
:10AC10002133994240F06281002D00F0DC842379D9
:10AC20002A4601211370354B3A7A1B789A4240F23A
:10AC3000928103EB430207F109032C4813F802C089
:10AC400084F804C013448E42036040F233834B1CEB
:10AC5000002D00F0C78322796A549E424FF0000213
:10AC6000227140F20A8321481146026803F1010A69
:10AC7000E95456455378237100F2E7834FF44A7341
:10AC800023600120B6E740F22D33994200F0518253
:10AC900040F22E33994240F02181002D00F097843C
:10ACA00023792A464FF0010A137000235645237179
:10ACB00040F230810AF1010915B1237905F80A3013
:10ACC000DFF828A0397DDAF800301A78914200F0D8
:10ACD0004C81B97D914200F0BC80074940F262305E
:10ACE00002F0A4FFDAF80030B3E000BF2C340020FB
:10ACF000293400202634002020C8040027340020F6
:10AD00002834002040F26D33994200F0728140F205
:10AD10006E33994240F0E280002D40F016844FF0EF
:10AD20000109DFF808B3C04ADBF8003092F800A050
:10AD3000002B00F0FD835A78524540F2E8809A4497
:10AD40009B78B1451AF80330237180F0208109F116
:10AD5000010A15B1237905F80930DBF800303A7D96
:10AD60001B789A4200F0BD82BA7D9A4240F0CB82B5
:10AD70000223B245237180F0EF8353460AF1010AA2
:10AD80000DB12279EA5440235645237140F2E88000
:10AD90000AF10109002D00F08082237905F80A30BC
:10ADA000B1454FF000032371C0F090824FF46173FE
:10ADB000236001201EE700F0E28140F21533994242
:10ADC00040F08C80002D00F0F183227901200021D9
:10ADD000022386426A54237140F231821A46411C92
:10ADE00002238E422A54237140F224824A1C6B545F
:10ADF0009642797E217140F2FA8102F101098FE5D4
:10AE000040F25233994200F0648140F25533994246
:10AE100064D1002D40F09583012324229E422271AB
:10AE200040F252815A1C06239642237140F2478118
:10AE30003B7D2371531CB34280F06A8102F1020909
:10AE4000BB7D23714E457FF6D1AE09F10109774BE9
:10AE50001B68774874495A78027000230B7093423C
:10AE60003FD3744A13780133DBB2137098F8002093
:10AE70009A4240F28B8109234E45237140F2C882E9
:10AE800009F10101002D00F0EC82237905F8093069
:10AE90008E424FF00403237100F2468340F22133C7
:10AEA00023600120A6E640F24A33994200F09381E4
:10AEB00040F24B33994211D1002D00F06B8323797E
:10AEC0000121002035E64FF001090023B8E5002DEF
:10AED00000F0648321790120002358E500202060E0
:10AEE00088E607234E45237147D909F10102002D59
:10AEF00000F01582237905F8093096424FF00503DA
:10AF000023713FD9A91802F101090B7009E7002349
:10AF10001B78FFDE4FF44F73236001206AE640F296
:10AF20007733994202D0B1F55F7FD7D14FF0010A54
:10AF3000002325E7B1F54D7F00F00B8140F235335A
:10AF40009942CBD1002D00F042832B4622791A7012
:10AF50004FF0010AA9E6354A002313601B78FFDE93
:10AF600040F283332360012044E60523B145237179
:10AF700080F0488209F10103FBE440F26D33236065
:10AF8000012037E640F26E332360012032E640F2C2
:10AF90007233236001202DE6002D00F0F482227927
:10AFA000012100200AE5002D00F0EF822279012026
:10AFB0000021FBE4002D00F0E18222790121002034
:10AFC0000EE71A4B1A68002D00F0DB8221794FF052
:10AFD000010A00234CE6002D00F012832179284657
:10AFE0000122242396420170237117D91946531C5C
:10AFF00066E401224FF0000979E7002D00F0FB82A2
:10B0000023792A464FF0010913700A4A002313706E
:10B010002CE74FF4537323600120EBE54FF4547396
:10B0200023600120E6E500BF293400202C340020F5
:10B03000263400202734002001234FF0000A002D81
:10B0400000F06182227905F80A209E424FF0020248
:10B05000227140F2C28103F1010AEA5456457B7E17
:10B06000237100F2358240F22E3323600120C1E5C6
:10B070004FF001094FF0000A8CE6002D00F08C82A1
:10B080002079012200215BE501234FF0000A0BE546
:10B09000DFF874B54FF0010A4FF0000959E60123BB
:10B0A0000021D5E501220023002D3FF4BCAE21791B
:10B0B000E95496424FF00603237100F2B78140F243
:10B0C00057332360012095E540F256332360012079
:10B0D00090E501230022002D00F073812179A9540D
:10B0E0009E424FF00502227117D9E818013324213E
:10B0F000B34202702171E7D25A1CD9E708232371A9
:10B10000002E7FF439AD40F212332360012071E547
:10B110004FF45673236001206CE540F255332360F1
:10B12000012067E5002D00F04D82237901220021E6
:10B130005DE6002D00F03D8222794FF0010A0023E8
:10B140008BE7002D00F023822379022101220020C9
:10B1500020E5002D00F0348221794FF0010A002310
:10B16000AFE4002D00F03E822179284601230170D2
:10B170003A7D22719E42CBD903F1010930E5002DC1
:10B1800000F00E8220790121002209E540F2993376
:10B19000236001202EE5002D00F02A822A46237923
:10B1A00013704FF0010952E601214FF0000969E6E2
:10B1B000002D00F0238221792846012202239642A5
:10B1C000017023710ED91946531C88E74FF001090D
:10B1D0004FF0000A70E5002D00F0E4812279012093
:10B1E00000219FE440F252332360012002E54FF436
:10B1F000467323600120FDE440F24B3323600120BD
:10B20000F8E440F24A3323600120F3E4002D00F01B
:10B21000DC812279012100207CE4002D00F0C48132
:10B22000227901210020FFF7B9BB40F249332360A6
:10B230000120DFE440F2173323600120DAE440F21A
:10B24000163323600120D5E44FF4527323600120AC
:10B25000D0E440F2153323600120CBE440F24533C3
:10B2600023600120C6E44FF4457323600120C1E44C
:10B270004FF4517323600120BCE440F22733236074
:10B280000120B7E43B6A4E451B7823713FF6D5ABEE
:10B2900040F2893323600120ACE4B1452571BFF44D
:10B2A00085AD09F10109FFF7B8BB40F243332360D4
:10B2B00001209FE440F22633236001209AE4D14923
:10B2C00040F2923002F0B2FCFFF7BDBB05EB090281
:10B2D00009F10109FFF7A0BB40F2423323600120CE
:10B2E00088E40323B2452371FFF447AD40F277337E
:10B2F000236001207EE402235645237140F232810F
:10B300000AF101039BE6BF494FF4607002F08EFC26
:10B3100039E5BC4940F2393002F088FCC5E4052328
:10B32000964223717FF62EAE02F10109F9E4242240
:10B33000B3422271D0D2013300229E422271B4D98D
:10B34000013310229E42227192D9013301229E4282
:10B35000227183D9134405229E4222717FF674AF75
:10B36000013324229E4222717FF65FAF0133012216
:10B370009E4222717FF645AF134403229E42227102
:10B380007FF63AAF0133BA7D22719E427FF641AE1D
:10B39000013304229E4222717FF6D8AB5A1C24212D
:10B3A000B2422171BFF43AAE023302229E422271B0
:10B3B0007FF68DAA5A1C0221B2422171BFF412AF4E
:10B3C0000B4405229E4222717FF6A7AE013324E58D
:10B3D0004FF44D73236001200CE440F22D332360C1
:10B3E000012007E49E4225717FF647AF864A126826
:10B3F0000133517821719E427FF640AC03F1010A7E
:10B40000FFF742BB40F2413323600120FFF7F2BB5C
:10B410004FF4487323600120FFF7ECBBA8181946CE
:10B420000132DEE51146E8185A1CC7E61946A8188D
:10B43000531C9CE605EB090209F10109E4E505EB63
:10B44000090209F10109137001E505EB0A010AF18E
:10B45000010AFFF718BB40F2133323600120FFF706
:10B46000C9BB04238E4223717FF618AD0131FFF76B
:10B47000DABB0B23012E2371EDD903230222397D80
:10B48000217196427FF6EFAE02229E4222717FF634
:10B49000E0AE03F1010902234E4523717FF6CFAEE2
:10B4A00009F1010902234E4523717FF6C3AE09F16C
:10B4B00001097B7E23714E457FF699AE09F10109A2
:10B4C00000234E4523717FF631AA09F101099CE55D
:10B4D00005EB0A020AF1010AFFF7E6BBB342257148
:10B4E000BFF476AF013300229E4222717FF6EFAAAD
:10B4F00003F1010AFFF7D9BB05EB0A030AF1010AC0
:10B500001A70FFF7D2BB02229E4222717FF665AF0E
:10B5100001337A7E22719E42EAD8A4E540F28E334E
:10B5200023600120FFF766BB6A180131FFF77ABB81
:10B530003649019340F2431002F078FB019BFFF77C
:10B54000FABB227928460123D1E5294623790B70DD
:10B550004FF00109FFF7E5BB4FF45F732360012053
:10B56000FFF748BB4FF44B7323600120FFF742BB4A
:10B5700040F2333323600120FFF73CBB4FF0010959
:10B5800090E7012335E70123E5E60123DEE6022308
:10B59000012274E70123F6E60123FAE60123CBE654
:10B5A000012371E70123E8E60123CAE64FF0010910
:10B5B00071E70123ADE70123D3E64FF001097FE7EF
:10B5C000012390E74FF0010973E70123CFE64FF025
:10B5D000010AFFF76ABB0121FFF725BB4FF0010A03
:10B5E000FFF752BA002223E44FF00109FFF715BA22
:10B5F0004FF001092BE44FF0010906E52B46D9E68F
:10B600000023CBE620C804002C34002088C80400A6
:10B610004360CA699A4205D201F128020260002003
:10B620008B6770478A6910B40260C8698C690A6FB9
:10B63000C01A1C441A44C86100308C6118BF012034
:10B640000A675DF8044B704788B910B50C46C9B15C
:10B65000206870B1037B202B07D100F10E01072277
:10B6600018301EF0BAFE002010BD062010BD0320C9
:10B6700070476020064902F0D9FA2068037B202B2E
:10B68000EBD0F2E702495F2002F0D0FAE0E700BF1A
:10B6900020C804002DE9F0430E4689B00546002875
:10B6A0007ED0002E00F0848033780E2B5AD8DFE84D
:10B6B00003F054085454591E5E59590859545454AF
:10B6C0005400002D00F083802B68002B00F0888050
:10B6D0000024C3E91E44C3E9204403F134021C845E
:10B6E0005C62DC625A67204609B0BDE8F083002D39
:10B6F00000F036817378D9094FEA531276D1012AC6
:10B7000030D13DB9B149522002F090FAAF495F20E3
:10B7100002F08CFA2F6827B9AC49602002F086FA53
:10B720002F68B378202B00F0B380222B1AD1B6F803
:10B730000730BBB9B6F8033097F820203B8402F0FD
:10B74000010203F001039A4207D0EA69002B00F0DE
:10B75000748112B12846022190470024204609B086
:10B76000BDE8F0830624204609B0BDE8F083002D33
:10B7700000F0F0802F7A1FB3AB7A05F10901EBB12D
:10B78000EA7AB3788A5C9A42E7D01B06F47800F133
:10B79000CE80012CE1D043D3032CDED00324A2E7DA
:10B7A0008A4940F2DD2002F041FA002E7FF47CAF9E
:10B7B000864940F2DE2002F039FA75E71B78FFDE99
:10B7C000834940F2431002F031FA7B78FFDE7F4973
:10B7D000522002F02BFA7D495F2002F027FA73E72E
:10B7E0007A49602002F022FA2B6871E712F0030216
:10B7F00074D0012AB6D1002D00F050812B68002BA7
:10B8000000F04581B378212BACD1B6F80720072A88
:10B81000A8D12968701C183100F0F6FA044662E7D6
:10B820002E68002E00F00281012F06F10C0240F27A
:10B830008980697B012905F10C0340F297806548F6
:10B84000A97BCDE905020B44B26A93F80180002A76
:10B8500040F08F80F36FF46AB267C6E91F23002CB3
:10B8600000F0E28006F12C0393E8030006F12403C4
:10B8700083E80300F262404605A9FEF719FA044680
:10B88000EB69002B3FF42FAF2846002198472AE7A9
:10B89000B6F80720072A7FF465AF002F00F01E815D
:10B8A0003B73B6F807300024DBB27B7320460E37BB
:10B8B000CDE90573079402F08BF8204605A9FEF741
:10B8C000E3F9044630B9444B049503A9039300F00F
:10B8D00021FE0446002002F095F804E703F01F0360
:10B8E000012B7FF43FAFB478062C7FF43BAF05A863
:10B8F000039200F023FE0DF10C0C0746F27831792B
:10B90000CDF800C028463B46FDF760FD05283FF412
:10B91000EAAE039A3F2A04D92C49C92002F086F9DD
:10B92000039A3946701C00F06FFA0446DBE6002CDF
:10B930007FF432AFEB69002B3FF40FAF28460121B3
:10B940009847D0E6224940F2431002F06FF90023F5
:10B950005B78FFDE1E494FF4887002F067F909E753
:10B960001A494FF4E47002F061F9C3E600231B7832
:10B97000FFDED6F88490706A4A4506F1340C28BF81
:10B980004A466146144667461EF027FDF26FF16A8B
:10B99000A9EB040307EB040C22444FF00009C6E9AD
:10B9A0001DC3C6E91F92002976D006F12C0797E83F
:10B9B000030006F1240484E80300C6F82C90002B51
:10B9C00075D0B26A934217D27AE000BF20C8040053
:10B9D00088C8040011B6020049B6020097E80300C7
:10B9E00084E80300B36FC6F82C90002B5FD0B26AD6
:10B9F000D6F874C09A4263D86146706A1EF0EDFCB6
:10BA0000D6E91D32B16AC6F880100B44521AC6E955
:10BA10001D32EB6913B1002128469847F36A002BC9
:10BA2000DCD1736200242BE7746229E72F49602080
:10BA300002F0FCF82F7A2E68F6E612B103212846B0
:10BA400090472B7A012B7FF67DAF6B7B05F10C04C1
:10BA5000002B3FF4B3AEAB7BE05C09F0CBF92B7A63
:10BA6000012B7FF66FAF6B7B012B7FF67FAFAB7B3C
:10BA70001C44607809F0BEF9002407F134037C62AD
:10BA8000FC62C7E91E44C7E920447B672BE61749DF
:10BA9000602002F0CBF8B5E67162C3E7134952208B
:10BAA00002F0C4F811495F2002F0C0F8A6E6736AFC
:10BAB000002BB7D0404605A9FEF7FAF80446DFE6AA
:10BAC0001A466146706A1EF088FCD6E90932B16FE9
:10BAD000F167521A0B44C6E90932E9E703496020CD
